{
  "contractName": "avaxTreezNftMarket",
  "abi": [
    {
      "anonymous": false,
      "inputs": [
        {
          "indexed": true,
          "internalType": "address",
          "name": "previousOwner",
          "type": "address"
        },
        {
          "indexed": true,
          "internalType": "address",
          "name": "newOwner",
          "type": "address"
        }
      ],
      "name": "OwnershipTransferred",
      "type": "event"
    },
    {
      "anonymous": false,
      "inputs": [
        {
          "indexed": false,
          "internalType": "address",
          "name": "bidder",
          "type": "address"
        },
        {
          "indexed": false,
          "internalType": "uint256",
          "name": "saleID",
          "type": "uint256"
        },
        {
          "indexed": false,
          "internalType": "uint256",
          "name": "bidAmount",
          "type": "uint256"
        }
      ],
      "name": "bidAddedToSale",
      "type": "event"
    },
    {
      "anonymous": false,
      "inputs": [
        {
          "indexed": false,
          "internalType": "address",
          "name": "seller",
          "type": "address"
        },
        {
          "indexed": false,
          "internalType": "uint256",
          "name": "saleID",
          "type": "uint256"
        },
        {
          "indexed": false,
          "internalType": "uint256",
          "name": "askingPrice",
          "type": "uint256"
        },
        {
          "indexed": false,
          "internalType": "bool",
          "name": "auctionable",
          "type": "bool"
        }
      ],
      "name": "itemAddedToSales",
      "type": "event"
    },
    {
      "anonymous": false,
      "inputs": [
        {
          "indexed": false,
          "internalType": "address",
          "name": "buyer",
          "type": "address"
        },
        {
          "indexed": false,
          "internalType": "address",
          "name": "seller",
          "type": "address"
        },
        {
          "indexed": false,
          "internalType": "uint256",
          "name": "saleID",
          "type": "uint256"
        },
        {
          "indexed": false,
          "internalType": "uint256",
          "name": "amount",
          "type": "uint256"
        }
      ],
      "name": "itemSold",
      "type": "event"
    },
    {
      "inputs": [
        {
          "internalType": "uint256",
          "name": "",
          "type": "uint256"
        }
      ],
      "name": "acceptedPayments",
      "outputs": [
        {
          "internalType": "address",
          "name": "",
          "type": "address"
        }
      ],
      "stateMutability": "view",
      "type": "function"
    },
    {
      "inputs": [
        {
          "internalType": "address",
          "name": "",
          "type": "address"
        }
      ],
      "name": "acceptedTokens",
      "outputs": [
        {
          "internalType": "bool",
          "name": "",
          "type": "bool"
        }
      ],
      "stateMutability": "view",
      "type": "function"
    },
    {
      "inputs": [
        {
          "internalType": "address",
          "name": "",
          "type": "address"
        },
        {
          "internalType": "uint256",
          "name": "",
          "type": "uint256"
        }
      ],
      "name": "isActiveOnSale",
      "outputs": [
        {
          "internalType": "bool",
          "name": "",
          "type": "bool"
        }
      ],
      "stateMutability": "view",
      "type": "function"
    },
    {
      "inputs": [
        {
          "internalType": "address",
          "name": "",
          "type": "address"
        }
      ],
      "name": "isActivepaymentMethod",
      "outputs": [
        {
          "internalType": "bool",
          "name": "",
          "type": "bool"
        }
      ],
      "stateMutability": "view",
      "type": "function"
    },
    {
      "inputs": [
        {
          "internalType": "address",
          "name": "",
          "type": "address"
        }
      ],
      "name": "isExcludedFromFees",
      "outputs": [
        {
          "internalType": "bool",
          "name": "",
          "type": "bool"
        }
      ],
      "stateMutability": "view",
      "type": "function"
    },
    {
      "inputs": [
        {
          "internalType": "uint256",
          "name": "",
          "type": "uint256"
        }
      ],
      "name": "itemsForSale",
      "outputs": [
        {
          "internalType": "uint256",
          "name": "id",
          "type": "uint256"
        },
        {
          "internalType": "address",
          "name": "tokenAddress",
          "type": "address"
        },
        {
          "internalType": "uint256",
          "name": "tokenID",
          "type": "uint256"
        },
        {
          "internalType": "address payable",
          "name": "owner",
          "type": "address"
        },
        {
          "internalType": "uint256",
          "name": "askingPrice",
          "type": "uint256"
        },
        {
          "internalType": "bool",
          "name": "auctionable",
          "type": "bool"
        },
        {
          "components": [
            {
              "internalType": "address payable",
              "name": "bidder",
              "type": "address"
            },
            {
              "internalType": "bool",
              "name": "isActive",
              "type": "bool"
            },
            {
              "internalType": "uint256",
              "name": "amount",
              "type": "uint256"
            }
          ],
          "internalType": "struct avaxTreezNftMarket.bid",
          "name": "winningBid",
          "type": "tuple"
        },
        {
          "internalType": "bool",
          "name": "isSold",
          "type": "bool"
        },
        {
          "internalType": "address",
          "name": "acceptedPaymentMethod",
          "type": "address"
        }
      ],
      "stateMutability": "view",
      "type": "function"
    },
    {
      "inputs": [
        {
          "internalType": "uint256",
          "name": "",
          "type": "uint256"
        }
      ],
      "name": "itemsForSaleList",
      "outputs": [
        {
          "internalType": "uint256",
          "name": "",
          "type": "uint256"
        }
      ],
      "stateMutability": "view",
      "type": "function"
    },
    {
      "inputs": [],
      "name": "owner",
      "outputs": [
        {
          "internalType": "address",
          "name": "",
          "type": "address"
        }
      ],
      "stateMutability": "view",
      "type": "function"
    },
    {
      "inputs": [],
      "name": "renounceOwnership",
      "outputs": [],
      "stateMutability": "nonpayable",
      "type": "function"
    },
    {
      "inputs": [
        {
          "internalType": "address",
          "name": "newOwner",
          "type": "address"
        }
      ],
      "name": "transferOwnership",
      "outputs": [],
      "stateMutability": "nonpayable",
      "type": "function"
    },
    {
      "inputs": [
        {
          "internalType": "address",
          "name": "",
          "type": "address"
        },
        {
          "internalType": "address",
          "name": "",
          "type": "address"
        },
        {
          "internalType": "uint256",
          "name": "",
          "type": "uint256"
        },
        {
          "internalType": "bytes",
          "name": "",
          "type": "bytes"
        }
      ],
      "name": "onERC721Received",
      "outputs": [
        {
          "internalType": "bytes4",
          "name": "",
          "type": "bytes4"
        }
      ],
      "stateMutability": "nonpayable",
      "type": "function"
    },
    {
      "inputs": [],
      "name": "itemsForSaleIds",
      "outputs": [
        {
          "internalType": "uint256[]",
          "name": "",
          "type": "uint256[]"
        }
      ],
      "stateMutability": "view",
      "type": "function"
    },
    {
      "inputs": [
        {
          "internalType": "address",
          "name": "_tokenAddress",
          "type": "address"
        },
        {
          "internalType": "uint256",
          "name": "_tokenID",
          "type": "uint256"
        },
        {
          "internalType": "uint256",
          "name": "_askingPrice",
          "type": "uint256"
        },
        {
          "internalType": "address",
          "name": "_acceptedPayment",
          "type": "address"
        },
        {
          "internalType": "bool",
          "name": "_auctionable",
          "type": "bool"
        }
      ],
      "name": "addItemToSale",
      "outputs": [
        {
          "internalType": "uint256",
          "name": "",
          "type": "uint256"
        }
      ],
      "stateMutability": "nonpayable",
      "type": "function"
    },
    {
      "inputs": [
        {
          "internalType": "uint256",
          "name": "saleID",
          "type": "uint256"
        },
        {
          "internalType": "uint256",
          "name": "amount",
          "type": "uint256"
        }
      ],
      "name": "buyItem",
      "outputs": [],
      "stateMutability": "payable",
      "type": "function"
    },
    {
      "inputs": [
        {
          "internalType": "uint256",
          "name": "saleID",
          "type": "uint256"
        },
        {
          "internalType": "uint256",
          "name": "amount",
          "type": "uint256"
        }
      ],
      "name": "placeBID",
      "outputs": [],
      "stateMutability": "payable",
      "type": "function"
    },
    {
      "inputs": [
        {
          "internalType": "uint256",
          "name": "saleID",
          "type": "uint256"
        }
      ],
      "name": "withdrawBid",
      "outputs": [],
      "stateMutability": "nonpayable",
      "type": "function"
    },
    {
      "inputs": [
        {
          "internalType": "uint256",
          "name": "saleID",
          "type": "uint256"
        }
      ],
      "name": "acceptWinningBid",
      "outputs": [],
      "stateMutability": "nonpayable",
      "type": "function"
    },
    {
      "inputs": [
        {
          "internalType": "uint256",
          "name": "saleID",
          "type": "uint256"
        }
      ],
      "name": "cancelSales",
      "outputs": [],
      "stateMutability": "nonpayable",
      "type": "function"
    },
    {
      "inputs": [
        {
          "internalType": "address",
          "name": "_tokenAddress",
          "type": "address"
        },
        {
          "internalType": "bool",
          "name": "Nftstatus",
          "type": "bool"
        }
      ],
      "name": "NftTokenStatusUpdate",
      "outputs": [],
      "stateMutability": "nonpayable",
      "type": "function"
    },
    {
      "inputs": [
        {
          "internalType": "address",
          "name": "paymentAddress",
          "type": "address"
        },
        {
          "internalType": "uint256",
          "name": "fee",
          "type": "uint256"
        }
      ],
      "name": "addPaymentMethod",
      "outputs": [],
      "stateMutability": "nonpayable",
      "type": "function"
    },
    {
      "inputs": [
        {
          "internalType": "address",
          "name": "paymentAddress",
          "type": "address"
        }
      ],
      "name": "activatePaymentMethod",
      "outputs": [],
      "stateMutability": "nonpayable",
      "type": "function"
    },
    {
      "inputs": [
        {
          "internalType": "address",
          "name": "paymentAddress",
          "type": "address"
        }
      ],
      "name": "deactivatePaymentMethod",
      "outputs": [],
      "stateMutability": "nonpayable",
      "type": "function"
    },
    {
      "inputs": [
        {
          "internalType": "address payable",
          "name": "_feeRemitanceAddress",
          "type": "address"
        }
      ],
      "name": "feeRemitanceAddressUpdate",
      "outputs": [],
      "stateMutability": "nonpayable",
      "type": "function"
    },
    {
      "inputs": [
        {
          "internalType": "bool",
          "name": "activeMinimumsState",
          "type": "bool"
        },
        {
          "internalType": "bool",
          "name": "canWithdrawBidState",
          "type": "bool"
        }
      ],
      "name": "settings",
      "outputs": [],
      "stateMutability": "nonpayable",
      "type": "function"
    },
    {
      "inputs": [
        {
          "internalType": "address",
          "name": "_paymentMethod",
          "type": "address"
        },
        {
          "internalType": "uint256",
          "name": "_fees",
          "type": "uint256"
        }
      ],
      "name": "setPaymentMethodFees",
      "outputs": [],
      "stateMutability": "nonpayable",
      "type": "function"
    },
    {
      "inputs": [
        {
          "internalType": "address",
          "name": "_seller",
          "type": "address"
        },
        {
          "internalType": "bool",
          "name": "status",
          "type": "bool"
        }
      ],
      "name": "ex_in_Clude_FromFee",
      "outputs": [],
      "stateMutability": "nonpayable",
      "type": "function"
    }
  ],
  "bytecode": "0x60806040523480156200001157600080fd5b5062000032620000266200003860201b60201c565b6200004060201b60201c565b62000104565b600033905090565b60008060009054906101000a900473ffffffffffffffffffffffffffffffffffffffff169050816000806101000a81548173ffffffffffffffffffffffffffffffffffffffff021916908373ffffffffffffffffffffffffffffffffffffffff1602179055508173ffffffffffffffffffffffffffffffffffffffff168173ffffffffffffffffffffffffffffffffffffffff167f8be0079c531659141344cd1fd0a4f28419497f9722a3daafe3b4186f6b6457e060405160405180910390a35050565b615b2c80620001146000396000f3fe6080604052600436106101815760003560e01c80638da5cb5b116100d1578063b1dc53d01161008a578063d26d518511610064578063d26d518514610578578063d52e253c146105b5578063ecf53bc4146105de578063f2fde38b1461061b57610181565b8063b1dc53d0146104f6578063bec2862514610512578063c373d5ef1461054f57610181565b80638da5cb5b146103f75780639089ecab14610422578063911587821461045f578063942ec85a146104885780639979c009146104b1578063b0fa1198146104cd57610181565b80634fbee1931161013e5780636351573d116101185780636351573d1461034f578063715018a61461037a5780637bcdad1b1461039157806382dc4a05146103ba57610181565b80634fbee193146102c0578063539270bc146102fd57806355dc53951461032657610181565b8063092d0afc146101865780630eaaf4c8146101cb5780630fdd8ec9146101f4578063150b7a021461021d5780632caf233d1461025a57806337cf12db14610297575b600080fd5b34801561019257600080fd5b506101ad60048036038101906101a891906146eb565b610644565b6040516101c2999897969594939291906156ab565b60405180910390f35b3480156101d757600080fd5b506101f260048036038101906101ed91906146eb565b610791565b005b34801561020057600080fd5b5061021b600480360381019061021691906146af565b610d27565b005b34801561022957600080fd5b50610244600480360381019061023f919061451c565b610ddb565b60405161025191906152f5565b60405180910390f35b34801561026657600080fd5b50610281600480360381019061027c91906146eb565b610def565b60405161028e9190615690565b60405180910390f35b3480156102a357600080fd5b506102be60048036038101906102b991906144a1565b610e13565b005b3480156102cc57600080fd5b506102e760048036038101906102e291906144a1565b611006565b6040516102f491906152da565b60405180910390f35b34801561030957600080fd5b50610324600480360381019061031f91906145d3565b611026565b005b34801561033257600080fd5b5061034d600480360381019061034891906146eb565b61123b565b005b34801561035b57600080fd5b5061036461185b565b60405161037191906152b8565b60405180910390f35b34801561038657600080fd5b5061038f6118b3565b005b34801561039d57600080fd5b506103b860048036038101906103b39190614597565b61193b565b005b3480156103c657600080fd5b506103e160048036038101906103dc91906144a1565b611a12565b6040516103ee91906152da565b60405180910390f35b34801561040357600080fd5b5061040c611a32565b604051610419919061510e565b60405180910390f35b34801561042e57600080fd5b506104496004803603810190610444919061460f565b611a5b565b6040516104569190615690565b60405180910390f35b34801561046b57600080fd5b50610486600480360381019061048191906144a1565b612039565b005b34801561049457600080fd5b506104af60048036038101906104aa91906146eb565b61222b565b005b6104cb60048036038101906104c6919061473d565b612530565b005b3480156104d957600080fd5b506104f460048036038101906104ef91906145d3565b612991565b005b610510600480360381019061050b919061473d565b612b39565b005b34801561051e57600080fd5b50610539600480360381019061053491906144a1565b6131e6565b60405161054691906152da565b60405180910390f35b34801561055b57600080fd5b5061057660048036038101906105719190614597565b613206565b005b34801561058457600080fd5b5061059f600480360381019061059a91906145d3565b61334d565b6040516105ac91906152da565b60405180910390f35b3480156105c157600080fd5b506105dc60048036038101906105d791906144f3565b61337c565b005b3480156105ea57600080fd5b50610605600480360381019061060091906146eb565b6134ac565b604051610612919061510e565b60405180910390f35b34801561062757600080fd5b50610642600480360381019061063d91906144a1565b6134eb565b005b60026020528060005260406000206000915090508060000154908060010160009054906101000a900473ffffffffffffffffffffffffffffffffffffffff16908060020154908060030160009054906101000a900473ffffffffffffffffffffffffffffffffffffffff16908060040154908060050160009054906101000a900460ff1690806007016040518060600160405290816000820160009054906101000a900473ffffffffffffffffffffffffffffffffffffffff1673ffffffffffffffffffffffffffffffffffffffff1673ffffffffffffffffffffffffffffffffffffffff1681526020016000820160149054906101000a900460ff161515151581526020016001820154815250509080600a0160009054906101000a900460ff169080600a0160019054906101000a900473ffffffffffffffffffffffffffffffffffffffff16905089565b80600360006002600084815260200190815260200160002060010160009054906101000a900473ffffffffffffffffffffffffffffffffffffffff1673ffffffffffffffffffffffffffffffffffffffff1673ffffffffffffffffffffffffffffffffffffffff16815260200190815260200160002060006002600084815260200190815260200160002060020154815260200190815260200160002060009054906101000a900460ff168015610869575060026000828152602001908152602001600020600a0160009054906101000a900460ff16155b6108a8576040517f08c379a000000000000000000000000000000000000000000000000000000000815260040161089f90615430565b60405180910390fd5b600a60019054906101000a900460ff166108f7576040517f08c379a00000000000000000000000000000000000000000000000000000000081526004016108ee906154b0565b60405180910390fd5b6002600083815260200190815260200160002060070160000160009054906101000a900473ffffffffffffffffffffffffffffffffffffffff1673ffffffffffffffffffffffffffffffffffffffff166002600084815260200190815260200160002060090160006109676135e3565b73ffffffffffffffffffffffffffffffffffffffff1673ffffffffffffffffffffffffffffffffffffffff16815260200190815260200160002060000160009054906101000a900473ffffffffffffffffffffffffffffffffffffffff1673ffffffffffffffffffffffffffffffffffffffff161415610a1c576040517f08c379a0000000000000000000000000000000000000000000000000000000008152600401610a13906154d0565b60405180910390fd5b600260008381526020019081526020016000206009016000610a3c6135e3565b73ffffffffffffffffffffffffffffffffffffffff1673ffffffffffffffffffffffffffffffffffffffff16815260200190815260200160002060000160149054906101000a900460ff168015610af057506000600260008481526020019081526020016000206009016000610ab06135e3565b73ffffffffffffffffffffffffffffffffffffffff1673ffffffffffffffffffffffffffffffffffffffff16815260200190815260200160002060010154115b610b2f576040517f08c379a0000000000000000000000000000000000000000000000000000000008152600401610b2690615370565b60405180910390fd5b610c4a600260008481526020019081526020016000206009016000610b526135e3565b73ffffffffffffffffffffffffffffffffffffffff1673ffffffffffffffffffffffffffffffffffffffff16815260200190815260200160002060000160009054906101000a900473ffffffffffffffffffffffffffffffffffffffff1660026000858152602001908152602001600020600a0160019054906101000a900473ffffffffffffffffffffffffffffffffffffffff16600260008681526020019081526020016000206009016000610c076135e3565b73ffffffffffffffffffffffffffffffffffffffff1673ffffffffffffffffffffffffffffffffffffffff168152602001908152602001600020600101546135eb565b6000600260008481526020019081526020016000206009016000610c6c6135e3565b73ffffffffffffffffffffffffffffffffffffffff1673ffffffffffffffffffffffffffffffffffffffff168152602001908152602001600020600101819055506000600260008481526020019081526020016000206009016000610ccf6135e3565b73ffffffffffffffffffffffffffffffffffffffff1673ffffffffffffffffffffffffffffffffffffffff16815260200190815260200160002060000160146101000a81548160ff0219169083151502179055505050565b610d2f6135e3565b73ffffffffffffffffffffffffffffffffffffffff16610d4d611a32565b73ffffffffffffffffffffffffffffffffffffffff1614610da3576040517f08c379a0000000000000000000000000000000000000000000000000000000008152600401610d9a90615550565b60405180910390fd5b81600a60006101000a81548160ff02191690831515021790555080600a60016101000a81548160ff0219169083151502179055505050565b600063150b7a0260e01b9050949350505050565b60018181548110610dff57600080fd5b906000526020600020016000915090505481565b610e1b6135e3565b73ffffffffffffffffffffffffffffffffffffffff16610e39611a32565b73ffffffffffffffffffffffffffffffffffffffff1614610e8f576040517f08c379a0000000000000000000000000000000000000000000000000000000008152600401610e8690615550565b60405180910390fd5b600660008273ffffffffffffffffffffffffffffffffffffffff1673ffffffffffffffffffffffffffffffffffffffff16815260200190815260200160002060030160009054906101000a900460ff16610f1e576040517f08c379a0000000000000000000000000000000000000000000000000000000008152600401610f1590615490565b60405180910390fd5b600760008273ffffffffffffffffffffffffffffffffffffffff1673ffffffffffffffffffffffffffffffffffffffff16815260200190815260200160002060009054906101000a900460ff1615610fab576040517f08c379a0000000000000000000000000000000000000000000000000000000008152600401610fa290615470565b60405180910390fd5b6001600760008373ffffffffffffffffffffffffffffffffffffffff1673ffffffffffffffffffffffffffffffffffffffff16815260200190815260200160002060006101000a81548160ff02191690831515021790555050565b60096020528060005260406000206000915054906101000a900460ff1681565b61102e6135e3565b73ffffffffffffffffffffffffffffffffffffffff1661104c611a32565b73ffffffffffffffffffffffffffffffffffffffff16146110a2576040517f08c379a000000000000000000000000000000000000000000000000000000000815260040161109990615550565b60405180910390fd5b600660008373ffffffffffffffffffffffffffffffffffffffff1673ffffffffffffffffffffffffffffffffffffffff16815260200190815260200160002060030160009054906101000a900460ff1615611132576040517f08c379a0000000000000000000000000000000000000000000000000000000008152600401611129906153b0565b60405180910390fd5b6000600660008473ffffffffffffffffffffffffffffffffffffffff1673ffffffffffffffffffffffffffffffffffffffff1681526020019081526020016000209050828160000160006101000a81548173ffffffffffffffffffffffffffffffffffffffff021916908373ffffffffffffffffffffffffffffffffffffffff16021790555081816001018190555060018160030160006101000a81548160ff0219169083151502179055506001600760008573ffffffffffffffffffffffffffffffffffffffff1673ffffffffffffffffffffffffffffffffffffffff16815260200190815260200160002060006101000a81548160ff021916908315150217905550505050565b806112446135e3565b73ffffffffffffffffffffffffffffffffffffffff166002600083815260200190815260200160002060030160009054906101000a900473ffffffffffffffffffffffffffffffffffffffff1673ffffffffffffffffffffffffffffffffffffffff16146112e7576040517f08c379a00000000000000000000000000000000000000000000000000000000081526004016112de90615310565b60405180910390fd5b81600360006002600084815260200190815260200160002060010160009054906101000a900473ffffffffffffffffffffffffffffffffffffffff1673ffffffffffffffffffffffffffffffffffffffff1673ffffffffffffffffffffffffffffffffffffffff16815260200190815260200160002060006002600084815260200190815260200160002060020154815260200190815260200160002060009054906101000a900460ff1680156113bf575060026000828152602001908152602001600020600a0160009054906101000a900460ff16155b6113fe576040517f08c379a00000000000000000000000000000000000000000000000000000000081526004016113f590615430565b60405180910390fd5b6000600260008581526020019081526020016000206006018054905011801561148d5750600073ffffffffffffffffffffffffffffffffffffffff166002600085815260200190815260200160002060070160000160009054906101000a900473ffffffffffffffffffffffffffffffffffffffff1673ffffffffffffffffffffffffffffffffffffffff1614155b6114cc576040517f08c379a00000000000000000000000000000000000000000000000000000000081526004016114c3906154f0565b60405180910390fd5b6002600084815260200190815260200160002060050160009054906101000a900460ff1661152f576040517f08c379a0000000000000000000000000000000000000000000000000000000008152600401611526906155d0565b60405180910390fd5b600060026000858152602001908152602001600020905060006006600083600a0160019054906101000a900473ffffffffffffffffffffffffffffffffffffffff1673ffffffffffffffffffffffffffffffffffffffff1673ffffffffffffffffffffffffffffffffffffffff16815260200190815260200160002090506116078260010160009054906101000a900473ffffffffffffffffffffffffffffffffffffffff1683600201548460070160000160009054906101000a900473ffffffffffffffffffffffffffffffffffffffff16613706565b60008260070160010154905060008360090160008560070160000160009054906101000a900473ffffffffffffffffffffffffffffffffffffffff1673ffffffffffffffffffffffffffffffffffffffff1673ffffffffffffffffffffffffffffffffffffffff16815260200190815260200160002060000160146101000a81548160ff0219169083151502179055506000826001015411156116b1576116ae8682613780565b90505b6117048360030160009054906101000a900473ffffffffffffffffffffffffffffffffffffffff1684600a0160019054906101000a900473ffffffffffffffffffffffffffffffffffffffff16836135eb565b61170d866138d3565b600183600a0160006101000a81548160ff0219169083151502179055506000600360008560010160009054906101000a900473ffffffffffffffffffffffffffffffffffffffff1673ffffffffffffffffffffffffffffffffffffffff1673ffffffffffffffffffffffffffffffffffffffff16815260200190815260200160002060008560020154815260200190815260200160002060006101000a81548160ff0219169083151502179055506117c486613df1565b7f01dce038fda302c66fd7485cc5109ca8acaaf44c56e69609025ad06f0866ef848360030160009054906101000a900473ffffffffffffffffffffffffffffffffffffffff168460070160000160009054906101000a900473ffffffffffffffffffffffffffffffffffffffff1688866007016001015460405161184b9493929190615129565b60405180910390a1505050505050565b606060018054806020026020016040519081016040528092919081815260200182805480156118a957602002820191906000526020600020905b815481526020019060010190808311611895575b5050505050905090565b6118bb6135e3565b73ffffffffffffffffffffffffffffffffffffffff166118d9611a32565b73ffffffffffffffffffffffffffffffffffffffff161461192f576040517f08c379a000000000000000000000000000000000000000000000000000000000815260040161192690615550565b60405180910390fd5b6119396000613f4f565b565b6119436135e3565b73ffffffffffffffffffffffffffffffffffffffff16611961611a32565b73ffffffffffffffffffffffffffffffffffffffff16146119b7576040517f08c379a00000000000000000000000000000000000000000000000000000000081526004016119ae90615550565b60405180910390fd5b80600960008473ffffffffffffffffffffffffffffffffffffffff1673ffffffffffffffffffffffffffffffffffffffff16815260200190815260200160002060006101000a81548160ff0219169083151502179055505050565b60086020528060005260406000206000915054906101000a900460ff1681565b60008060009054906101000a900473ffffffffffffffffffffffffffffffffffffffff16905090565b6000600860008773ffffffffffffffffffffffffffffffffffffffff1673ffffffffffffffffffffffffffffffffffffffff16815260200190815260200160002060009054906101000a900460ff16611ae9576040517f08c379a0000000000000000000000000000000000000000000000000000000008152600401611ae090615590565b60405180910390fd5b611af16135e3565b73ffffffffffffffffffffffffffffffffffffffff168673ffffffffffffffffffffffffffffffffffffffff16636352211e876040518263ffffffff1660e01b8152600401611b409190615690565b60206040518083038186803b158015611b5857600080fd5b505afa158015611b6c573d6000803e3d6000fd5b505050506040513d601f19601f82011682018060405250810190611b9091906144ca565b73ffffffffffffffffffffffffffffffffffffffff1614611be6576040517f08c379a0000000000000000000000000000000000000000000000000000000008152600401611bdd906155b0565b60405180910390fd5b3073ffffffffffffffffffffffffffffffffffffffff168673ffffffffffffffffffffffffffffffffffffffff1663081812fc876040518263ffffffff1660e01b8152600401611c369190615690565b60206040518083038186803b158015611c4e57600080fd5b505afa158015611c62573d6000803e3d6000fd5b505050506040513d601f19601f82011682018060405250810190611c8691906144ca565b73ffffffffffffffffffffffffffffffffffffffff1614611cdc576040517f08c379a0000000000000000000000000000000000000000000000000000000008152600401611cd390615670565b60405180910390fd5b600360008773ffffffffffffffffffffffffffffffffffffffff1673ffffffffffffffffffffffffffffffffffffffff168152602001908152602001600020600086815260200190815260200160002060009054906101000a900460ff1615611d7a576040517f08c379a0000000000000000000000000000000000000000000000000000000008152600401611d7190615510565b60405180910390fd5b600760008473ffffffffffffffffffffffffffffffffffffffff1673ffffffffffffffffffffffffffffffffffffffff16815260200190815260200160002060009054906101000a900460ff16611e06576040517f08c379a0000000000000000000000000000000000000000000000000000000008152600401611dfd906153d0565b60405180910390fd5b611e108686614013565b600060018054905090506000600260008381526020019081526020016000209050818160000181905550878160010160006101000a81548173ffffffffffffffffffffffffffffffffffffffff021916908373ffffffffffffffffffffffffffffffffffffffff160217905550868160020181905550611e8e6135e3565b8160030160006101000a81548173ffffffffffffffffffffffffffffffffffffffff021916908373ffffffffffffffffffffffffffffffffffffffff160217905550858160040181905550838160050160006101000a81548160ff021916908315150217905550600081600a0160006101000a81548160ff0219169083151502179055508481600a0160016101000a81548173ffffffffffffffffffffffffffffffffffffffff021916908373ffffffffffffffffffffffffffffffffffffffff16021790555060018290806001815401808255809150506001900390600052602060002001600090919091909150556001600360008a73ffffffffffffffffffffffffffffffffffffffff1673ffffffffffffffffffffffffffffffffffffffff168152602001908152602001600020600089815260200190815260200160002060006101000a81548160ff0219169083151502179055507f4ee2813f63f78b47d18ef0e76e4dbad390620af3347189808e9ea61b6fabcffa6120106135e3565b8388876040516120239493929190615273565b60405180910390a1819250505095945050505050565b6120416135e3565b73ffffffffffffffffffffffffffffffffffffffff1661205f611a32565b73ffffffffffffffffffffffffffffffffffffffff16146120b5576040517f08c379a00000000000000000000000000000000000000000000000000000000081526004016120ac90615550565b60405180910390fd5b600660008273ffffffffffffffffffffffffffffffffffffffff1673ffffffffffffffffffffffffffffffffffffffff16815260200190815260200160002060030160009054906101000a900460ff16612144576040517f08c379a000000000000000000000000000000000000000000000000000000000815260040161213b906155f0565b60405180910390fd5b600760008273ffffffffffffffffffffffffffffffffffffffff1673ffffffffffffffffffffffffffffffffffffffff16815260200190815260200160002060009054906101000a900460ff166121d0576040517f08c379a00000000000000000000000000000000000000000000000000000000081526004016121c790615570565b60405180910390fd5b6000600760008373ffffffffffffffffffffffffffffffffffffffff1673ffffffffffffffffffffffffffffffffffffffff16815260200190815260200160002060006101000a81548160ff02191690831515021790555050565b806122346135e3565b73ffffffffffffffffffffffffffffffffffffffff166002600083815260200190815260200160002060030160009054906101000a900473ffffffffffffffffffffffffffffffffffffffff1673ffffffffffffffffffffffffffffffffffffffff16146122d7576040517f08c379a00000000000000000000000000000000000000000000000000000000081526004016122ce90615310565b60405180910390fd5b81600360006002600084815260200190815260200160002060010160009054906101000a900473ffffffffffffffffffffffffffffffffffffffff1673ffffffffffffffffffffffffffffffffffffffff1673ffffffffffffffffffffffffffffffffffffffff16815260200190815260200160002060006002600084815260200190815260200160002060020154815260200190815260200160002060009054906101000a900460ff1680156123af575060026000828152602001908152602001600020600a0160009054906101000a900460ff16155b6123ee576040517f08c379a00000000000000000000000000000000000000000000000000000000081526004016123e590615430565b60405180910390fd5b600060026000858152602001908152602001600020905061245c8160010160009054906101000a900473ffffffffffffffffffffffffffffffffffffffff1682600201548360030160009054906101000a900473ffffffffffffffffffffffffffffffffffffffff16613706565b8060050160009054906101000a900460ff168015612481575060008160060180549050115b156124905761248f846138d3565b5b6000600360008360010160009054906101000a900473ffffffffffffffffffffffffffffffffffffffff1673ffffffffffffffffffffffffffffffffffffffff1673ffffffffffffffffffffffffffffffffffffffff16815260200190815260200160002060008360020154815260200190815260200160002060006101000a81548160ff02191690831515021790555061252a84613df1565b50505050565b81600360006002600084815260200190815260200160002060010160009054906101000a900473ffffffffffffffffffffffffffffffffffffffff1673ffffffffffffffffffffffffffffffffffffffff1673ffffffffffffffffffffffffffffffffffffffff16815260200190815260200160002060006002600084815260200190815260200160002060020154815260200190815260200160002060009054906101000a900460ff168015612608575060026000828152602001908152602001600020600a0160009054906101000a900460ff16155b612647576040517f08c379a000000000000000000000000000000000000000000000000000000000815260040161263e90615430565b60405180910390fd5b6002600084815260200190815260200160002060050160009054906101000a900460ff16156126ab576040517f08c379a00000000000000000000000000000000000000000000000000000000081526004016126a290615390565b60405180910390fd5b6002600084815260200190815260200160002060040154821015612704576040517f08c379a00000000000000000000000000000000000000000000000000000000081526004016126fb90615330565b60405180910390fd5b61270e8383614093565b61274d576040517f08c379a000000000000000000000000000000000000000000000000000000000815260040161274490615650565b60405180910390fd5b600060026000858152602001908152602001600020905060006006600083600a0160019054906101000a900473ffffffffffffffffffffffffffffffffffffffff1673ffffffffffffffffffffffffffffffffffffffff1673ffffffffffffffffffffffffffffffffffffffff16815260200190815260200160002090506000816001015411156127e5576127e28585613780565b93505b6128188260010160009054906101000a900473ffffffffffffffffffffffffffffffffffffffff16836002015433613706565b61286b8260030160009054906101000a900473ffffffffffffffffffffffffffffffffffffffff1683600a0160019054906101000a900473ffffffffffffffffffffffffffffffffffffffff16866135eb565b600182600a0160006101000a81548160ff0219169083151502179055506000600360008460010160009054906101000a900473ffffffffffffffffffffffffffffffffffffffff1673ffffffffffffffffffffffffffffffffffffffff1673ffffffffffffffffffffffffffffffffffffffff16815260200190815260200160002060008460020154815260200190815260200160002060006101000a81548160ff02191690831515021790555061292285613df1565b7f01dce038fda302c66fd7485cc5109ca8acaaf44c56e69609025ad06f0866ef8461294b6135e3565b8360030160009054906101000a900473ffffffffffffffffffffffffffffffffffffffff16878760405161298294939291906151c0565b60405180910390a15050505050565b6129996135e3565b73ffffffffffffffffffffffffffffffffffffffff166129b7611a32565b73ffffffffffffffffffffffffffffffffffffffff1614612a0d576040517f08c379a0000000000000000000000000000000000000000000000000000000008152600401612a0490615550565b60405180910390fd5b60018110158015612a20575061012c8111155b612a5f576040517f08c379a0000000000000000000000000000000000000000000000000000000008152600401612a56906153f0565b60405180910390fd5b600660008373ffffffffffffffffffffffffffffffffffffffff1673ffffffffffffffffffffffffffffffffffffffff16815260200190815260200160002060030160009054906101000a900460ff16612aee576040517f08c379a0000000000000000000000000000000000000000000000000000000008152600401612ae590615630565b60405180910390fd5b80600660008473ffffffffffffffffffffffffffffffffffffffff1673ffffffffffffffffffffffffffffffffffffffff168152602001908152602001600020600101819055505050565b81600360006002600084815260200190815260200160002060010160009054906101000a900473ffffffffffffffffffffffffffffffffffffffff1673ffffffffffffffffffffffffffffffffffffffff1673ffffffffffffffffffffffffffffffffffffffff16815260200190815260200160002060006002600084815260200190815260200160002060020154815260200190815260200160002060009054906101000a900460ff168015612c11575060026000828152602001908152602001600020600a0160009054906101000a900460ff16155b612c50576040517f08c379a0000000000000000000000000000000000000000000000000000000008152600401612c4790615430565b60405180910390fd5b6002600084815260200190815260200160002060050160009054906101000a900460ff16612cb3576040517f08c379a0000000000000000000000000000000000000000000000000000000008152600401612caa90615610565b60405180910390fd5b600a60009054906101000a900460ff1615612d8f576002600084815260200190815260200160002060040154821015612d21576040517f08c379a0000000000000000000000000000000000000000000000000000000008152600401612d1890615330565b60405180910390fd5b600260008481526020019081526020016000206007016001015482101580612d4f5750612d4e8383614294565b5b612d8e576040517f08c379a0000000000000000000000000000000000000000000000000000000008152600401612d8590615410565b60405180910390fd5b5b612d998383614093565b612dd8576040517f08c379a0000000000000000000000000000000000000000000000000000000008152600401612dcf90615650565b60405180910390fd5b600260008481526020019081526020016000206009016000612df86135e3565b73ffffffffffffffffffffffffffffffffffffffff1673ffffffffffffffffffffffffffffffffffffffff16815260200190815260200160002060000160149054906101000a900460ff1615612ec15781600260008581526020019081526020016000206009016000612e696135e3565b73ffffffffffffffffffffffffffffffffffffffff1673ffffffffffffffffffffffffffffffffffffffff1681526020019081526020016000206001016000828254612eb591906157e4565b9250508190555061300f565b6000600260008581526020019081526020016000206009016000612ee36135e3565b73ffffffffffffffffffffffffffffffffffffffff1673ffffffffffffffffffffffffffffffffffffffff1681526020019081526020016000209050612f276135e3565b8160000160006101000a81548173ffffffffffffffffffffffffffffffffffffffff021916908373ffffffffffffffffffffffffffffffffffffffff16021790555082816001018190555060018160000160146101000a81548160ff02191690831515021790555060026000858152602001908152602001600020600601612fad6135e3565b9080600181540180825580915050600190039060005260206000200160009091909190916101000a81548173ffffffffffffffffffffffffffffffffffffffff021916908373ffffffffffffffffffffffffffffffffffffffff160217905550505b60026000848152602001908152602001600020600701600101546002600085815260200190815260200160002060090160006130496135e3565b73ffffffffffffffffffffffffffffffffffffffff1673ffffffffffffffffffffffffffffffffffffffff16815260200190815260200160002060010154111561319f576002600084815260200190815260200160002060090160006130ad6135e3565b73ffffffffffffffffffffffffffffffffffffffff1673ffffffffffffffffffffffffffffffffffffffff168152602001908152602001600020600260008581526020019081526020016000206007016000820160009054906101000a900473ffffffffffffffffffffffffffffffffffffffff168160000160006101000a81548173ffffffffffffffffffffffffffffffffffffffff021916908373ffffffffffffffffffffffffffffffffffffffff1602179055506000820160149054906101000a900460ff168160000160146101000a81548160ff021916908315150217905550600182015481600101559050505b7fbe93400afd516c2c5e718c485cd300a979afdfbb790bb50560a4dbf71db7dd326131c86135e3565b84846040516131d99392919061523c565b60405180910390a1505050565b60076020528060005260406000206000915054906101000a900460ff1681565b61320e6135e3565b73ffffffffffffffffffffffffffffffffffffffff1661322c611a32565b73ffffffffffffffffffffffffffffffffffffffff1614613282576040517f08c379a000000000000000000000000000000000000000000000000000000000815260040161327990615550565b60405180910390fd5b600073ffffffffffffffffffffffffffffffffffffffff168273ffffffffffffffffffffffffffffffffffffffff1614156132f2576040517f08c379a00000000000000000000000000000000000000000000000000000000081526004016132e990615450565b60405180910390fd5b80600860008473ffffffffffffffffffffffffffffffffffffffff1673ffffffffffffffffffffffffffffffffffffffff16815260200190815260200160002060006101000a81548160ff0219169083151502179055505050565b60036020528160005260406000206020528060005260406000206000915091509054906101000a900460ff1681565b6133846135e3565b73ffffffffffffffffffffffffffffffffffffffff166133a2611a32565b73ffffffffffffffffffffffffffffffffffffffff16146133f8576040517f08c379a00000000000000000000000000000000000000000000000000000000081526004016133ef90615550565b60405180910390fd5b600073ffffffffffffffffffffffffffffffffffffffff168173ffffffffffffffffffffffffffffffffffffffff161415613468576040517f08c379a000000000000000000000000000000000000000000000000000000000815260040161345f90615530565b60405180910390fd5b80600460006101000a81548173ffffffffffffffffffffffffffffffffffffffff021916908373ffffffffffffffffffffffffffffffffffffffff16021790555050565b600581815481106134bc57600080fd5b906000526020600020016000915054906101000a900473ffffffffffffffffffffffffffffffffffffffff1681565b6134f36135e3565b73ffffffffffffffffffffffffffffffffffffffff16613511611a32565b73ffffffffffffffffffffffffffffffffffffffff1614613567576040517f08c379a000000000000000000000000000000000000000000000000000000000815260040161355e90615550565b60405180910390fd5b600073ffffffffffffffffffffffffffffffffffffffff168173ffffffffffffffffffffffffffffffffffffffff1614156135d7576040517f08c379a00000000000000000000000000000000000000000000000000000000081526004016135ce90615350565b60405180910390fd5b6135e081613f4f565b50565b600033905090565b600073ffffffffffffffffffffffffffffffffffffffff168273ffffffffffffffffffffffffffffffffffffffff16141561366c578273ffffffffffffffffffffffffffffffffffffffff166108fc829081150290604051600060405180830381858888f19350505050158015613666573d6000803e3d6000fd5b50613701565b60008290508073ffffffffffffffffffffffffffffffffffffffff1663a9059cbb85846040518363ffffffff1660e01b81526004016136ac92919061516e565b602060405180830381600087803b1580156136c657600080fd5b505af11580156136da573d6000803e3d6000fd5b505050506040513d601f19601f820116820180604052508101906136fe9190614686565b50505b505050565b60008390508073ffffffffffffffffffffffffffffffffffffffff166342842e0e3084866040518463ffffffff1660e01b815260040161374893929190615205565b600060405180830381600087803b15801561376257600080fd5b505af1158015613776573d6000803e3d6000fd5b5050505050505050565b60008060026000858152602001908152602001600020905060006006600083600a0160019054906101000a900473ffffffffffffffffffffffffffffffffffffffff1673ffffffffffffffffffffffffffffffffffffffff1673ffffffffffffffffffffffffffffffffffffffff16815260200190815260200160002090506000816001015411156138c75760006103e8826001015486613821919061586b565b61382b919061583a565b90508082600201600082825461384191906157e4565b92505081905550600460009054906101000a900473ffffffffffffffffffffffffffffffffffffffff1673ffffffffffffffffffffffffffffffffffffffff166108fc829081150290604051600060405180830381858888f193505050501580156138b0573d6000803e3d6000fd5b5080856138bd91906158c5565b93505050506138cd565b83925050505b92915050565b600060026000838152602001908152602001600020905060005b8160060180549050811015613dec5781600901600083600601838154811061393e577f4e487b7100000000000000000000000000000000000000000000000000000000600052603260045260246000fd5b9060005260206000200160009054906101000a900473ffffffffffffffffffffffffffffffffffffffff1673ffffffffffffffffffffffffffffffffffffffff1673ffffffffffffffffffffffffffffffffffffffff16815260200190815260200160002060000160149054906101000a900460ff168015613a6a575060008260090160008460060184815481106139ff577f4e487b7100000000000000000000000000000000000000000000000000000000600052603260045260246000fd5b9060005260206000200160009054906101000a900473ffffffffffffffffffffffffffffffffffffffff1673ffffffffffffffffffffffffffffffffffffffff1673ffffffffffffffffffffffffffffffffffffffff16815260200190815260200160002060010154115b8015613b6d5750600073ffffffffffffffffffffffffffffffffffffffff16826009016000846006018481548110613acb577f4e487b7100000000000000000000000000000000000000000000000000000000600052603260045260246000fd5b9060005260206000200160009054906101000a900473ffffffffffffffffffffffffffffffffffffffff1673ffffffffffffffffffffffffffffffffffffffff1673ffffffffffffffffffffffffffffffffffffffff16815260200190815260200160002060000160009054906101000a900473ffffffffffffffffffffffffffffffffffffffff1673ffffffffffffffffffffffffffffffffffffffff1614155b15613dd957613d15826009016000846006018481548110613bb7577f4e487b7100000000000000000000000000000000000000000000000000000000600052603260045260246000fd5b9060005260206000200160009054906101000a900473ffffffffffffffffffffffffffffffffffffffff1673ffffffffffffffffffffffffffffffffffffffff1673ffffffffffffffffffffffffffffffffffffffff16815260200190815260200160002060000160009054906101000a900473ffffffffffffffffffffffffffffffffffffffff1683600a0160019054906101000a900473ffffffffffffffffffffffffffffffffffffffff16846009016000866006018681548110613ca7577f4e487b7100000000000000000000000000000000000000000000000000000000600052603260045260246000fd5b9060005260206000200160009054906101000a900473ffffffffffffffffffffffffffffffffffffffff1673ffffffffffffffffffffffffffffffffffffffff1673ffffffffffffffffffffffffffffffffffffffff168152602001908152602001600020600101546135eb565b6000826009016000846006018481548110613d59577f4e487b7100000000000000000000000000000000000000000000000000000000600052603260045260246000fd5b9060005260206000200160009054906101000a900473ffffffffffffffffffffffffffffffffffffffff1673ffffffffffffffffffffffffffffffffffffffff1673ffffffffffffffffffffffffffffffffffffffff16815260200190815260200160002060000160146101000a81548160ff0219169083151502179055505b8080613de4906159c4565b9150506138ed565b505050565b60005b600180549050811015613f4b578160018281548110613e3c577f4e487b7100000000000000000000000000000000000000000000000000000000600052603260045260246000fd5b90600052602060002001541415613f38576001808080549050613e5f91906158c5565b81548110613e96577f4e487b7100000000000000000000000000000000000000000000000000000000600052603260045260246000fd5b906000526020600020015460018281548110613edb577f4e487b7100000000000000000000000000000000000000000000000000000000600052603260045260246000fd5b90600052602060002001819055506001805480613f21577f4e487b7100000000000000000000000000000000000000000000000000000000600052603160045260246000fd5b600190038181906000526020600020016000905590555b8080613f43906159c4565b915050613df4565b5050565b60008060009054906101000a900473ffffffffffffffffffffffffffffffffffffffff169050816000806101000a81548173ffffffffffffffffffffffffffffffffffffffff021916908373ffffffffffffffffffffffffffffffffffffffff1602179055508173ffffffffffffffffffffffffffffffffffffffff168173ffffffffffffffffffffffffffffffffffffffff167f8be0079c531659141344cd1fd0a4f28419497f9722a3daafe3b4186f6b6457e060405160405180910390a35050565b60008290508073ffffffffffffffffffffffffffffffffffffffff166342842e0e61403c6135e3565b30856040518463ffffffff1660e01b815260040161405c93929190615205565b600060405180830381600087803b15801561407657600080fd5b505af115801561408a573d6000803e3d6000fd5b50505050505050565b600080600260008581526020019081526020016000209050600073ffffffffffffffffffffffffffffffffffffffff1681600a0160019054906101000a900473ffffffffffffffffffffffffffffffffffffffff1673ffffffffffffffffffffffffffffffffffffffff161415614123578060040154341061411957600191505061428e565b600091505061428e565b600081600a0160019054906101000a900473ffffffffffffffffffffffffffffffffffffffff169050838173ffffffffffffffffffffffffffffffffffffffff1663dd62ed3e6141716135e3565b306040518363ffffffff1660e01b815260040161418f929190615197565b60206040518083038186803b1580156141a757600080fd5b505afa1580156141bb573d6000803e3d6000fd5b505050506040513d601f19601f820116820180604052508101906141df9190614714565b10614287578073ffffffffffffffffffffffffffffffffffffffff166323b872dd6142086135e3565b6000876040518463ffffffff1660e01b815260040161422993929190615205565b602060405180830381600087803b15801561424357600080fd5b505af1158015614257573d6000803e3d6000fd5b505050506040513d601f19601f8201168201806040525081019061427b9190614686565b5060019250505061428e565b6000925050505b92915050565b60006002600084815260200190815260200160002060090160006142b66135e3565b73ffffffffffffffffffffffffffffffffffffffff1673ffffffffffffffffffffffffffffffffffffffff16815260200190815260200160002060000160149054906101000a900460ff16801561438d57506002600084815260200190815260200160002060070160010154826002600086815260200190815260200160002060090160006143436135e3565b73ffffffffffffffffffffffffffffffffffffffff1673ffffffffffffffffffffffffffffffffffffffff1681526020019081526020016000206001015461438b91906157e4565b115b1561439b57600190506143a0565b600090505b92915050565b60006143b96143b48461576a565b615739565b9050828152602081018484840111156143d157600080fd5b6143dc8482856159b5565b509392505050565b6000813590506143f381615a9a565b92915050565b60008151905061440881615a9a565b92915050565b60008135905061441d81615ab1565b92915050565b60008135905061443281615ac8565b92915050565b60008151905061444781615ac8565b92915050565b600082601f83011261445e57600080fd5b813561446e8482602086016143a6565b91505092915050565b60008135905061448681615adf565b92915050565b60008151905061449b81615adf565b92915050565b6000602082840312156144b357600080fd5b60006144c1848285016143e4565b91505092915050565b6000602082840312156144dc57600080fd5b60006144ea848285016143f9565b91505092915050565b60006020828403121561450557600080fd5b60006145138482850161440e565b91505092915050565b6000806000806080858703121561453257600080fd5b6000614540878288016143e4565b9450506020614551878288016143e4565b935050604061456287828801614477565b925050606085013567ffffffffffffffff81111561457f57600080fd5b61458b8782880161444d565b91505092959194509250565b600080604083850312156145aa57600080fd5b60006145b8858286016143e4565b92505060206145c985828601614423565b9150509250929050565b600080604083850312156145e657600080fd5b60006145f4858286016143e4565b925050602061460585828601614477565b9150509250929050565b600080600080600060a0868803121561462757600080fd5b6000614635888289016143e4565b955050602061464688828901614477565b945050604061465788828901614477565b9350506060614668888289016143e4565b925050608061467988828901614423565b9150509295509295909350565b60006020828403121561469857600080fd5b60006146a684828501614438565b91505092915050565b600080604083850312156146c257600080fd5b60006146d085828601614423565b92505060206146e185828601614423565b9150509250929050565b6000602082840312156146fd57600080fd5b600061470b84828501614477565b91505092915050565b60006020828403121561472657600080fd5b60006147348482850161448c565b91505092915050565b6000806040838503121561475057600080fd5b600061475e85828601614477565b925050602061476f85828601614477565b9150509250929050565b600061478583836150f0565b60208301905092915050565b61479a8161597f565b82525050565b6147a98161590b565b82525050565b6147b88161590b565b82525050565b6147c7816158f9565b82525050565b60006147d8826157aa565b6147e281856157c2565b93506147ed8361579a565b8060005b8381101561481e5781516148058882614779565b9750614810836157b5565b9250506001810190506147f1565b5085935050505092915050565b6148348161591d565b82525050565b6148438161591d565b82525050565b61485281615929565b82525050565b60006148656027836157d3565b91507f4f6e6c792053616c6573204f776e65722063616e2063616c6c2074686973206660008301527f756e6374696f6e000000000000000000000000000000000000000000000000006020830152604082019050919050565b60006148cb6019836157d3565b91507f616d6f756e742062656c6f772061736b696e67207072696365000000000000006000830152602082019050919050565b600061490b6026836157d3565b91507f4f776e61626c653a206e6577206f776e657220697320746865207a65726f206160008301527f64647265737300000000000000000000000000000000000000000000000000006020830152604082019050919050565b60006149716025836157d3565b91507f596f752048617665204e6f2041637469766520426964206f6e7420746869732060008301527f73616c65730000000000000000000000000000000000000000000000000000006020830152604082019050919050565b60006149d7603b836157d3565b91507f61756374696f6e61626c652073616c657320646f6e7420616c6c6f77206f757460008301527f72696768742070757263686173652c20706c61636520612062696400000000006020830152604082019050919050565b6000614a3d601c836157d3565b91507f7061796d656e74206d6574686f6420616c7265616479206164646564000000006000830152602082019050919050565b6000614a7d6019836157d3565b91507f5061796d656e74204d6574686f64204e6f7420416374697665000000000000006000830152602082019050919050565b6000614abd600c836157d3565b91507f6f7574206f662072616e676500000000000000000000000000000000000000006000830152602082019050919050565b6000614afd601c836157d3565b91507f416d6f756e74206c657373207468616e2077696e6e696e6720426964000000006000830152602082019050919050565b6000614b3d6010836157d3565b91507f4974656d206e6f7420696e2073616c65000000000000000000000000000000006000830152602082019050919050565b6000614b7d6022836157d3565b91507f204e4654206e6f7420737570706f72746564206174207a65726f20616464726560008301527f73730000000000000000000000000000000000000000000000000000000000006020830152604082019050919050565b6000614be3601d836157d3565b91507f7061796d656e74206d6574686f6420616c7265616479206163746976650000006000830152602082019050919050565b6000614c236018836157d3565b91507f7061796d656e74206d6574686f64206e6f7420616464656400000000000000006000830152602082019050919050565b6000614c63601b836157d3565b91507f426964205769746864726177616c204e6f7420416363657074656400000000006000830152602082019050919050565b6000614ca3601b836157d3565b91507f63616e7420776974686472617720612077696e6e696e672062696400000000006000830152602082019050919050565b6000614ce36036836157d3565b91507f4e6f206163746976652062696420666f72206974656d2c63616e63656c20736160008301527f6c6573206f72207761697420666f7220627579657220000000000000000000006020830152604082019050919050565b6000614d496015836157d3565b91507f6974656d20616c7265616479206f6e2073616c657300000000000000000000006000830152602082019050919050565b6000614d896029836157d3565b91507f63616e74206d616b6520616464726573732030206665652072656d6974616e6360008301527f65206164647265737300000000000000000000000000000000000000000000006020830152604082019050919050565b6000614def6020836157d3565b91507f4f776e61626c653a2063616c6c6572206973206e6f7420746865206f776e65726000830152602082019050919050565b6000614e2f601f836157d3565b91507f7061796d656e74206d6574686f6420616c726561647920696e616374697665006000830152602082019050919050565b6000614e6f6010836157d3565b91507f4e4654206e6f74204163636570746564000000000000000000000000000000006000830152602082019050919050565b6000614eaf600f836157d3565b91507f6e6f7420546f6b656e204f776e657200000000000000000000000000000000006000830152602082019050919050565b6000614eef6037836157d3565b91507f6e6f7420616e2061756374696f6e61626c652073616c652c2063616e63656c2060008301527f73616c6573206f72207761697420666f722062757965720000000000000000006020830152604082019050919050565b6000614f556019836157d3565b91507f7061796d656e74206d6574686f64206e6f7420206164646564000000000000006000830152602082019050919050565b6000614f95602d836157d3565b91507f6e6f7420616e2061756374696f6e61626c652073616c652c207075726368617360008301527f7365206f757472696768746c79000000000000000000000000000000000000006020830152604082019050919050565b6000614ffb6015836157d3565b91507f696e76616c6964207061796d656e744d6574686f6400000000000000000000006000830152602082019050919050565b600061503b6013836157d3565b91507f696e737566696369656e742062616c616e6365000000000000000000000000006000830152602082019050919050565b600061507b6015836157d3565b91507f417070726f76616c206e6f74206772616e7465642e00000000000000000000006000830152602082019050919050565b6060820160008201516150c460008501826147a0565b5060208201516150d7602085018261482b565b5060408201516150ea60408501826150f0565b50505050565b6150f981615975565b82525050565b61510881615975565b82525050565b600060208201905061512360008301846147be565b92915050565b600060808201905061513e6000830187614791565b61514b6020830186614791565b61515860408301856150ff565b61516560608301846150ff565b95945050505050565b60006040820190506151836000830185614791565b61519060208301846150ff565b9392505050565b60006040820190506151ac60008301856147be565b6151b960208301846147be565b9392505050565b60006080820190506151d560008301876147be565b6151e26020830186614791565b6151ef60408301856150ff565b6151fc60608301846150ff565b95945050505050565b600060608201905061521a60008301866147be565b61522760208301856147be565b61523460408301846150ff565b949350505050565b600060608201905061525160008301866147be565b61525e60208301856150ff565b61526b60408301846150ff565b949350505050565b600060808201905061528860008301876147be565b61529560208301866150ff565b6152a260408301856150ff565b6152af606083018461483a565b95945050505050565b600060208201905081810360008301526152d281846147cd565b905092915050565b60006020820190506152ef600083018461483a565b92915050565b600060208201905061530a6000830184614849565b92915050565b6000602082019050818103600083015261532981614858565b9050919050565b60006020820190508181036000830152615349816148be565b9050919050565b60006020820190508181036000830152615369816148fe565b9050919050565b6000602082019050818103600083015261538981614964565b9050919050565b600060208201905081810360008301526153a9816149ca565b9050919050565b600060208201905081810360008301526153c981614a30565b9050919050565b600060208201905081810360008301526153e981614a70565b9050919050565b6000602082019050818103600083015261540981614ab0565b9050919050565b6000602082019050818103600083015261542981614af0565b9050919050565b6000602082019050818103600083015261544981614b30565b9050919050565b6000602082019050818103600083015261546981614b70565b9050919050565b6000602082019050818103600083015261548981614bd6565b9050919050565b600060208201905081810360008301526154a981614c16565b9050919050565b600060208201905081810360008301526154c981614c56565b9050919050565b600060208201905081810360008301526154e981614c96565b9050919050565b6000602082019050818103600083015261550981614cd6565b9050919050565b6000602082019050818103600083015261552981614d3c565b9050919050565b6000602082019050818103600083015261554981614d7c565b9050919050565b6000602082019050818103600083015261556981614de2565b9050919050565b6000602082019050818103600083015261558981614e22565b9050919050565b600060208201905081810360008301526155a981614e62565b9050919050565b600060208201905081810360008301526155c981614ea2565b9050919050565b600060208201905081810360008301526155e981614ee2565b9050919050565b6000602082019050818103600083015261560981614f48565b9050919050565b6000602082019050818103600083015261562981614f88565b9050919050565b6000602082019050818103600083015261564981614fee565b9050919050565b600060208201905081810360008301526156698161502e565b9050919050565b600060208201905081810360008301526156898161506e565b9050919050565b60006020820190506156a560008301846150ff565b92915050565b6000610160820190506156c1600083018c6150ff565b6156ce602083018b6147be565b6156db604083018a6150ff565b6156e860608301896147af565b6156f560808301886150ff565b61570260a083018761483a565b61570f60c08301866150ae565b61571d61012083018561483a565b61572b6101408301846147be565b9a9950505050505050505050565b6000604051905081810181811067ffffffffffffffff821117156157605761575f615a6b565b5b8060405250919050565b600067ffffffffffffffff82111561578557615784615a6b565b5b601f19601f8301169050602081019050919050565b6000819050602082019050919050565b600081519050919050565b6000602082019050919050565b600082825260208201905092915050565b600082825260208201905092915050565b60006157ef82615975565b91506157fa83615975565b9250827fffffffffffffffffffffffffffffffffffffffffffffffffffffffffffffffff0382111561582f5761582e615a0d565b5b828201905092915050565b600061584582615975565b915061585083615975565b9250826158605761585f615a3c565b5b828204905092915050565b600061587682615975565b915061588183615975565b9250817fffffffffffffffffffffffffffffffffffffffffffffffffffffffffffffffff04831182151516156158ba576158b9615a0d565b5b828202905092915050565b60006158d082615975565b91506158db83615975565b9250828210156158ee576158ed615a0d565b5b828203905092915050565b600061590482615955565b9050919050565b600061591682615955565b9050919050565b60008115159050919050565b60007fffffffff0000000000000000000000000000000000000000000000000000000082169050919050565b600073ffffffffffffffffffffffffffffffffffffffff82169050919050565b6000819050919050565b600061598a82615991565b9050919050565b600061599c826159a3565b9050919050565b60006159ae82615955565b9050919050565b82818337600083830152505050565b60006159cf82615975565b91507fffffffffffffffffffffffffffffffffffffffffffffffffffffffffffffffff821415615a0257615a01615a0d565b5b600182019050919050565b7f4e487b7100000000000000000000000000000000000000000000000000000000600052601160045260246000fd5b7f4e487b7100000000000000000000000000000000000000000000000000000000600052601260045260246000fd5b7f4e487b7100000000000000000000000000000000000000000000000000000000600052604160045260246000fd5b615aa3816158f9565b8114615aae57600080fd5b50565b615aba8161590b565b8114615ac557600080fd5b50565b615ad18161591d565b8114615adc57600080fd5b50565b615ae881615975565b8114615af357600080fd5b5056fea264697066735822122075bd416b447aa1fb1f29a6fb436e2485f778a9cd22653787f229705e336c4e8e64736f6c63430008000033",
  "immutableReferences": {},
  "source": "pragma solidity ^0.8.0;\r\n\r\n/**\r\n * @title ERC721 token receiver interface\r\n * @dev Interface for any contract that wants to support safeTransfers\r\n * from ERC721 asset contracts.\r\n */\r\ninterface IERC721Receiver {\r\n    /**\r\n     * @dev Whenever an {IERC721} `tokenId` token is transferred to this contract via {IERC721-safeTransferFrom}\r\n     * by `operator` from `from`, this function is called.\r\n     *\r\n     * It must return its Solidity selector to confirm the token transfer.\r\n     * If any other value is returned or the interface is not implemented by the recipient, the transfer will be reverted.\r\n     *\r\n     * The selector can be obtained in Solidity with `IERC721.onERC721Received.selector`.\r\n     */\r\n    function onERC721Received(\r\n        address operator,\r\n        address from,\r\n        uint256 tokenId,\r\n        bytes calldata data\r\n    ) external returns (bytes4);\r\n}\r\n\r\npragma solidity ^0.8.0;\r\n\r\n/**\r\n * @dev Interface of the ERC165 standard, as defined in the\r\n * https://eips.ethereum.org/EIPS/eip-165[EIP].\r\n *\r\n * Implementers can declare support of contract interfaces, which can then be\r\n * queried by others ({ERC165Checker}).\r\n *\r\n * For an implementation, see {ERC165}.\r\n */\r\ninterface IERC165 {\r\n    /**\r\n     * @dev Returns true if this contract implements the interface defined by\r\n     * `interfaceId`. See the corresponding\r\n     * https://eips.ethereum.org/EIPS/eip-165#how-interfaces-are-identified[EIP section]\r\n     * to learn more about how these ids are created.\r\n     *\r\n     * This function call must use less than 30 000 gas.\r\n     */\r\n    function supportsInterface(bytes4 interfaceId) external view returns (bool);\r\n}\r\npragma solidity ^0.8.0;\r\n\r\n\r\n\r\n/**\r\n * @dev Implementation of the {IERC165} interface.\r\n *\r\n * Contracts that want to implement ERC165 should inherit from this contract and override {supportsInterface} to check\r\n * for the additional interface id that will be supported. For example:\r\n *\r\n * ```solidity\r\n * function supportsInterface(bytes4 interfaceId) public view virtual override returns (bool) {\r\n *     return interfaceId == type(MyInterface).interfaceId || super.supportsInterface(interfaceId);\r\n * }\r\n * ```\r\n *\r\n * Alternatively, {ERC165Storage} provides an easier to use but more expensive implementation.\r\n */\r\nabstract contract ERC165 is IERC165 {\r\n    /**\r\n     * @dev See {IERC165-supportsInterface}.\r\n     */\r\n    function supportsInterface(bytes4 interfaceId) public view virtual override returns (bool) {\r\n        return interfaceId == type(IERC165).interfaceId;\r\n    }\r\n}\r\npragma solidity ^0.8.0;\r\n\r\n\r\n\r\n/**\r\n * @dev Required interface of an ERC721 compliant contract.\r\n */\r\ninterface IERC721 is IERC165 {\r\n    /**\r\n     * @dev Emitted when `tokenId` token is transferred from `from` to `to`.\r\n     */\r\n    event Transfer(address indexed from, address indexed to, uint256 indexed tokenId);\r\n\r\n    /**\r\n     * @dev Emitted when `owner` enables `approved` to manage the `tokenId` token.\r\n     */\r\n    event Approval(address indexed owner, address indexed approved, uint256 indexed tokenId);\r\n\r\n    /**\r\n     * @dev Emitted when `owner` enables or disables (`approved`) `operator` to manage all of its assets.\r\n     */\r\n    event ApprovalForAll(address indexed owner, address indexed operator, bool approved);\r\n\r\n    /**\r\n     * @dev Returns the number of tokens in ``owner``'s account.\r\n     */\r\n    function balanceOf(address owner) external view returns (uint256 balance);\r\n\r\n    /**\r\n     * @dev Returns the owner of the `tokenId` token.\r\n     *\r\n     * Requirements:\r\n     *\r\n     * - `tokenId` must exist.\r\n     */\r\n    function ownerOf(uint256 tokenId) external view returns (address owner);\r\n\r\n    /**\r\n     * @dev Safely transfers `tokenId` token from `from` to `to`, checking first that contract recipients\r\n     * are aware of the ERC721 protocol to prevent tokens from being forever locked.\r\n     *\r\n     * Requirements:\r\n     *\r\n     * - `from` cannot be the zero address.\r\n     * - `to` cannot be the zero address.\r\n     * - `tokenId` token must exist and be owned by `from`.\r\n     * - If the caller is not `from`, it must be have been allowed to move this token by either {approve} or {setApprovalForAll}.\r\n     * - If `to` refers to a smart contract, it must implement {IERC721Receiver-onERC721Received}, which is called upon a safe transfer.\r\n     *\r\n     * Emits a {Transfer} event.\r\n     */\r\n    function safeTransferFrom(\r\n        address from,\r\n        address to,\r\n        uint256 tokenId\r\n    ) external;\r\n\r\n    /**\r\n     * @dev Transfers `tokenId` token from `from` to `to`.\r\n     *\r\n     * WARNING: Usage of this method is discouraged, use {safeTransferFrom} whenever possible.\r\n     *\r\n     * Requirements:\r\n     *\r\n     * - `from` cannot be the zero address.\r\n     * - `to` cannot be the zero address.\r\n     * - `tokenId` token must be owned by `from`.\r\n     * - If the caller is not `from`, it must be approved to move this token by either {approve} or {setApprovalForAll}.\r\n     *\r\n     * Emits a {Transfer} event.\r\n     */\r\n    function transferFrom(\r\n        address from,\r\n        address to,\r\n        uint256 tokenId\r\n    ) external;\r\n\r\n    /**\r\n     * @dev Gives permission to `to` to transfer `tokenId` token to another account.\r\n     * The approval is cleared when the token is transferred.\r\n     *\r\n     * Only a single account can be approved at a time, so approving the zero address clears previous approvals.\r\n     *\r\n     * Requirements:\r\n     *\r\n     * - The caller must own the token or be an approved operator.\r\n     * - `tokenId` must exist.\r\n     *\r\n     * Emits an {Approval} event.\r\n     */\r\n    function approve(address to, uint256 tokenId) external;\r\n\r\n    /**\r\n     * @dev Returns the account approved for `tokenId` token.\r\n     *\r\n     * Requirements:\r\n     *\r\n     * - `tokenId` must exist.\r\n     */\r\n    function getApproved(uint256 tokenId) external view returns (address operator);\r\n\r\n    /**\r\n     * @dev Approve or remove `operator` as an operator for the caller.\r\n     * Operators can call {transferFrom} or {safeTransferFrom} for any token owned by the caller.\r\n     *\r\n     * Requirements:\r\n     *\r\n     * - The `operator` cannot be the caller.\r\n     *\r\n     * Emits an {ApprovalForAll} event.\r\n     */\r\n    function setApprovalForAll(address operator, bool _approved) external;\r\n\r\n    /**\r\n     * @dev Returns if the `operator` is allowed to manage all of the assets of `owner`.\r\n     *\r\n     * See {setApprovalForAll}\r\n     */\r\n    function isApprovedForAll(address owner, address operator) external view returns (bool);\r\n\r\n    /**\r\n     * @dev Safely transfers `tokenId` token from `from` to `to`.\r\n     *\r\n     * Requirements:\r\n     *\r\n     * - `from` cannot be the zero address.\r\n     * - `to` cannot be the zero address.\r\n     * - `tokenId` token must exist and be owned by `from`.\r\n     * - If the caller is not `from`, it must be approved to move this token by either {approve} or {setApprovalForAll}.\r\n     * - If `to` refers to a smart contract, it must implement {IERC721Receiver-onERC721Received}, which is called upon a safe transfer.\r\n     *\r\n     * Emits a {Transfer} event.\r\n     */\r\n    function safeTransferFrom(\r\n        address from,\r\n        address to,\r\n        uint256 tokenId,\r\n        bytes calldata data\r\n    ) external;\r\n}\r\npragma solidity ^0.8.0;\r\n\r\n/*\r\n * @dev Provides information about the current execution context, including the\r\n * sender of the transaction and its data. While these are generally available\r\n * via msg.sender and msg.data, they should not be accessed in such a direct\r\n * manner, since when dealing with meta-transactions the account sending and\r\n * paying for execution may not be the actual sender (as far as an application\r\n * is concerned).\r\n *\r\n * This contract is only required for intermediate, library-like contracts.\r\n */\r\nabstract contract Context {\r\n    function _msgSender() internal view virtual returns (address) {\r\n        return msg.sender;\r\n    }\r\n\r\n    function _msgData() internal view virtual returns (bytes calldata) {\r\n        return msg.data;\r\n    }\r\n}\r\npragma solidity ^0.8.0;\r\n\r\n\r\n/**\r\n * @dev Contract module which provides a basic access control mechanism, where\r\n * there is an account (an owner) that can be granted exclusive access to\r\n * specific functions.\r\n *\r\n * By default, the owner account will be the one that deploys the contract. This\r\n * can later be changed with {transferOwnership}.\r\n *\r\n * This module is used through inheritance. It will make available the modifier\r\n * `onlyOwner`, which can be applied to your functions to restrict their use to\r\n * the owner.\r\n */\r\nabstract contract Ownable is Context {\r\n    address private _owner;\r\n\r\n    event OwnershipTransferred(address indexed previousOwner, address indexed newOwner);\r\n\r\n    /**\r\n     * @dev Initializes the contract setting the deployer as the initial owner.\r\n     */\r\n    constructor() {\r\n        _setOwner(_msgSender());\r\n    }\r\n\r\n    /**\r\n     * @dev Returns the address of the current owner.\r\n     */\r\n    function owner() public view virtual returns (address) {\r\n        return _owner;\r\n    }\r\n\r\n    /**\r\n     * @dev Throws if called by any account other than the owner.\r\n     */\r\n    modifier onlyOwner() {\r\n        require(owner() == _msgSender(), \"Ownable: caller is not the owner\");\r\n        _;\r\n    }\r\n\r\n    /**\r\n     * @dev Leaves the contract without owner. It will not be possible to call\r\n     * `onlyOwner` functions anymore. Can only be called by the current owner.\r\n     *\r\n     * NOTE: Renouncing ownership will leave the contract without an owner,\r\n     * thereby removing any functionality that is only available to the owner.\r\n     */\r\n    function renounceOwnership() public virtual onlyOwner {\r\n        _setOwner(address(0));\r\n    }\r\n\r\n    /**\r\n     * @dev Transfers ownership of the contract to a new account (`newOwner`).\r\n     * Can only be called by the current owner.\r\n     */\r\n    function transferOwnership(address newOwner) public virtual onlyOwner {\r\n        require(newOwner != address(0), \"Ownable: new owner is the zero address\");\r\n        _setOwner(newOwner);\r\n    }\r\n\r\n    function _setOwner(address newOwner) private {\r\n        address oldOwner = _owner;\r\n        _owner = newOwner;\r\n        emit OwnershipTransferred(oldOwner, newOwner);\r\n    }\r\n}\r\npragma solidity ^0.8.0;\r\n\r\n/**\r\n * @dev Interface of the ERC20 standard as defined in the EIP.\r\n */\r\ninterface feeReciever {\r\n    \r\n    \r\n}\r\npragma solidity ^0.8.0;\r\n\r\n/**\r\n * @dev Interface of the ERC20 standard as defined in the EIP.\r\n */\r\ninterface IERC20 {\r\n    /**\r\n     * @dev Returns the amount of tokens in existence.\r\n     */\r\n    function totalSupply() external view returns (uint256);\r\n\r\n    /**\r\n     * @dev Returns the amount of tokens owned by `account`.\r\n     */\r\n    function balanceOf(address account) external view returns (uint256);\r\n\r\n    /**\r\n     * @dev Moves `amount` tokens from the caller's account to `recipient`.\r\n     *\r\n     * Returns a boolean value indicating whether the operation succeeded.\r\n     *\r\n     * Emits a {Transfer} event.\r\n     */\r\n    function transfer(address recipient, uint256 amount) external returns (bool);\r\n\r\n    /**\r\n     * @dev Returns the remaining number of tokens that `spender` will be\r\n     * allowed to spend on behalf of `owner` through {transferFrom}. This is\r\n     * zero by default.\r\n     *\r\n     * This value changes when {approve} or {transferFrom} are called.\r\n     */\r\n    function allowance(address owner, address spender) external view returns (uint256);\r\n\r\n    /**\r\n     * @dev Sets `amount` as the allowance of `spender` over the caller's tokens.\r\n     *\r\n     * Returns a boolean value indicating whether the operation succeeded.\r\n     *\r\n     * IMPORTANT: Beware that changing an allowance with this method brings the risk\r\n     * that someone may use both the old and the new allowance by unfortunate\r\n     * transaction ordering. One possible solution to mitigate this race\r\n     * condition is to first reduce the spender's allowance to 0 and set the\r\n     * desired value afterwards:\r\n     * https://github.com/ethereum/EIPs/issues/20#issuecomment-263524729\r\n     *\r\n     * Emits an {Approval} event.\r\n     */\r\n    function approve(address spender, uint256 amount) external returns (bool);\r\n\r\n    /**\r\n     * @dev Moves `amount` tokens from `sender` to `recipient` using the\r\n     * allowance mechanism. `amount` is then deducted from the caller's\r\n     * allowance.\r\n     *\r\n     * Returns a boolean value indicating whether the operation succeeded.\r\n     *\r\n     * Emits a {Transfer} event.\r\n     */\r\n    function transferFrom(\r\n        address sender,\r\n        address recipient,\r\n        uint256 amount\r\n    ) external returns (bool);\r\n\r\n    /**\r\n     * @dev Emitted when `value` tokens are moved from one account (`from`) to\r\n     * another (`to`).\r\n     *\r\n     * Note that `value` may be zero.\r\n     */\r\n    event Transfer(address indexed from, address indexed to, uint256 value);\r\n\r\n    /**\r\n     * @dev Emitted when the allowance of a `spender` for an `owner` is set by\r\n     * a call to {approve}. `value` is the new allowance.\r\n     */\r\n    event Approval(address indexed owner, address indexed spender, uint256 value);\r\n}\r\n\r\n// SPDX-License-Identifier: MIT\r\npragma solidity ^0.8.0;\r\n\r\n contract avaxTreezNftMarket is IERC721Receiver , Ownable {\r\n    struct bid{\r\n        address payable bidder;\r\n        bool isActive;\r\n        uint256 amount;\r\n    }\r\n    struct ItemForSale{\r\n        uint256 id;\r\n        address tokenAddress;\r\n        uint256 tokenID;\r\n        address payable owner;\r\n        uint256 askingPrice;\r\n        bool auctionable;\r\n        address[] bidders;\r\n        bid winningBid;\r\n        mapping(address => bid) bids;\r\n        bool isSold;\r\n        address acceptedPaymentMethod;\r\n    }\r\n    uint256[] public itemsForSaleList;\r\n    \r\n    mapping(uint256 => ItemForSale) public itemsForSale;\r\n    mapping( address => mapping(uint256 => bool)) public isActiveOnSale;\r\n    // percentage of sales\r\n  \r\n   // Set this address after deploy for getting fees for trades!!!!!!\r\n    address payable private feeRemitanceAddress;\r\n    \r\n    \r\n    struct paymentMethod {\r\n        address tokenAddress;\r\n        uint256 fees;\r\n        uint256 feeBalance;\r\n        bool isSet;\r\n    }\r\n    address[] public  acceptedPayments;\r\n    mapping(address =>  paymentMethod) private paymentMethods;\r\n    mapping(address =>  bool) public isActivepaymentMethod;\r\n    mapping(address => bool) public acceptedTokens;\r\n    mapping (address => bool) public isExcludedFromFees;\r\n   \r\n    //settings \r\n    bool private activeMinimums;\r\n    bool private canWithdrawBid;\r\n   \r\n    //events \r\n    event itemAddedToSales(address seller ,uint256 saleID , uint256 askingPrice , bool auctionable );\r\n    event bidAddedToSale(address bidder , uint256 saleID , uint256 bidAmount);\r\n    event itemSold(address buyer , address seller , uint256 saleID , uint256 amount);\r\n    \r\n    modifier onlySalesOwner(uint256 saleID) {\r\n        require(itemsForSale[saleID].owner == _msgSender() , \"Only Sales Owner can call this function\");\r\n        _;\r\n    }\r\n \r\n  \r\n    modifier activSales (uint256 saleID){\r\n         require(isActiveOnSale[itemsForSale[saleID].tokenAddress][itemsForSale[saleID].tokenID]  && !itemsForSale[saleID].isSold  , \"Item not in sale\");\r\n         _;  \r\n    }\r\n     function onERC721Received(address, address, uint256, bytes memory) public virtual override returns (bytes4) {\r\n        return this.onERC721Received.selector;\r\n    }\r\n    \r\n    function itemsForSaleIds() public view returns(uint256[] memory){\r\n        return itemsForSaleList;\r\n    }\r\n    function addItemToSale(\r\n        address _tokenAddress ,\r\n        uint256 _tokenID ,  \r\n        uint256 _askingPrice , \r\n        address _acceptedPayment ,\r\n        bool _auctionable) public  returns (uint256) {\r\n         require(acceptedTokens[_tokenAddress] , \"NFT not Accepted\");\r\n         require(IERC721(_tokenAddress).ownerOf(_tokenID) == _msgSender() , \"not Token Owner\");\r\n          require(IERC721(_tokenAddress).getApproved(_tokenID) == address(this) , \"Approval not granted.\");\r\n         require(!isActiveOnSale[_tokenAddress][_tokenID] , \"item already on sales\"); \r\n         require(isActivepaymentMethod[_acceptedPayment] , \"Payment Method Not Active\");\r\n         acceptNewNFT(_tokenAddress , _tokenID); \r\n        \r\n        uint256 salesID = itemsForSaleList.length;\r\n        ItemForSale storage newItemForSale = itemsForSale[salesID];\r\n        newItemForSale.id = salesID;\r\n        newItemForSale.tokenAddress  = _tokenAddress;\r\n        newItemForSale.tokenID = _tokenID;\r\n        newItemForSale.owner = payable(_msgSender());\r\n        newItemForSale.askingPrice  = _askingPrice;\r\n        newItemForSale.auctionable = _auctionable;\r\n        newItemForSale.isSold = false;\r\n        newItemForSale.acceptedPaymentMethod  = _acceptedPayment;\r\n        itemsForSaleList.push(salesID);\r\n        isActiveOnSale[_tokenAddress][_tokenID] = true;\r\n        emit itemAddedToSales(_msgSender() , salesID ,  _askingPrice ,  _auctionable );\r\n        return salesID;\r\n    }\r\n   \r\n    function buyItem(uint256 saleID , uint256 amount ) public payable activSales(saleID) {\r\n        require(!itemsForSale[saleID].auctionable , \"auctionable sales dont allow outright purchase, place a bid\");\r\n        require(amount >= itemsForSale[saleID].askingPrice , \"amount below asking price\");\r\n        require(processedPayment(saleID , amount) , \"insuficient balance\");\r\n         ItemForSale storage currentSaleItem =  itemsForSale[saleID];\r\n         paymentMethod storage currentPaymentMethod = paymentMethods[currentSaleItem.acceptedPaymentMethod];\r\n         if(currentPaymentMethod.fees > 0){\r\n        amount = deductFees(saleID , amount);  \r\n         }\r\n         //send BFT to buyer\r\n         sendNTF( currentSaleItem.tokenAddress , currentSaleItem.tokenID , msg.sender);\r\n         //pay owner\r\n         payoutUser(currentSaleItem.owner , currentSaleItem.acceptedPaymentMethod , amount);\r\n         currentSaleItem.isSold = true;\r\n         isActiveOnSale[currentSaleItem.tokenAddress][currentSaleItem.tokenID] = false;\r\n         removeSaleId( saleID) ;\r\n         emit itemSold( _msgSender() , currentSaleItem.owner ,  saleID ,  amount);\r\n        \r\n    }\r\n    function placeBID(uint256 saleID , uint256 amount ) public payable activSales(saleID){\r\n        require(itemsForSale[saleID].auctionable , \"not an auctionable sale, purchasse outrightly\");\r\n        \r\n        if(activeMinimums) {\r\n            require(amount >= itemsForSale[saleID].askingPrice , \"amount below asking price\");\r\n            require(amount >= itemsForSale[saleID].winningBid.amount || topUpCanDefietWinningBid(saleID , amount) , \"Amount less than winning Bid\");\r\n            \r\n        }\r\n        require(processedPayment(saleID , amount) , \"insuficient balance\");\r\n        \r\n        //check for top up\r\n        if(itemsForSale[saleID].bids[_msgSender()].isActive){\r\n            itemsForSale[saleID].bids[_msgSender()].amount += amount;\r\n            \r\n        }else{\r\n            bid storage newbid = itemsForSale[saleID].bids[_msgSender()];\r\n            newbid.bidder = payable(_msgSender());\r\n            newbid.amount = amount;\r\n            newbid.isActive = true; \r\n            itemsForSale[saleID].bidders.push(_msgSender());\r\n        }\r\n        if( itemsForSale[saleID].bids[_msgSender()].amount >  itemsForSale[saleID].winningBid.amount){\r\n            itemsForSale[saleID].winningBid =  itemsForSale[saleID].bids[_msgSender()];\r\n        }\r\n       emit  bidAddedToSale( _msgSender() ,  saleID ,  amount);\r\n        \r\n    }\r\n    function withdrawBid(uint256 saleID) public activSales(saleID){\r\n        require(canWithdrawBid , \"Bid Withdrawal Not Accepted\");\r\n        require(itemsForSale[saleID].bids[_msgSender()].bidder != itemsForSale[saleID].winningBid.bidder ,\"cant withdraw a winning bid\");\r\n        require(itemsForSale[saleID].bids[_msgSender()].isActive && itemsForSale[saleID].bids[_msgSender()].amount > 0 , \"You Have No Active Bid ont this sales\");\r\n         payoutUser(itemsForSale[saleID].bids[_msgSender()].bidder , itemsForSale[saleID].acceptedPaymentMethod , itemsForSale[saleID].bids[_msgSender()].amount);\r\n         itemsForSale[saleID].bids[_msgSender()].amount = 0;\r\n         itemsForSale[saleID].bids[_msgSender()].isActive = false;\r\n         \r\n    }\r\n    function acceptWinningBid(uint256 saleID) public onlySalesOwner(saleID) activSales(saleID){\r\n        \r\n        \r\n         require(itemsForSale[saleID].bidders.length > 0 && itemsForSale[saleID].winningBid.bidder != address(0) , \"No active bid for item,cancel sales or wait for buyer \");\r\n         require(itemsForSale[saleID].auctionable , \"not an auctionable sale, cancel sales or wait for buyer\");\r\n         ItemForSale storage currentSaleItem =  itemsForSale[saleID];\r\n         paymentMethod storage currentPaymentMethod = paymentMethods[currentSaleItem.acceptedPaymentMethod];\r\n         sendNTF( currentSaleItem.tokenAddress , currentSaleItem.tokenID , currentSaleItem.winningBid.bidder);\r\n         uint256 payoutAmount  = currentSaleItem.winningBid.amount;\r\n          currentSaleItem.bids[currentSaleItem.winningBid.bidder].isActive = false; \r\n         if(currentPaymentMethod.fees > 0){\r\n          payoutAmount = deductFees(saleID , payoutAmount);  \r\n         }\r\n         payoutUser(currentSaleItem.owner , currentSaleItem.acceptedPaymentMethod , payoutAmount);\r\n         \r\n         refundActiveBidders(saleID);\r\n         currentSaleItem.isSold = true;\r\n         isActiveOnSale[currentSaleItem.tokenAddress][currentSaleItem.tokenID] = false;\r\n         removeSaleId( saleID) ;\r\n          emit itemSold( currentSaleItem.owner , currentSaleItem.winningBid.bidder ,  saleID ,  currentSaleItem.winningBid.amount);\r\n        \r\n    }\r\n    function cancelSales(uint256 saleID) public onlySalesOwner(saleID) activSales(saleID) {\r\n        \r\n        ItemForSale storage currentSaleItem =  itemsForSale[saleID];\r\n     \r\n         sendNTF( currentSaleItem.tokenAddress , currentSaleItem.tokenID , currentSaleItem.owner);\r\n         \r\n         if(currentSaleItem.auctionable && currentSaleItem.bidders.length > 0){\r\n             refundActiveBidders(saleID);\r\n         }\r\n         isActiveOnSale[currentSaleItem.tokenAddress][currentSaleItem.tokenID] = false;\r\n         removeSaleId( saleID) ;\r\n    }\r\n    function refundActiveBidders(uint256 saleID) internal {\r\n       ItemForSale storage currentSaleItem =  itemsForSale[saleID];\r\n       \r\n       for(uint256 i = 0 ; i < currentSaleItem.bidders.length ;i++){\r\n           if(currentSaleItem.bids[currentSaleItem.bidders[i]].isActive &&\r\n              currentSaleItem.bids[currentSaleItem.bidders[i]].amount > 0 &&\r\n              currentSaleItem.bids[currentSaleItem.bidders[i]].bidder != address(0)){\r\n                payoutUser(currentSaleItem.bids[currentSaleItem.bidders[i]].bidder , currentSaleItem.acceptedPaymentMethod ,currentSaleItem.bids[currentSaleItem.bidders[i]].amount );\r\n                currentSaleItem.bids[currentSaleItem.bidders[i]].isActive = false;\r\n                  \r\n              }\r\n       }\r\n    }\r\n     function acceptNewNFT(address _dtokenAddress ,uint256 _dtokenID) private {\r\n        IERC721 NFTtoken =  IERC721(_dtokenAddress);\r\n        NFTtoken.safeTransferFrom(_msgSender(), address(this) , _dtokenID  );\r\n    \r\n    }\r\n    function sendNTF(address _dtokenAddress ,uint256 _dtokenID , address recipient) private {\r\n        IERC721 NFTtoken =  IERC721(_dtokenAddress);\r\n        NFTtoken.safeTransferFrom(address(this),  recipient , _dtokenID);\r\n    }\r\n    function removeSaleId(uint256 saleid) private {\r\n         for(uint256 index; index < itemsForSaleList.length ; index++){\r\n           if(itemsForSaleList[index] == saleid){\r\n               itemsForSaleList[index] = itemsForSaleList[itemsForSaleList.length - 1];\r\n               itemsForSaleList.pop();\r\n               \r\n           }\r\n       }\r\n    }\r\n    function payoutUser(address payable recipient , address _paymentMethod , uint256 amount) private{\r\n        if(_paymentMethod == address(0)){\r\n          recipient.transfer(amount);\r\n        }else {\r\n             IERC20 currentPaymentMethod = IERC20(_paymentMethod);\r\n             currentPaymentMethod.transfer(recipient , amount);\r\n        }\r\n    }\r\n      \r\n    \r\n     function NftTokenStatusUpdate(address _tokenAddress ,bool Nftstatus) public onlyOwner {\r\n         require(_tokenAddress != address(0), \" NFT not supported at zero address\");\r\n         acceptedTokens[_tokenAddress] = Nftstatus;\r\n         \r\n    }\r\n    function addPaymentMethod(address paymentAddress ,  uint256 fee) public onlyOwner {\r\n         \r\n        require(!paymentMethods[paymentAddress].isSet, \"payment method already added\");\r\n        paymentMethod storage newPaymentMethod = paymentMethods[paymentAddress];\r\n        newPaymentMethod.tokenAddress = paymentAddress;\r\n        newPaymentMethod.fees = fee;\r\n        newPaymentMethod.isSet = true ;\r\n        isActivepaymentMethod[paymentAddress] = true;\r\n        \r\n        \r\n    }\r\n    function processedPayment(uint256 saleID , uint256 amount ) internal returns (bool) {\r\n        ItemForSale storage currentItem =  itemsForSale[saleID];\r\n        if(currentItem.acceptedPaymentMethod == address(0)){\r\n            if(msg.value >= currentItem.askingPrice){\r\n                return true;\r\n            }else{\r\n               return false; \r\n            }\r\n        }else{\r\n            IERC20 currentPaymentMethod = IERC20(currentItem.acceptedPaymentMethod);\r\n            if(currentPaymentMethod.allowance(_msgSender(), address(this)) >= amount ){\r\n               currentPaymentMethod.transferFrom(_msgSender() , address(0) , amount);\r\n               return true;\r\n            }else{\r\n                return false;\r\n            }\r\n        }\r\n    }\r\n    function topUpCanDefietWinningBid(uint256 saleID ,uint256 amount) internal view  returns(bool){\r\n          \r\n          if(itemsForSale[saleID].bids[_msgSender()].isActive &&( itemsForSale[saleID].bids[_msgSender()].amount + amount) >  itemsForSale[saleID].winningBid.amount){\r\n              return true;\r\n          }else {\r\n            return false;  \r\n          }\r\n    }\r\n    function deductFees(uint256 saleID , uint256 amount) internal returns (uint256) {\r\n        ItemForSale storage currentSaleItem =  itemsForSale[saleID];\r\n         paymentMethod storage currentPaymentMethod = paymentMethods[currentSaleItem.acceptedPaymentMethod];\r\n         \r\n         if(currentPaymentMethod.fees > 0){\r\n          uint256 fees_to_deduct = amount * currentPaymentMethod.fees  / 1000;\r\n          currentPaymentMethod.feeBalance += fees_to_deduct;\r\n          feeRemitanceAddress.transfer(fees_to_deduct);\r\n          return amount - fees_to_deduct;\r\n          \r\n         }else {\r\n             return amount;\r\n         }\r\n    }\r\n\r\n     function activatePaymentMethod(address paymentAddress) public onlyOwner {\r\n          require(paymentMethods[paymentAddress].isSet, \"payment method not added\");\r\n         require(!isActivepaymentMethod[paymentAddress] , \"payment method already active\");\r\n       isActivepaymentMethod[paymentAddress] = true;\r\n         \r\n    }\r\n     function deactivatePaymentMethod(address paymentAddress) public onlyOwner {\r\n          require(paymentMethods[paymentAddress].isSet, \"payment method not  added\");\r\n          require(isActivepaymentMethod[paymentAddress] , \"payment method already inactive\");\r\n          isActivepaymentMethod[paymentAddress] = false;\r\n         \r\n         \r\n    }\r\n    function feeRemitanceAddressUpdate(address payable _feeRemitanceAddress) public onlyOwner {\r\n        require(_feeRemitanceAddress != address(0) , \"cant make address 0 fee remitance address\");\r\n        feeRemitanceAddress = _feeRemitanceAddress;\r\n    }\r\n    function settings(bool activeMinimumsState , bool canWithdrawBidState) public onlyOwner {\r\n        activeMinimums = activeMinimumsState;\r\n        canWithdrawBid = canWithdrawBidState;\r\n    }\r\n    function setPaymentMethodFees(address _paymentMethod ,  uint256 _fees) public onlyOwner{\r\n        require(_fees >= 1 && _fees <= 300 , \"out of range\");\r\n        require(paymentMethods[_paymentMethod].isSet , \"invalid paymentMethod\");\r\n        paymentMethods[_paymentMethod].fees = _fees;\r\n    }\r\n    function ex_in_Clude_FromFee(address _seller , bool status) public onlyOwner {\r\n        isExcludedFromFees[_seller] = status;\r\n    }\r\n   \r\n\r\n}",
  "sourcePath": "C:/Users/msi/Desktop/treezgraph/avaxtreez/contracts/avaxTreezMarket.sol",
  "compiler": {
    "name": "solc",
    "version": "0.8.0+commit.c7dfd78e.Emscripten.clang"
  },
  "schemaVersion": "3.4.1",
  "updatedAt": "2021-10-02T15:40:56.338Z",
  "devdoc": {
    "kind": "dev",
    "methods": {
      "owner()": {
        "details": "Returns the address of the current owner."
      },
      "renounceOwnership()": {
        "details": "Leaves the contract without owner. It will not be possible to call `onlyOwner` functions anymore. Can only be called by the current owner. NOTE: Renouncing ownership will leave the contract without an owner, thereby removing any functionality that is only available to the owner."
      },
      "transferOwnership(address)": {
        "details": "Transfers ownership of the contract to a new account (`newOwner`). Can only be called by the current owner."
      }
    },
    "version": 1
  },
  "userdoc": {
    "kind": "user",
    "methods": {},
    "version": 1
  }
}