{
  "contractName": "striteNFT",
  "abi": [
    {
      "inputs": [
        {
          "internalType": "string",
          "name": "baseURI_",
          "type": "string"
        }
      ],
      "stateMutability": "nonpayable",
      "type": "constructor"
    },
    {
      "anonymous": false,
      "inputs": [
        {
          "indexed": true,
          "internalType": "address",
          "name": "owner",
          "type": "address"
        },
        {
          "indexed": true,
          "internalType": "address",
          "name": "approved",
          "type": "address"
        },
        {
          "indexed": true,
          "internalType": "uint256",
          "name": "tokenId",
          "type": "uint256"
        }
      ],
      "name": "Approval",
      "type": "event"
    },
    {
      "anonymous": false,
      "inputs": [
        {
          "indexed": true,
          "internalType": "address",
          "name": "owner",
          "type": "address"
        },
        {
          "indexed": true,
          "internalType": "address",
          "name": "operator",
          "type": "address"
        },
        {
          "indexed": false,
          "internalType": "bool",
          "name": "approved",
          "type": "bool"
        }
      ],
      "name": "ApprovalForAll",
      "type": "event"
    },
    {
      "anonymous": false,
      "inputs": [
        {
          "indexed": true,
          "internalType": "address",
          "name": "creator",
          "type": "address"
        },
        {
          "indexed": false,
          "internalType": "uint256",
          "name": "tokenId",
          "type": "uint256"
        }
      ],
      "name": "ItemCreated",
      "type": "event"
    },
    {
      "anonymous": false,
      "inputs": [
        {
          "indexed": true,
          "internalType": "address",
          "name": "previousOwner",
          "type": "address"
        },
        {
          "indexed": true,
          "internalType": "address",
          "name": "newOwner",
          "type": "address"
        }
      ],
      "name": "OwnershipTransferred",
      "type": "event"
    },
    {
      "anonymous": false,
      "inputs": [
        {
          "indexed": false,
          "internalType": "bool",
          "name": "status",
          "type": "bool"
        }
      ],
      "name": "SaleStatusChanged",
      "type": "event"
    },
    {
      "anonymous": false,
      "inputs": [
        {
          "indexed": true,
          "internalType": "address",
          "name": "from",
          "type": "address"
        },
        {
          "indexed": true,
          "internalType": "address",
          "name": "to",
          "type": "address"
        },
        {
          "indexed": true,
          "internalType": "uint256",
          "name": "tokenId",
          "type": "uint256"
        }
      ],
      "name": "Transfer",
      "type": "event"
    },
    {
      "inputs": [
        {
          "internalType": "uint256",
          "name": "",
          "type": "uint256"
        }
      ],
      "name": "Items",
      "outputs": [
        {
          "internalType": "uint256",
          "name": "id",
          "type": "uint256"
        },
        {
          "internalType": "address",
          "name": "creator",
          "type": "address"
        },
        {
          "internalType": "string",
          "name": "uri",
          "type": "string"
        }
      ],
      "stateMutability": "view",
      "type": "function"
    },
    {
      "inputs": [
        {
          "internalType": "address",
          "name": "to",
          "type": "address"
        },
        {
          "internalType": "uint256",
          "name": "tokenId",
          "type": "uint256"
        }
      ],
      "name": "approve",
      "outputs": [],
      "stateMutability": "nonpayable",
      "type": "function"
    },
    {
      "inputs": [
        {
          "internalType": "address",
          "name": "owner",
          "type": "address"
        }
      ],
      "name": "balanceOf",
      "outputs": [
        {
          "internalType": "uint256",
          "name": "",
          "type": "uint256"
        }
      ],
      "stateMutability": "view",
      "type": "function"
    },
    {
      "inputs": [],
      "name": "baseUri",
      "outputs": [
        {
          "internalType": "string",
          "name": "",
          "type": "string"
        }
      ],
      "stateMutability": "view",
      "type": "function"
    },
    {
      "inputs": [],
      "name": "claimedReward",
      "outputs": [
        {
          "internalType": "uint256",
          "name": "",
          "type": "uint256"
        }
      ],
      "stateMutability": "view",
      "type": "function"
    },
    {
      "inputs": [],
      "name": "currentClaimRatio",
      "outputs": [
        {
          "internalType": "uint256",
          "name": "",
          "type": "uint256"
        }
      ],
      "stateMutability": "view",
      "type": "function"
    },
    {
      "inputs": [
        {
          "internalType": "uint256",
          "name": "tokenId",
          "type": "uint256"
        }
      ],
      "name": "getApproved",
      "outputs": [
        {
          "internalType": "address",
          "name": "",
          "type": "address"
        }
      ],
      "stateMutability": "view",
      "type": "function"
    },
    {
      "inputs": [
        {
          "internalType": "address",
          "name": "",
          "type": "address"
        }
      ],
      "name": "isAdmin",
      "outputs": [
        {
          "internalType": "bool",
          "name": "",
          "type": "bool"
        }
      ],
      "stateMutability": "view",
      "type": "function"
    },
    {
      "inputs": [
        {
          "internalType": "address",
          "name": "owner",
          "type": "address"
        },
        {
          "internalType": "address",
          "name": "operator",
          "type": "address"
        }
      ],
      "name": "isApprovedForAll",
      "outputs": [
        {
          "internalType": "bool",
          "name": "",
          "type": "bool"
        }
      ],
      "stateMutability": "view",
      "type": "function"
    },
    {
      "inputs": [
        {
          "internalType": "address",
          "name": "",
          "type": "address"
        }
      ],
      "name": "isBlackListed",
      "outputs": [
        {
          "internalType": "bool",
          "name": "",
          "type": "bool"
        }
      ],
      "stateMutability": "view",
      "type": "function"
    },
    {
      "inputs": [
        {
          "internalType": "uint256",
          "name": "",
          "type": "uint256"
        }
      ],
      "name": "itemLastClaimRatioAt",
      "outputs": [
        {
          "internalType": "uint256",
          "name": "",
          "type": "uint256"
        }
      ],
      "stateMutability": "view",
      "type": "function"
    },
    {
      "inputs": [],
      "name": "mintingFee",
      "outputs": [
        {
          "internalType": "uint256",
          "name": "",
          "type": "uint256"
        }
      ],
      "stateMutability": "view",
      "type": "function"
    },
    {
      "inputs": [],
      "name": "mintingFeePrice",
      "outputs": [
        {
          "internalType": "uint256",
          "name": "",
          "type": "uint256"
        }
      ],
      "stateMutability": "view",
      "type": "function"
    },
    {
      "inputs": [],
      "name": "name",
      "outputs": [
        {
          "internalType": "string",
          "name": "",
          "type": "string"
        }
      ],
      "stateMutability": "view",
      "type": "function"
    },
    {
      "inputs": [],
      "name": "owner",
      "outputs": [
        {
          "internalType": "address",
          "name": "",
          "type": "address"
        }
      ],
      "stateMutability": "view",
      "type": "function"
    },
    {
      "inputs": [
        {
          "internalType": "uint256",
          "name": "tokenId",
          "type": "uint256"
        }
      ],
      "name": "ownerOf",
      "outputs": [
        {
          "internalType": "address",
          "name": "",
          "type": "address"
        }
      ],
      "stateMutability": "view",
      "type": "function"
    },
    {
      "inputs": [],
      "name": "renounceOwnership",
      "outputs": [],
      "stateMutability": "nonpayable",
      "type": "function"
    },
    {
      "inputs": [
        {
          "internalType": "address",
          "name": "from",
          "type": "address"
        },
        {
          "internalType": "address",
          "name": "to",
          "type": "address"
        },
        {
          "internalType": "uint256",
          "name": "tokenId",
          "type": "uint256"
        }
      ],
      "name": "safeTransferFrom",
      "outputs": [],
      "stateMutability": "nonpayable",
      "type": "function"
    },
    {
      "inputs": [
        {
          "internalType": "address",
          "name": "from",
          "type": "address"
        },
        {
          "internalType": "address",
          "name": "to",
          "type": "address"
        },
        {
          "internalType": "uint256",
          "name": "tokenId",
          "type": "uint256"
        },
        {
          "internalType": "bytes",
          "name": "_data",
          "type": "bytes"
        }
      ],
      "name": "safeTransferFrom",
      "outputs": [],
      "stateMutability": "nonpayable",
      "type": "function"
    },
    {
      "inputs": [
        {
          "internalType": "address",
          "name": "operator",
          "type": "address"
        },
        {
          "internalType": "bool",
          "name": "approved",
          "type": "bool"
        }
      ],
      "name": "setApprovalForAll",
      "outputs": [],
      "stateMutability": "nonpayable",
      "type": "function"
    },
    {
      "inputs": [
        {
          "internalType": "bytes4",
          "name": "interfaceId",
          "type": "bytes4"
        }
      ],
      "name": "supportsInterface",
      "outputs": [
        {
          "internalType": "bool",
          "name": "",
          "type": "bool"
        }
      ],
      "stateMutability": "view",
      "type": "function"
    },
    {
      "inputs": [],
      "name": "symbol",
      "outputs": [
        {
          "internalType": "string",
          "name": "",
          "type": "string"
        }
      ],
      "stateMutability": "view",
      "type": "function"
    },
    {
      "inputs": [],
      "name": "totalReward",
      "outputs": [
        {
          "internalType": "uint256",
          "name": "",
          "type": "uint256"
        }
      ],
      "stateMutability": "view",
      "type": "function"
    },
    {
      "inputs": [],
      "name": "totalSupply",
      "outputs": [
        {
          "internalType": "uint256",
          "name": "",
          "type": "uint256"
        }
      ],
      "stateMutability": "view",
      "type": "function"
    },
    {
      "inputs": [
        {
          "internalType": "address",
          "name": "from",
          "type": "address"
        },
        {
          "internalType": "address",
          "name": "to",
          "type": "address"
        },
        {
          "internalType": "uint256",
          "name": "tokenId",
          "type": "uint256"
        }
      ],
      "name": "transferFrom",
      "outputs": [],
      "stateMutability": "nonpayable",
      "type": "function"
    },
    {
      "inputs": [
        {
          "internalType": "address",
          "name": "newOwner",
          "type": "address"
        }
      ],
      "name": "transferOwnership",
      "outputs": [],
      "stateMutability": "nonpayable",
      "type": "function"
    },
    {
      "inputs": [
        {
          "internalType": "address",
          "name": "",
          "type": "address"
        },
        {
          "internalType": "uint256",
          "name": "",
          "type": "uint256"
        }
      ],
      "name": "userCollection",
      "outputs": [
        {
          "internalType": "uint256",
          "name": "",
          "type": "uint256"
        }
      ],
      "stateMutability": "view",
      "type": "function"
    },
    {
      "inputs": [
        {
          "internalType": "uint256",
          "name": "amount",
          "type": "uint256"
        }
      ],
      "name": "addToRewardPool",
      "outputs": [],
      "stateMutability": "payable",
      "type": "function"
    },
    {
      "inputs": [
        {
          "internalType": "address",
          "name": "user",
          "type": "address"
        }
      ],
      "name": "claimUserReward",
      "outputs": [],
      "stateMutability": "nonpayable",
      "type": "function"
    },
    {
      "inputs": [
        {
          "internalType": "address",
          "name": "user",
          "type": "address"
        }
      ],
      "name": "viewUserReward",
      "outputs": [
        {
          "internalType": "uint256",
          "name": "",
          "type": "uint256"
        }
      ],
      "stateMutability": "view",
      "type": "function"
    },
    {
      "inputs": [
        {
          "internalType": "string",
          "name": "base",
          "type": "string"
        }
      ],
      "name": "setBaseUri",
      "outputs": [],
      "stateMutability": "nonpayable",
      "type": "function"
    },
    {
      "inputs": [],
      "name": "getHasSaleStarted",
      "outputs": [
        {
          "internalType": "bool",
          "name": "state",
          "type": "bool"
        }
      ],
      "stateMutability": "view",
      "type": "function"
    },
    {
      "inputs": [
        {
          "internalType": "bool",
          "name": "state",
          "type": "bool"
        },
        {
          "internalType": "address[]",
          "name": "luckies",
          "type": "address[]"
        },
        {
          "internalType": "uint256[]",
          "name": "giveAmounts",
          "type": "uint256[]"
        }
      ],
      "name": "setHasSaleStarted",
      "outputs": [],
      "stateMutability": "nonpayable",
      "type": "function"
    },
    {
      "inputs": [
        {
          "internalType": "uint256",
          "name": "amount",
          "type": "uint256"
        }
      ],
      "name": "createItem",
      "outputs": [
        {
          "internalType": "uint256",
          "name": "",
          "type": "uint256"
        }
      ],
      "stateMutability": "payable",
      "type": "function"
    },
    {
      "inputs": [],
      "name": "mintedSupply",
      "outputs": [
        {
          "internalType": "uint256",
          "name": "",
          "type": "uint256"
        }
      ],
      "stateMutability": "view",
      "type": "function"
    },
    {
      "inputs": [
        {
          "internalType": "uint256",
          "name": "tokenId",
          "type": "uint256"
        }
      ],
      "name": "tokenURI",
      "outputs": [
        {
          "internalType": "string",
          "name": "",
          "type": "string"
        }
      ],
      "stateMutability": "view",
      "type": "function"
    },
    {
      "inputs": [
        {
          "internalType": "address",
          "name": "user",
          "type": "address"
        }
      ],
      "name": "userCollections",
      "outputs": [
        {
          "internalType": "uint256[]",
          "name": "",
          "type": "uint256[]"
        }
      ],
      "stateMutability": "view",
      "type": "function"
    },
    {
      "inputs": [
        {
          "internalType": "uint256",
          "name": "tokenId",
          "type": "uint256"
        }
      ],
      "name": "tokenCreator",
      "outputs": [
        {
          "internalType": "address",
          "name": "",
          "type": "address"
        }
      ],
      "stateMutability": "view",
      "type": "function"
    },
    {
      "inputs": [
        {
          "internalType": "address",
          "name": "adminAddress",
          "type": "address"
        }
      ],
      "name": "addAdmin",
      "outputs": [],
      "stateMutability": "nonpayable",
      "type": "function"
    },
    {
      "inputs": [
        {
          "internalType": "address",
          "name": "adminAddress",
          "type": "address"
        }
      ],
      "name": "removeAdmin",
      "outputs": [],
      "stateMutability": "nonpayable",
      "type": "function"
    },
    {
      "inputs": [
        {
          "internalType": "address",
          "name": "userAddress",
          "type": "address"
        },
        {
          "internalType": "bool",
          "name": "blacklist",
          "type": "bool"
        }
      ],
      "name": "blackListAddress",
      "outputs": [],
      "stateMutability": "nonpayable",
      "type": "function"
    },
    {
      "inputs": [
        {
          "internalType": "uint256",
          "name": "price",
          "type": "uint256"
        }
      ],
      "name": "setmintingFeePrice",
      "outputs": [],
      "stateMutability": "nonpayable",
      "type": "function"
    },
    {
      "inputs": [
        {
          "internalType": "address payable",
          "name": "destination",
          "type": "address"
        },
        {
          "internalType": "uint256",
          "name": "amount",
          "type": "uint256"
        }
      ],
      "name": "withdrawFunds",
      "outputs": [],
      "stateMutability": "nonpayable",
      "type": "function"
    }
  ],
  "bytecode": "0x60806040526722b1c8c1227a00006008556127106014553480156200002357600080fd5b506040516200574938038062005749833981810160405281019062000049919062000319565b6040518060400160405280600a81526020017f4156415820545245455a000000000000000000000000000000000000000000008152506040518060400160405280600581526020017f545245455a0000000000000000000000000000000000000000000000000000008152508160009080519060200190620000cd929190620001f7565b508060019080519060200190620000e6929190620001f7565b50505062000109620000fd6200012960201b60201c565b6200013160201b60201c565b806012908051906020019062000121929190620001f7565b50506200048f565b600033905090565b6000600660009054906101000a900473ffffffffffffffffffffffffffffffffffffffff16905081600660006101000a81548173ffffffffffffffffffffffffffffffffffffffff021916908373ffffffffffffffffffffffffffffffffffffffff1602179055508173ffffffffffffffffffffffffffffffffffffffff168173ffffffffffffffffffffffffffffffffffffffff167f8be0079c531659141344cd1fd0a4f28419497f9722a3daafe3b4186f6b6457e060405160405180910390a35050565b8280546200020590620003fb565b90600052602060002090601f01602090048101928262000229576000855562000275565b82601f106200024457805160ff191683800117855562000275565b8280016001018555821562000275579182015b828111156200027457825182559160200191906001019062000257565b5b50905062000284919062000288565b5090565b5b80821115620002a357600081600090555060010162000289565b5090565b6000620002be620002b88462000392565b6200035e565b905082815260208101848484011115620002d757600080fd5b620002e4848285620003c5565b509392505050565b600082601f830112620002fe57600080fd5b815162000310848260208601620002a7565b91505092915050565b6000602082840312156200032c57600080fd5b600082015167ffffffffffffffff8111156200034757600080fd5b6200035584828501620002ec565b91505092915050565b6000604051905081810181811067ffffffffffffffff8211171562000388576200038762000460565b5b8060405250919050565b600067ffffffffffffffff821115620003b057620003af62000460565b5b601f19601f8301169050602081019050919050565b60005b83811015620003e5578082015181840152602081019050620003c8565b83811115620003f5576000848401525b50505050565b600060028204905060018216806200041457607f821691505b602082108114156200042b576200042a62000431565b5b50919050565b7f4e487b7100000000000000000000000000000000000000000000000000000000600052602260045260246000fd5b7f4e487b7100000000000000000000000000000000000000000000000000000000600052604160045260246000fd5b6152aa806200049f6000396000f3fe60806040526004361061025c5760003560e01c8063715018a611610144578063aea45b1e116100b6578063c1bd8cf91161007a578063c1bd8cf914610923578063c87b56dd1461094e578063d7a5d5d31461098b578063e47d6060146109bb578063e985e9c5146109f8578063f2fde38b14610a355761025c565b8063aea45b1e14610861578063b0c33af41461088a578063b88d4fde146108b5578063b95ffbce146108de578063c1075329146108fa5761025c565b80638e5972d9116101085780638e5972d914610753578063941ec8641461077c57806395d89b41146107b95780639abc8320146107e4578063a0bcfc7f1461080f578063a22cb465146108385761025c565b8063715018a614610680578063750142e614610697578063794be707146106c25780637e43bd2a146106eb5780638da5cb5b146107285761025c565b80632e6d57bf116101dd5780635a64ad95116101a15780635a64ad951461054a5780636025c04b146105755780636352211e146105a05780636c35628d146105dd578063704802751461061a57806370a08231146106435761025c565b80632e6d57bf1461045157806340c1a0641461048e57806342842e0e146104cb57806348490a40146104f4578063514ccef01461051f5761025c565b806317b47cc41161022457806317b47cc41461035857806318160ddd1461039757806323b872dd146103c257806323f96440146103eb57806324d7806c146104145761025c565b806301ffc9a71461026157806306fdde031461029e578063081812fc146102c9578063095ea7b3146103065780631785f53c1461032f575b600080fd5b34801561026d57600080fd5b5061028860048036038101906102839190613d5e565b610a5e565b6040516102959190614951565b60405180910390f35b3480156102aa57600080fd5b506102b3610b40565b6040516102c0919061496c565b60405180910390f35b3480156102d557600080fd5b506102f060048036038101906102eb9190613df1565b610bd2565b6040516102fd91906148c8565b60405180910390f35b34801561031257600080fd5b5061032d60048036038101906103289190613ca3565b610c57565b005b34801561033b57600080fd5b5061035660048036038101906103519190613afc565b610d6f565b005b34801561036457600080fd5b5061037f600480360381019061037a9190613df1565b610eb6565b60405161038e93929190614cc9565b60405180910390f35b3480156103a357600080fd5b506103ac610f88565b6040516103b99190614cae565b60405180910390f35b3480156103ce57600080fd5b506103e960048036038101906103e49190613b9d565b610f8e565b005b3480156103f757600080fd5b50610412600480360381019061040d9190613df1565b610fee565b005b34801561042057600080fd5b5061043b60048036038101906104369190613afc565b611074565b6040516104489190614951565b60405180910390f35b34801561045d57600080fd5b5061047860048036038101906104739190613afc565b611094565b6040516104859190614cae565b60405180910390f35b34801561049a57600080fd5b506104b560048036038101906104b09190613df1565b611127565b6040516104c291906148c8565b60405180910390f35b3480156104d757600080fd5b506104f260048036038101906104ed9190613b9d565b6111af565b005b34801561050057600080fd5b506105096111cf565b6040516105169190614cae565b60405180910390f35b34801561052b57600080fd5b506105346111d5565b6040516105419190614cae565b60405180910390f35b34801561055657600080fd5b5061055f6111db565b60405161056c9190614cae565b60405180910390f35b34801561058157600080fd5b5061058a6111e1565b6040516105979190614cae565b60405180910390f35b3480156105ac57600080fd5b506105c760048036038101906105c29190613df1565b6111e7565b6040516105d491906148c8565b60405180910390f35b3480156105e957600080fd5b5061060460048036038101906105ff9190613ca3565b611299565b6040516106119190614cae565b60405180910390f35b34801561062657600080fd5b50610641600480360381019061063c9190613afc565b6112ca565b005b34801561064f57600080fd5b5061066a60048036038101906106659190613afc565b611411565b6040516106779190614cae565b60405180910390f35b34801561068c57600080fd5b506106956114c9565b005b3480156106a357600080fd5b506106ac611551565b6040516106b99190614cae565b60405180910390f35b3480156106ce57600080fd5b506106e960048036038101906106e49190613c67565b611557565b005b3480156106f757600080fd5b50610712600480360381019061070d9190613df1565b6116f9565b60405161071f9190614cae565b60405180910390f35b34801561073457600080fd5b5061073d611711565b60405161074a91906148c8565b60405180910390f35b34801561075f57600080fd5b5061077a60048036038101906107759190613cdf565b61173b565b005b34801561078857600080fd5b506107a3600480360381019061079e9190613afc565b611b51565b6040516107b0919061492f565b60405180910390f35b3480156107c557600080fd5b506107ce611be8565b6040516107db919061496c565b60405180910390f35b3480156107f057600080fd5b506107f9611c7a565b604051610806919061496c565b60405180910390f35b34801561081b57600080fd5b5061083660048036038101906108319190613db0565b611d08565b005b34801561084457600080fd5b5061085f600480360381019061085a9190613c67565b611d9e565b005b34801561086d57600080fd5b5061088860048036038101906108839190613afc565b611f1f565b005b34801561089657600080fd5b5061089f611f99565b6040516108ac9190614951565b60405180910390f35b3480156108c157600080fd5b506108dc60048036038101906108d79190613bec565b611fb0565b005b6108f860048036038101906108f39190613df1565b612012565b005b34801561090657600080fd5b50610921600480360381019061091c9190613b25565b6120e1565b005b34801561092f57600080fd5b506109386121ed565b6040516109459190614cae565b60405180910390f35b34801561095a57600080fd5b5061097560048036038101906109709190613df1565b6121fe565b604051610982919061496c565b60405180910390f35b6109a560048036038101906109a09190613df1565b6122ee565b6040516109b29190614cae565b60405180910390f35b3480156109c757600080fd5b506109e260048036038101906109dd9190613afc565b612644565b6040516109ef9190614951565b60405180910390f35b348015610a0457600080fd5b50610a1f6004803603810190610a1a9190613b61565b612664565b604051610a2c9190614951565b60405180910390f35b348015610a4157600080fd5b50610a5c6004803603810190610a579190613afc565b6126f8565b005b60007f80ac58cd000000000000000000000000000000000000000000000000000000007bffffffffffffffffffffffffffffffffffffffffffffffffffffffff1916827bffffffffffffffffffffffffffffffffffffffffffffffffffffffff19161480610b2957507f5b5e139f000000000000000000000000000000000000000000000000000000007bffffffffffffffffffffffffffffffffffffffffffffffffffffffff1916827bffffffffffffffffffffffffffffffffffffffffffffffffffffffff1916145b80610b395750610b38826127f0565b5b9050919050565b606060008054610b4f90615088565b80601f0160208091040260200160405190810160405280929190818152602001828054610b7b90615088565b8015610bc85780601f10610b9d57610100808354040283529160200191610bc8565b820191906000526020600020905b815481529060010190602001808311610bab57829003601f168201915b5050505050905090565b6000610bdd8261285a565b610c1c576040517f08c379a0000000000000000000000000000000000000000000000000000000008152600401610c1390614b4e565b60405180910390fd5b6004600083815260200190815260200160002060009054906101000a900473ffffffffffffffffffffffffffffffffffffffff169050919050565b6000610c62826111e7565b90508073ffffffffffffffffffffffffffffffffffffffff168373ffffffffffffffffffffffffffffffffffffffff161415610cd3576040517f08c379a0000000000000000000000000000000000000000000000000000000008152600401610cca90614c2e565b60405180910390fd5b8073ffffffffffffffffffffffffffffffffffffffff16610cf26128c6565b73ffffffffffffffffffffffffffffffffffffffff161480610d215750610d2081610d1b6128c6565b612664565b5b610d60576040517f08c379a0000000000000000000000000000000000000000000000000000000008152600401610d5790614a8e565b60405180910390fd5b610d6a83836128ce565b505050565b610d776128c6565b73ffffffffffffffffffffffffffffffffffffffff16610d95611711565b73ffffffffffffffffffffffffffffffffffffffff1614610deb576040517f08c379a0000000000000000000000000000000000000000000000000000000008152600401610de290614b6e565b60405180910390fd5b600073ffffffffffffffffffffffffffffffffffffffff168173ffffffffffffffffffffffffffffffffffffffff161415610e5b576040517f08c379a0000000000000000000000000000000000000000000000000000000008152600401610e5290614c6e565b60405180910390fd5b6001600a60008373ffffffffffffffffffffffffffffffffffffffff1673ffffffffffffffffffffffffffffffffffffffff16815260200190815260200160002060006101000a81548160ff02191690831515021790555050565b60096020528060005260406000206000915090508060000154908060010160009054906101000a900473ffffffffffffffffffffffffffffffffffffffff1690806002018054610f0590615088565b80601f0160208091040260200160405190810160405280929190818152602001828054610f3190615088565b8015610f7e5780601f10610f5357610100808354040283529160200191610f7e565b820191906000526020600020905b815481529060010190602001808311610f6157829003601f168201915b5050505050905083565b60145481565b610f9f610f996128c6565b82612987565b610fde576040517f08c379a0000000000000000000000000000000000000000000000000000000008152600401610fd590614c4e565b60405180910390fd5b610fe9838383612a65565b505050565b610ff66128c6565b73ffffffffffffffffffffffffffffffffffffffff16611014611711565b73ffffffffffffffffffffffffffffffffffffffff161461106a576040517f08c379a000000000000000000000000000000000000000000000000000000000815260040161106190614b6e565b60405180910390fd5b8060088190555050565b600a6020528060005260406000206000915054906101000a900460ff1681565b6000806110a083611b51565b9050600080600090505b825181101561111c576110fc8382815181106110ef577f4e487b7100000000000000000000000000000000000000000000000000000000600052603260045260246000fd5b6020026020010151612ff2565b826111079190614e81565b91508080611114906150ba565b9150506110aa565b508092505050919050565b60006111328261285a565b611171576040517f08c379a000000000000000000000000000000000000000000000000000000000815260040161116890614bce565b60405180910390fd5b6009600083815260200190815260200160002060010160009054906101000a900473ffffffffffffffffffffffffffffffffffffffff169050919050565b6111ca83838360405180602001604052806000815250611fb0565b505050565b60085481565b600f5481565b60105481565b60115481565b6000806002600084815260200190815260200160002060009054906101000a900473ffffffffffffffffffffffffffffffffffffffff169050600073ffffffffffffffffffffffffffffffffffffffff168173ffffffffffffffffffffffffffffffffffffffff161415611290576040517f08c379a000000000000000000000000000000000000000000000000000000000815260040161128790614ace565b60405180910390fd5b80915050919050565b600c60205281600052604060002081815481106112b557600080fd5b90600052602060002001600091509150505481565b6112d26128c6565b73ffffffffffffffffffffffffffffffffffffffff166112f0611711565b73ffffffffffffffffffffffffffffffffffffffff1614611346576040517f08c379a000000000000000000000000000000000000000000000000000000000815260040161133d90614b6e565b60405180910390fd5b600073ffffffffffffffffffffffffffffffffffffffff168173ffffffffffffffffffffffffffffffffffffffff1614156113b6576040517f08c379a00000000000000000000000000000000000000000000000000000000081526004016113ad90614c6e565b60405180910390fd5b6001600a60008373ffffffffffffffffffffffffffffffffffffffff1673ffffffffffffffffffffffffffffffffffffffff16815260200190815260200160002060006101000a81548160ff02191690831515021790555050565b60008073ffffffffffffffffffffffffffffffffffffffff168273ffffffffffffffffffffffffffffffffffffffff161415611482576040517f08c379a000000000000000000000000000000000000000000000000000000000815260040161147990614aae565b60405180910390fd5b600360008373ffffffffffffffffffffffffffffffffffffffff1673ffffffffffffffffffffffffffffffffffffffff168152602001908152602001600020549050919050565b6114d16128c6565b73ffffffffffffffffffffffffffffffffffffffff166114ef611711565b73ffffffffffffffffffffffffffffffffffffffff1614611545576040517f08c379a000000000000000000000000000000000000000000000000000000000815260040161153c90614b6e565b60405180910390fd5b61154f600061301c565b565b600e5481565b600a60006115636128c6565b73ffffffffffffffffffffffffffffffffffffffff1673ffffffffffffffffffffffffffffffffffffffff16815260200190815260200160002060009054906101000a900460ff16806115ef57506115b96128c6565b73ffffffffffffffffffffffffffffffffffffffff166115d7611711565b73ffffffffffffffffffffffffffffffffffffffff16145b61162e576040517f08c379a000000000000000000000000000000000000000000000000000000000815260040161162590614c8e565b60405180910390fd5b600073ffffffffffffffffffffffffffffffffffffffff168273ffffffffffffffffffffffffffffffffffffffff16141561169e576040517f08c379a000000000000000000000000000000000000000000000000000000000815260040161169590614b8e565b60405180910390fd5b80600b60008473ffffffffffffffffffffffffffffffffffffffff1673ffffffffffffffffffffffffffffffffffffffff16815260200190815260200160002060006101000a81548160ff0219169083151502179055505050565b60136020528060005260406000206000915090505481565b6000600660009054906101000a900473ffffffffffffffffffffffffffffffffffffffff16905090565b6117436128c6565b73ffffffffffffffffffffffffffffffffffffffff16611761611711565b73ffffffffffffffffffffffffffffffffffffffff16146117b7576040517f08c379a00000000000000000000000000000000000000000000000000000000081526004016117ae90614b6e565b60405180910390fd5b80518251146117c557600080fd5b60006117d160076130e2565b905060005b8351811015611ade5760005b83828151811061181b577f4e487b7100000000000000000000000000000000000000000000000000000000600052603260045260246000fd5b6020026020010151811015611aca5761183460076130f0565b61183e60076130e2565b925061188a85838151811061187c577f4e487b7100000000000000000000000000000000000000000000000000000000600052603260045260246000fd5b602002602001015184613106565b60405180606001604052808481526020013373ffffffffffffffffffffffffffffffffffffffff16815260200160126118c286613124565b6040516020016118d39291906148a4565b604051602081830303815290604052815250600960008581526020019081526020016000206000820151816000015560208201518160010160006101000a81548173ffffffffffffffffffffffffffffffffffffffff021916908373ffffffffffffffffffffffffffffffffffffffff16021790555060408201518160020190805190602001906119659291906137df565b50905050600c60008684815181106119a6577f4e487b7100000000000000000000000000000000000000000000000000000000600052603260045260246000fd5b602002602001015173ffffffffffffffffffffffffffffffffffffffff1673ffffffffffffffffffffffffffffffffffffffff1681526020019081526020016000208390806001815401808255809150506001900390600052602060002001600090919091909150556011546013600085815260200190815260200160002081905550848281518110611a62577f4e487b7100000000000000000000000000000000000000000000000000000000600052603260045260246000fd5b602002602001015173ffffffffffffffffffffffffffffffffffffffff167fa9a8fc8429e9d4b8fe54b38fd34cb56aaa1a9bf6eb605f45b223b08b58b9761884604051611aaf9190614cae565b60405180910390a28080611ac2906150ba565b9150506117e2565b508080611ad6906150ba565b9150506117d6565b50831515600d60009054906101000a900460ff16151514611b4b5783600d60006101000a81548160ff0219169083151502179055507ff3637cdf61687bb87179d2da614bc1f4aa93c3cbf40282ccd0a15ecad9184cc184604051611b429190614951565b60405180910390a15b50505050565b6060600c60008373ffffffffffffffffffffffffffffffffffffffff1673ffffffffffffffffffffffffffffffffffffffff168152602001908152602001600020805480602002602001604051908101604052809291908181526020018280548015611bdc57602002820191906000526020600020905b815481526020019060010190808311611bc8575b50505050509050919050565b606060018054611bf790615088565b80601f0160208091040260200160405190810160405280929190818152602001828054611c2390615088565b8015611c705780601f10611c4557610100808354040283529160200191611c70565b820191906000526020600020905b815481529060010190602001808311611c5357829003601f168201915b5050505050905090565b60128054611c8790615088565b80601f0160208091040260200160405190810160405280929190818152602001828054611cb390615088565b8015611d005780601f10611cd557610100808354040283529160200191611d00565b820191906000526020600020905b815481529060010190602001808311611ce357829003601f168201915b505050505081565b611d106128c6565b73ffffffffffffffffffffffffffffffffffffffff16611d2e611711565b73ffffffffffffffffffffffffffffffffffffffff1614611d84576040517f08c379a0000000000000000000000000000000000000000000000000000000008152600401611d7b90614b6e565b60405180910390fd5b8060129080519060200190611d9a9291906137df565b5050565b611da66128c6565b73ffffffffffffffffffffffffffffffffffffffff168273ffffffffffffffffffffffffffffffffffffffff161415611e14576040517f08c379a0000000000000000000000000000000000000000000000000000000008152600401611e0b90614a2e565b60405180910390fd5b8060056000611e216128c6565b73ffffffffffffffffffffffffffffffffffffffff1673ffffffffffffffffffffffffffffffffffffffff16815260200190815260200160002060008473ffffffffffffffffffffffffffffffffffffffff1673ffffffffffffffffffffffffffffffffffffffff16815260200190815260200160002060006101000a81548160ff0219169083151502179055508173ffffffffffffffffffffffffffffffffffffffff16611ece6128c6565b73ffffffffffffffffffffffffffffffffffffffff167f17307eab39ab6107e8899845ad3d59bd9653f200f220920489ca2b5937696c3183604051611f139190614951565b60405180910390a35050565b6000611f2a82611b51565b905060005b8151811015611f9457611f81828281518110611f74577f4e487b7100000000000000000000000000000000000000000000000000000000600052603260045260246000fd5b60200260200101516132f6565b8080611f8c906150ba565b915050611f2f565b505050565b6000600d60009054906101000a900460ff16905090565b611fc1611fbb6128c6565b83612987565b612000576040517f08c379a0000000000000000000000000000000000000000000000000000000008152600401611ff790614c4e565b60405180910390fd5b61200c848484846133ab565b50505050565b600061201c6121ed565b1161205c576040517f08c379a000000000000000000000000000000000000000000000000000000000815260040161205390614c0e565b60405180910390fd5b8034101561209f576040517f08c379a000000000000000000000000000000000000000000000000000000000815260040161209690614bee565b60405180910390fd5b34600e60008282546120b19190614e81565b925050819055506120c06121ed565b346120cb9190614ed7565b6011546120d89190614e81565b60118190555050565b6120e96128c6565b73ffffffffffffffffffffffffffffffffffffffff16612107611711565b73ffffffffffffffffffffffffffffffffffffffff161461215d576040517f08c379a000000000000000000000000000000000000000000000000000000000815260040161215490614b6e565b60405180910390fd5b6010548111156121a2576040517f08c379a000000000000000000000000000000000000000000000000000000000815260040161219990614aee565b60405180910390fd5b8173ffffffffffffffffffffffffffffffffffffffff166108fc829081150290604051600060405180830381858888f193505050501580156121e8573d6000803e3d6000fd5b505050565b60006121f960076130e2565b905090565b60606122098261285a565b612248576040517f08c379a000000000000000000000000000000000000000000000000000000000815260040161223f90614bce565b60405180910390fd5b60096000838152602001908152602001600020600201805461226990615088565b80601f016020809104026020016040519081016040528092919081815260200182805461229590615088565b80156122e25780601f106122b7576101008083540402835291602001916122e2565b820191906000526020600020905b8154815290600101906020018083116122c557829003601f168201915b50505050509050919050565b6000600d60009054906101000a900460ff1680612344575061230e611711565b73ffffffffffffffffffffffffffffffffffffffff1661232c6128c6565b73ffffffffffffffffffffffffffffffffffffffff16145b612383576040517f08c379a000000000000000000000000000000000000000000000000000000000815260040161237a90614b2e565b60405180910390fd5b816008546123919190614f08565b3410156123d3576040517f08c379a00000000000000000000000000000000000000000000000000000000081526004016123ca90614a4e565b60405180910390fd5b60006123df60076130e2565b905034601060008282546123f39190614e81565b9250508190555060005b8381101561263a5760145461241260076130e2565b1115612453576040517f08c379a000000000000000000000000000000000000000000000000000000000815260040161244a9061498e565b60405180910390fd5b61245d60076130f0565b61246760076130e2565b91506124733383613106565b60405180606001604052808381526020013373ffffffffffffffffffffffffffffffffffffffff16815260200160126124ab85613124565b6040516020016124bc9291906148a4565b604051602081830303815290604052815250600960008481526020019081526020016000206000820151816000015560208201518160010160006101000a81548173ffffffffffffffffffffffffffffffffffffffff021916908373ffffffffffffffffffffffffffffffffffffffff160217905550604082015181600201908051906020019061254e9291906137df565b50905050600c600061255e6128c6565b73ffffffffffffffffffffffffffffffffffffffff1673ffffffffffffffffffffffffffffffffffffffff16815260200190815260200160002082908060018154018082558091505060019003906000526020600020016000909190919091505560115460136000848152602001908152602001600020819055503373ffffffffffffffffffffffffffffffffffffffff167fa9a8fc8429e9d4b8fe54b38fd34cb56aaa1a9bf6eb605f45b223b08b58b976188360405161261f9190614cae565b60405180910390a28080612632906150ba565b9150506123fd565b5080915050919050565b600b6020528060005260406000206000915054906101000a900460ff1681565b6000600560008473ffffffffffffffffffffffffffffffffffffffff1673ffffffffffffffffffffffffffffffffffffffff16815260200190815260200160002060008373ffffffffffffffffffffffffffffffffffffffff1673ffffffffffffffffffffffffffffffffffffffff16815260200190815260200160002060009054906101000a900460ff16905092915050565b6127006128c6565b73ffffffffffffffffffffffffffffffffffffffff1661271e611711565b73ffffffffffffffffffffffffffffffffffffffff1614612774576040517f08c379a000000000000000000000000000000000000000000000000000000000815260040161276b90614b6e565b60405180910390fd5b600073ffffffffffffffffffffffffffffffffffffffff168173ffffffffffffffffffffffffffffffffffffffff1614156127e4576040517f08c379a00000000000000000000000000000000000000000000000000000000081526004016127db906149ce565b60405180910390fd5b6127ed8161301c565b50565b60007f01ffc9a7000000000000000000000000000000000000000000000000000000007bffffffffffffffffffffffffffffffffffffffffffffffffffffffff1916827bffffffffffffffffffffffffffffffffffffffffffffffffffffffff1916149050919050565b60008073ffffffffffffffffffffffffffffffffffffffff166002600084815260200190815260200160002060009054906101000a900473ffffffffffffffffffffffffffffffffffffffff1673ffffffffffffffffffffffffffffffffffffffff1614159050919050565b600033905090565b816004600083815260200190815260200160002060006101000a81548173ffffffffffffffffffffffffffffffffffffffff021916908373ffffffffffffffffffffffffffffffffffffffff160217905550808273ffffffffffffffffffffffffffffffffffffffff16612941836111e7565b73ffffffffffffffffffffffffffffffffffffffff167f8c5be1e5ebec7d5bd14f71427d1e84f3dd0314c0f7b2291e5b200ac8c7c3b92560405160405180910390a45050565b60006129928261285a565b6129d1576040517f08c379a00000000000000000000000000000000000000000000000000000000081526004016129c890614a6e565b60405180910390fd5b60006129dc836111e7565b90508073ffffffffffffffffffffffffffffffffffffffff168473ffffffffffffffffffffffffffffffffffffffff161480612a4b57508373ffffffffffffffffffffffffffffffffffffffff16612a3384610bd2565b73ffffffffffffffffffffffffffffffffffffffff16145b80612a5c5750612a5b8185612664565b5b91505092915050565b8273ffffffffffffffffffffffffffffffffffffffff16612a85826111e7565b73ffffffffffffffffffffffffffffffffffffffff1614612adb576040517f08c379a0000000000000000000000000000000000000000000000000000000008152600401612ad290614bae565b60405180910390fd5b600073ffffffffffffffffffffffffffffffffffffffff168273ffffffffffffffffffffffffffffffffffffffff161415612b4b576040517f08c379a0000000000000000000000000000000000000000000000000000000008152600401612b4290614a0e565b60405180910390fd5b612b56838383613407565b612b61600082610c57565b6001600360008573ffffffffffffffffffffffffffffffffffffffff1673ffffffffffffffffffffffffffffffffffffffff1681526020019081526020016000206000828254612bb19190614f62565b925050819055506001600360008473ffffffffffffffffffffffffffffffffffffffff1673ffffffffffffffffffffffffffffffffffffffff1681526020019081526020016000206000828254612c089190614e81565b92505081905550816002600083815260200190815260200160002060006101000a81548173ffffffffffffffffffffffffffffffffffffffff021916908373ffffffffffffffffffffffffffffffffffffffff16021790555060005b600c60008573ffffffffffffffffffffffffffffffffffffffff1673ffffffffffffffffffffffffffffffffffffffff16815260200190815260200160002080549050811015612f2b5781600c60008673ffffffffffffffffffffffffffffffffffffffff1673ffffffffffffffffffffffffffffffffffffffff1681526020019081526020016000208281548110612d26577f4e487b7100000000000000000000000000000000000000000000000000000000600052603260045260246000fd5b90600052602060002001541415612f1857600c60008573ffffffffffffffffffffffffffffffffffffffff1673ffffffffffffffffffffffffffffffffffffffff1681526020019081526020016000206001600c60008773ffffffffffffffffffffffffffffffffffffffff1673ffffffffffffffffffffffffffffffffffffffff16815260200190815260200160002080549050612dc59190614f62565b81548110612dfc577f4e487b7100000000000000000000000000000000000000000000000000000000600052603260045260246000fd5b9060005260206000200154600c60008673ffffffffffffffffffffffffffffffffffffffff1673ffffffffffffffffffffffffffffffffffffffff1681526020019081526020016000208281548110612e7e577f4e487b7100000000000000000000000000000000000000000000000000000000600052603260045260246000fd5b9060005260206000200181905550600c60008573ffffffffffffffffffffffffffffffffffffffff1673ffffffffffffffffffffffffffffffffffffffff168152602001908152602001600020805480612f01577f4e487b7100000000000000000000000000000000000000000000000000000000600052603160045260246000fd5b600190038181906000526020600020016000905590555b8080612f23906150ba565b915050612c64565b50600c60008373ffffffffffffffffffffffffffffffffffffffff1673ffffffffffffffffffffffffffffffffffffffff168152602001908152602001600020819080600181540180825580915050600190039060005260206000200160009091909190915055808273ffffffffffffffffffffffffffffffffffffffff168473ffffffffffffffffffffffffffffffffffffffff167fddf252ad1be2c89b69c2b068fc378daa952ba7f163c4a11628f55a4df523b3ef60405160405180910390a4505050565b600060136000838152602001908152602001600020546011546130159190614f62565b9050919050565b6000600660009054906101000a900473ffffffffffffffffffffffffffffffffffffffff16905081600660006101000a81548173ffffffffffffffffffffffffffffffffffffffff021916908373ffffffffffffffffffffffffffffffffffffffff1602179055508173ffffffffffffffffffffffffffffffffffffffff168173ffffffffffffffffffffffffffffffffffffffff167f8be0079c531659141344cd1fd0a4f28419497f9722a3daafe3b4186f6b6457e060405160405180910390a35050565b600081600001549050919050565b6001816000016000828254019250508190555050565b61312082826040518060200160405280600081525061340c565b5050565b6060600082141561316c576040518060400160405280600181526020017f300000000000000000000000000000000000000000000000000000000000000081525090506132f1565b600082905060005b6000821461319e578080613187906150ba565b915050600a826131979190614ed7565b9150613174565b60008167ffffffffffffffff8111156131e0577f4e487b7100000000000000000000000000000000000000000000000000000000600052604160045260246000fd5b6040519080825280601f01601f1916602001820160405280156132125781602001600182028036833780820191505090505b50905060008290508593505b600084146132ca57600a846132339190615103565b603061323f9190614e81565b60f81b828261324d9061505e565b92508281518110613287577f4e487b7100000000000000000000000000000000000000000000000000000000600052603260045260246000fd5b60200101907effffffffffffffffffffffffffffffffffffffffffffffffffffffffffffff1916908160001a905350600a846132c39190614ed7565b935061321e565b816040516020016132db9190614882565b6040516020818303038152906040529450505050505b919050565b600060136000838152602001908152602001600020546011546133199190614f62565b905060008111156133a757601154601360008481526020019081526020016000208190555080600f60008282546133509190614e81565b92505081905550613360826111e7565b73ffffffffffffffffffffffffffffffffffffffff166108fc829081150290604051600060405180830381858888f193505050501580156133a5573d6000803e3d6000fd5b505b5050565b6133b6848484612a65565b6133c284848484613467565b613401576040517f08c379a00000000000000000000000000000000000000000000000000000000081526004016133f8906149ae565b60405180910390fd5b50505050565b505050565b61341683836135fe565b6134236000848484613467565b613462576040517f08c379a0000000000000000000000000000000000000000000000000000000008152600401613459906149ae565b60405180910390fd5b505050565b60006134888473ffffffffffffffffffffffffffffffffffffffff166137cc565b156135f1578373ffffffffffffffffffffffffffffffffffffffff1663150b7a026134b16128c6565b8786866040518563ffffffff1660e01b81526004016134d394939291906148e3565b602060405180830381600087803b1580156134ed57600080fd5b505af192505050801561351e57506040513d601f19601f8201168201806040525081019061351b9190613d87565b60015b6135a1573d806000811461354e576040519150601f19603f3d011682016040523d82523d6000602084013e613553565b606091505b50600081511415613599576040517f08c379a0000000000000000000000000000000000000000000000000000000008152600401613590906149ae565b60405180910390fd5b805181602001fd5b63150b7a0260e01b7bffffffffffffffffffffffffffffffffffffffffffffffffffffffff1916817bffffffffffffffffffffffffffffffffffffffffffffffffffffffff1916149150506135f6565b600190505b949350505050565b600073ffffffffffffffffffffffffffffffffffffffff168273ffffffffffffffffffffffffffffffffffffffff16141561366e576040517f08c379a000000000000000000000000000000000000000000000000000000000815260040161366590614b0e565b60405180910390fd5b6136778161285a565b156136b7576040517f08c379a00000000000000000000000000000000000000000000000000000000081526004016136ae906149ee565b60405180910390fd5b6136c360008383613407565b6001600360008473ffffffffffffffffffffffffffffffffffffffff1673ffffffffffffffffffffffffffffffffffffffff16815260200190815260200160002060008282546137139190614e81565b92505081905550816002600083815260200190815260200160002060006101000a81548173ffffffffffffffffffffffffffffffffffffffff021916908373ffffffffffffffffffffffffffffffffffffffff160217905550808273ffffffffffffffffffffffffffffffffffffffff16600073ffffffffffffffffffffffffffffffffffffffff167fddf252ad1be2c89b69c2b068fc378daa952ba7f163c4a11628f55a4df523b3ef60405160405180910390a45050565b600080823b905060008111915050919050565b8280546137eb90615088565b90600052602060002090601f01602090048101928261380d5760008555613854565b82601f1061382657805160ff1916838001178555613854565b82800160010185558215613854579182015b82811115613853578251825591602001919060010190613838565b5b5090506138619190613865565b5090565b5b8082111561387e576000816000905550600101613866565b5090565b600061389561389084614d38565b614d07565b905080838252602082019050828560208602820111156138b457600080fd5b60005b858110156138e457816138ca88826139d6565b8452602084019350602083019250506001810190506138b7565b5050509392505050565b60006139016138fc84614d64565b614d07565b9050808382526020820190508285602086028201111561392057600080fd5b60005b8581101561395057816139368882613ae7565b845260208401935060208301925050600181019050613923565b5050509392505050565b600061396d61396884614d90565b614d07565b90508281526020810184848401111561398557600080fd5b61399084828561501c565b509392505050565b60006139ab6139a684614dc0565b614d07565b9050828152602081018484840111156139c357600080fd5b6139ce84828561501c565b509392505050565b6000813590506139e581615201565b92915050565b6000813590506139fa81615218565b92915050565b600082601f830112613a1157600080fd5b8135613a21848260208601613882565b91505092915050565b600082601f830112613a3b57600080fd5b8135613a4b8482602086016138ee565b91505092915050565b600081359050613a638161522f565b92915050565b600081359050613a7881615246565b92915050565b600081519050613a8d81615246565b92915050565b600082601f830112613aa457600080fd5b8135613ab484826020860161395a565b91505092915050565b600082601f830112613ace57600080fd5b8135613ade848260208601613998565b91505092915050565b600081359050613af68161525d565b92915050565b600060208284031215613b0e57600080fd5b6000613b1c848285016139d6565b91505092915050565b60008060408385031215613b3857600080fd5b6000613b46858286016139eb565b9250506020613b5785828601613ae7565b9150509250929050565b60008060408385031215613b7457600080fd5b6000613b82858286016139d6565b9250506020613b93858286016139d6565b9150509250929050565b600080600060608486031215613bb257600080fd5b6000613bc0868287016139d6565b9350506020613bd1868287016139d6565b9250506040613be286828701613ae7565b9150509250925092565b60008060008060808587031215613c0257600080fd5b6000613c10878288016139d6565b9450506020613c21878288016139d6565b9350506040613c3287828801613ae7565b925050606085013567ffffffffffffffff811115613c4f57600080fd5b613c5b87828801613a93565b91505092959194509250565b60008060408385031215613c7a57600080fd5b6000613c88858286016139d6565b9250506020613c9985828601613a54565b9150509250929050565b60008060408385031215613cb657600080fd5b6000613cc4858286016139d6565b9250506020613cd585828601613ae7565b9150509250929050565b600080600060608486031215613cf457600080fd5b6000613d0286828701613a54565b935050602084013567ffffffffffffffff811115613d1f57600080fd5b613d2b86828701613a00565b925050604084013567ffffffffffffffff811115613d4857600080fd5b613d5486828701613a2a565b9150509250925092565b600060208284031215613d7057600080fd5b6000613d7e84828501613a69565b91505092915050565b600060208284031215613d9957600080fd5b6000613da784828501613a7e565b91505092915050565b600060208284031215613dc257600080fd5b600082013567ffffffffffffffff811115613ddc57600080fd5b613de884828501613abd565b91505092915050565b600060208284031215613e0357600080fd5b6000613e1184828501613ae7565b91505092915050565b6000613e268383614864565b60208301905092915050565b613e3b81614f96565b82525050565b6000613e4c82614e15565b613e568185614e43565b9350613e6183614df0565b8060005b83811015613e92578151613e798882613e1a565b9750613e8483614e36565b925050600181019050613e65565b5085935050505092915050565b613ea881614fba565b82525050565b6000613eb982614e20565b613ec38185614e54565b9350613ed381856020860161502b565b613edc816151f0565b840191505092915050565b6000613ef282614e2b565b613efc8185614e65565b9350613f0c81856020860161502b565b613f15816151f0565b840191505092915050565b6000613f2b82614e2b565b613f358185614e76565b9350613f4581856020860161502b565b80840191505092915050565b60008154613f5e81615088565b613f688186614e76565b94506001821660008114613f835760018114613f9457613fc7565b60ff19831686528186019350613fc7565b613f9d85614e00565b60005b83811015613fbf57815481890152600182019150602081019050613fa0565b838801955050505b50505092915050565b6000613fdd600c83614e65565b91507f6d696e74696e67206f76657200000000000000000000000000000000000000006000830152602082019050919050565b600061401d603283614e65565b91507f4552433732313a207472616e7366657220746f206e6f6e20455243373231526560008301527f63656976657220696d706c656d656e74657200000000000000000000000000006020830152604082019050919050565b6000614083602683614e65565b91507f4f776e61626c653a206e6577206f776e657220697320746865207a65726f206160008301527f64647265737300000000000000000000000000000000000000000000000000006020830152604082019050919050565b60006140e9601c83614e65565b91507f4552433732313a20746f6b656e20616c7265616479206d696e746564000000006000830152602082019050919050565b6000614129602483614e65565b91507f4552433732313a207472616e7366657220746f20746865207a65726f2061646460008301527f72657373000000000000000000000000000000000000000000000000000000006020830152604082019050919050565b600061418f601983614e65565b91507f4552433732313a20617070726f766520746f2063616c6c6572000000000000006000830152602082019050919050565b60006141cf601983614e65565b91507f696e737566696369656e74206d696e74696e672066756e6473000000000000006000830152602082019050919050565b600061420f602c83614e65565b91507f4552433732313a206f70657261746f7220717565727920666f72206e6f6e657860008301527f697374656e7420746f6b656e00000000000000000000000000000000000000006020830152604082019050919050565b6000614275603883614e65565b91507f4552433732313a20617070726f76652063616c6c6572206973206e6f74206f7760008301527f6e6572206e6f7220617070726f76656420666f7220616c6c00000000000000006020830152604082019050919050565b60006142db602a83614e65565b91507f4552433732313a2062616c616e636520717565727920666f7220746865207a6560008301527f726f2061646472657373000000000000000000000000000000000000000000006020830152604082019050919050565b6000614341602983614e65565b91507f4552433732313a206f776e657220717565727920666f72206e6f6e657869737460008301527f656e7420746f6b656e00000000000000000000000000000000000000000000006020830152604082019050919050565b60006143a7601183614e65565b91507f696e737566696369656e742066756e64730000000000000000000000000000006000830152602082019050919050565b60006143e7602083614e65565b91507f4552433732313a206d696e7420746f20746865207a65726f20616464726573736000830152602082019050919050565b6000614427601b83614e65565b91507f53616c65206861736e74206265656e20737461727465642079657400000000006000830152602082019050919050565b6000614467602c83614e65565b91507f4552433732313a20617070726f76656420717565727920666f72206e6f6e657860008301527f697374656e7420746f6b656e00000000000000000000000000000000000000006020830152604082019050919050565b60006144cd602083614e65565b91507f4f776e61626c653a2063616c6c6572206973206e6f7420746865206f776e65726000830152602082019050919050565b600061450d602183614e65565b91507f2075736572416464726573732020697320746865207a65726f2061646472657360008301527f73000000000000000000000000000000000000000000000000000000000000006020830152604082019050919050565b6000614573602983614e65565b91507f4552433732313a207472616e73666572206f6620746f6b656e2074686174206960008301527f73206e6f74206f776e00000000000000000000000000000000000000000000006020830152604082019050919050565b60006145d9602f83614e65565b91507f4552433732314d657461646174613a2055524920717565727920666f72206e6f60008301527f6e6578697374656e7420746f6b656e00000000000000000000000000000000006020830152604082019050919050565b600061463f601083614e65565b91507f696e737566696369656e742066756e64000000000000000000000000000000006000830152602082019050919050565b600061467f600d83614e65565b91507f6e6f206e6674206d696e746564000000000000000000000000000000000000006000830152602082019050919050565b60006146bf602183614e65565b91507f4552433732313a20617070726f76616c20746f2063757272656e74206f776e6560008301527f72000000000000000000000000000000000000000000000000000000000000006020830152604082019050919050565b6000614725603183614e65565b91507f4552433732313a207472616e736665722063616c6c6572206973206e6f74206f60008301527f776e6572206e6f7220617070726f7665640000000000000000000000000000006020830152604082019050919050565b600061478b600483614e76565b91507f2e6a7067000000000000000000000000000000000000000000000000000000006000830152600482019050919050565b60006147cb602283614e65565b91507f2061646d696e204164647265737320697320746865207a65726f20616464726560008301527f73730000000000000000000000000000000000000000000000000000000000006020830152604082019050919050565b6000614831601f83614e65565b91507f2063616c6c657220686173206e6f206d696e74696e67207269676874212121006000830152602082019050919050565b61486d81615012565b82525050565b61487c81615012565b82525050565b600061488e8284613f20565b91506148998261477e565b915081905092915050565b60006148b08285613f51565b91506148bc8284613f20565b91508190509392505050565b60006020820190506148dd6000830184613e32565b92915050565b60006080820190506148f86000830187613e32565b6149056020830186613e32565b6149126040830185614873565b81810360608301526149248184613eae565b905095945050505050565b600060208201905081810360008301526149498184613e41565b905092915050565b60006020820190506149666000830184613e9f565b92915050565b600060208201905081810360008301526149868184613ee7565b905092915050565b600060208201905081810360008301526149a781613fd0565b9050919050565b600060208201905081810360008301526149c781614010565b9050919050565b600060208201905081810360008301526149e781614076565b9050919050565b60006020820190508181036000830152614a07816140dc565b9050919050565b60006020820190508181036000830152614a278161411c565b9050919050565b60006020820190508181036000830152614a4781614182565b9050919050565b60006020820190508181036000830152614a67816141c2565b9050919050565b60006020820190508181036000830152614a8781614202565b9050919050565b60006020820190508181036000830152614aa781614268565b9050919050565b60006020820190508181036000830152614ac7816142ce565b9050919050565b60006020820190508181036000830152614ae781614334565b9050919050565b60006020820190508181036000830152614b078161439a565b9050919050565b60006020820190508181036000830152614b27816143da565b9050919050565b60006020820190508181036000830152614b478161441a565b9050919050565b60006020820190508181036000830152614b678161445a565b9050919050565b60006020820190508181036000830152614b87816144c0565b9050919050565b60006020820190508181036000830152614ba781614500565b9050919050565b60006020820190508181036000830152614bc781614566565b9050919050565b60006020820190508181036000830152614be7816145cc565b9050919050565b60006020820190508181036000830152614c0781614632565b9050919050565b60006020820190508181036000830152614c2781614672565b9050919050565b60006020820190508181036000830152614c47816146b2565b9050919050565b60006020820190508181036000830152614c6781614718565b9050919050565b60006020820190508181036000830152614c87816147be565b9050919050565b60006020820190508181036000830152614ca781614824565b9050919050565b6000602082019050614cc36000830184614873565b92915050565b6000606082019050614cde6000830186614873565b614ceb6020830185613e32565b8181036040830152614cfd8184613ee7565b9050949350505050565b6000604051905081810181811067ffffffffffffffff82111715614d2e57614d2d6151c1565b5b8060405250919050565b600067ffffffffffffffff821115614d5357614d526151c1565b5b602082029050602081019050919050565b600067ffffffffffffffff821115614d7f57614d7e6151c1565b5b602082029050602081019050919050565b600067ffffffffffffffff821115614dab57614daa6151c1565b5b601f19601f8301169050602081019050919050565b600067ffffffffffffffff821115614ddb57614dda6151c1565b5b601f19601f8301169050602081019050919050565b6000819050602082019050919050565b60008190508160005260206000209050919050565b600081519050919050565b600081519050919050565b600081519050919050565b6000602082019050919050565b600082825260208201905092915050565b600082825260208201905092915050565b600082825260208201905092915050565b600081905092915050565b6000614e8c82615012565b9150614e9783615012565b9250827fffffffffffffffffffffffffffffffffffffffffffffffffffffffffffffffff03821115614ecc57614ecb615134565b5b828201905092915050565b6000614ee282615012565b9150614eed83615012565b925082614efd57614efc615163565b5b828204905092915050565b6000614f1382615012565b9150614f1e83615012565b9250817fffffffffffffffffffffffffffffffffffffffffffffffffffffffffffffffff0483118215151615614f5757614f56615134565b5b828202905092915050565b6000614f6d82615012565b9150614f7883615012565b925082821015614f8b57614f8a615134565b5b828203905092915050565b6000614fa182614ff2565b9050919050565b6000614fb382614ff2565b9050919050565b60008115159050919050565b60007fffffffff0000000000000000000000000000000000000000000000000000000082169050919050565b600073ffffffffffffffffffffffffffffffffffffffff82169050919050565b6000819050919050565b82818337600083830152505050565b60005b8381101561504957808201518184015260208101905061502e565b83811115615058576000848401525b50505050565b600061506982615012565b9150600082141561507d5761507c615134565b5b600182039050919050565b600060028204905060018216806150a057607f821691505b602082108114156150b4576150b3615192565b5b50919050565b60006150c582615012565b91507fffffffffffffffffffffffffffffffffffffffffffffffffffffffffffffffff8214156150f8576150f7615134565b5b600182019050919050565b600061510e82615012565b915061511983615012565b92508261512957615128615163565b5b828206905092915050565b7f4e487b7100000000000000000000000000000000000000000000000000000000600052601160045260246000fd5b7f4e487b7100000000000000000000000000000000000000000000000000000000600052601260045260246000fd5b7f4e487b7100000000000000000000000000000000000000000000000000000000600052602260045260246000fd5b7f4e487b7100000000000000000000000000000000000000000000000000000000600052604160045260246000fd5b6000601f19601f8301169050919050565b61520a81614f96565b811461521557600080fd5b50565b61522181614fa8565b811461522c57600080fd5b50565b61523881614fba565b811461524357600080fd5b50565b61524f81614fc6565b811461525a57600080fd5b50565b61526681615012565b811461527157600080fd5b5056fea26469706673582212201174efeb8889e2ac722f63aadee7e9132d900f3ffd86b2485e91243241b68ae964736f6c63430008000033",
  "immutableReferences": {},
  "source": "pragma solidity ^0.8.0;\r\n\r\n/*\r\n * @dev Provides information about the current execution context, including the\r\n * sender of the transaction and its data. While these are generally available\r\n * via msg.sender and msg.data, they should not be accessed in such a direct\r\n * manner, since when dealing with meta-transactions the account sending and\r\n * paying for execution may not be the actual sender (as far as an application\r\n * is concerned).\r\n *\r\n * This contract is only required for intermediate, library-like contracts.\r\n */\r\nabstract contract Context {\r\n    function _msgSender() internal view virtual returns (address) {\r\n        return msg.sender;\r\n    }\r\n\r\n    function _msgData() internal view virtual returns (bytes calldata) {\r\n        return msg.data;\r\n    }\r\n}\r\npragma solidity ^0.8.0;\r\n\r\n/**\r\n * @dev Collection of functions related to the address type\r\n */\r\nlibrary Address {\r\n    /**\r\n     * @dev Returns true if `account` is a contract.\r\n     *\r\n     * [IMPORTANT]\r\n     * ====\r\n     * It is unsafe to assume that an address for which this function returns\r\n     * false is an externally-owned account (EOA) and not a contract.\r\n     *\r\n     * Among others, `isContract` will return false for the following\r\n     * types of addresses:\r\n     *\r\n     *  - an externally-owned account\r\n     *  - a contract in construction\r\n     *  - an address where a contract will be created\r\n     *  - an address where a contract lived, but was destroyed\r\n     * ====\r\n     */\r\n    function isContract(address account) internal view returns (bool) {\r\n        // This method relies on extcodesize, which returns 0 for contracts in\r\n        // construction, since the code is only stored at the end of the\r\n        // constructor execution.\r\n\r\n        uint256 size;\r\n        assembly {\r\n            size := extcodesize(account)\r\n        }\r\n        return size > 0;\r\n    }\r\n\r\n    /**\r\n     * @dev Replacement for Solidity's `transfer`: sends `amount` wei to\r\n     * `recipient`, forwarding all available gas and reverting on errors.\r\n     *\r\n     * https://eips.ethereum.org/EIPS/eip-1884[EIP1884] increases the gas cost\r\n     * of certain opcodes, possibly making contracts go over the 2300 gas limit\r\n     * imposed by `transfer`, making them unable to receive funds via\r\n     * `transfer`. {sendValue} removes this limitation.\r\n     *\r\n     * https://diligence.consensys.net/posts/2019/09/stop-using-soliditys-transfer-now/[Learn more].\r\n     *\r\n     * IMPORTANT: because control is transferred to `recipient`, care must be\r\n     * taken to not create reentrancy vulnerabilities. Consider using\r\n     * {ReentrancyGuard} or the\r\n     * https://solidity.readthedocs.io/en/v0.5.11/security-considerations.html#use-the-checks-effects-interactions-pattern[checks-effects-interactions pattern].\r\n     */\r\n    function sendValue(address payable recipient, uint256 amount) internal {\r\n        require(\r\n            address(this).balance >= amount,\r\n            \"Address: insufficient balance\"\r\n        );\r\n\r\n        (bool success, ) = recipient.call{value: amount}(\"\");\r\n        require(\r\n            success,\r\n            \"Address: unable to send value, recipient may have reverted\"\r\n        );\r\n    }\r\n\r\n    /**\r\n     * @dev Performs a Solidity function call using a low level `call`. A\r\n     * plain `call` is an unsafe replacement for a function call: use this\r\n     * function instead.\r\n     *\r\n     * If `target` reverts with a revert reason, it is bubbled up by this\r\n     * function (like regular Solidity function calls).\r\n     *\r\n     * Returns the raw returned data. To convert to the expected return value,\r\n     * use https://solidity.readthedocs.io/en/latest/units-and-global-variables.html?highlight=abi.decode#abi-encoding-and-decoding-functions[`abi.decode`].\r\n     *\r\n     * Requirements:\r\n     *\r\n     * - `target` must be a contract.\r\n     * - calling `target` with `data` must not revert.\r\n     *\r\n     * _Available since v3.1._\r\n     */\r\n    function functionCall(address target, bytes memory data)\r\n        internal\r\n        returns (bytes memory)\r\n    {\r\n        return functionCall(target, data, \"Address: low-level call failed\");\r\n    }\r\n\r\n    /**\r\n     * @dev Same as {xref-Address-functionCall-address-bytes-}[`functionCall`], but with\r\n     * `errorMessage` as a fallback revert reason when `target` reverts.\r\n     *\r\n     * _Available since v3.1._\r\n     */\r\n    function functionCall(\r\n        address target,\r\n        bytes memory data,\r\n        string memory errorMessage\r\n    ) internal returns (bytes memory) {\r\n        return functionCallWithValue(target, data, 0, errorMessage);\r\n    }\r\n\r\n    /**\r\n     * @dev Same as {xref-Address-functionCall-address-bytes-}[`functionCall`],\r\n     * but also transferring `value` wei to `target`.\r\n     *\r\n     * Requirements:\r\n     *\r\n     * - the calling contract must have an ETH balance of at least `value`.\r\n     * - the called Solidity function must be `payable`.\r\n     *\r\n     * _Available since v3.1._\r\n     */\r\n    function functionCallWithValue(\r\n        address target,\r\n        bytes memory data,\r\n        uint256 value\r\n    ) internal returns (bytes memory) {\r\n        return\r\n            functionCallWithValue(\r\n                target,\r\n                data,\r\n                value,\r\n                \"Address: low-level call with value failed\"\r\n            );\r\n    }\r\n\r\n    /**\r\n     * @dev Same as {xref-Address-functionCallWithValue-address-bytes-uint256-}[`functionCallWithValue`], but\r\n     * with `errorMessage` as a fallback revert reason when `target` reverts.\r\n     *\r\n     * _Available since v3.1._\r\n     */\r\n    function functionCallWithValue(\r\n        address target,\r\n        bytes memory data,\r\n        uint256 value,\r\n        string memory errorMessage\r\n    ) internal returns (bytes memory) {\r\n        require(\r\n            address(this).balance >= value,\r\n            \"Address: insufficient balance for call\"\r\n        );\r\n        require(isContract(target), \"Address: call to non-contract\");\r\n\r\n        (bool success, bytes memory returndata) = target.call{value: value}(\r\n            data\r\n        );\r\n        return _verifyCallResult(success, returndata, errorMessage);\r\n    }\r\n\r\n    /**\r\n     * @dev Same as {xref-Address-functionCall-address-bytes-}[`functionCall`],\r\n     * but performing a static call.\r\n     *\r\n     * _Available since v3.3._\r\n     */\r\n    function functionStaticCall(address target, bytes memory data)\r\n        internal\r\n        view\r\n        returns (bytes memory)\r\n    {\r\n        return\r\n            functionStaticCall(\r\n                target,\r\n                data,\r\n                \"Address: low-level static call failed\"\r\n            );\r\n    }\r\n\r\n    /**\r\n     * @dev Same as {xref-Address-functionCall-address-bytes-string-}[`functionCall`],\r\n     * but performing a static call.\r\n     *\r\n     * _Available since v3.3._\r\n     */\r\n    function functionStaticCall(\r\n        address target,\r\n        bytes memory data,\r\n        string memory errorMessage\r\n    ) internal view returns (bytes memory) {\r\n        require(isContract(target), \"Address: static call to non-contract\");\r\n\r\n        (bool success, bytes memory returndata) = target.staticcall(data);\r\n        return _verifyCallResult(success, returndata, errorMessage);\r\n    }\r\n\r\n    /**\r\n     * @dev Same as {xref-Address-functionCall-address-bytes-}[`functionCall`],\r\n     * but performing a delegate call.\r\n     *\r\n     * _Available since v3.4._\r\n     */\r\n    function functionDelegateCall(address target, bytes memory data)\r\n        internal\r\n        returns (bytes memory)\r\n    {\r\n        return\r\n            functionDelegateCall(\r\n                target,\r\n                data,\r\n                \"Address: low-level delegate call failed\"\r\n            );\r\n    }\r\n\r\n    /**\r\n     * @dev Same as {xref-Address-functionCall-address-bytes-string-}[`functionCall`],\r\n     * but performing a delegate call.\r\n     *\r\n     * _Available since v3.4._\r\n     */\r\n    function functionDelegateCall(\r\n        address target,\r\n        bytes memory data,\r\n        string memory errorMessage\r\n    ) internal returns (bytes memory) {\r\n        require(isContract(target), \"Address: delegate call to non-contract\");\r\n\r\n        (bool success, bytes memory returndata) = target.delegatecall(data);\r\n        return _verifyCallResult(success, returndata, errorMessage);\r\n    }\r\n\r\n    function _verifyCallResult(\r\n        bool success,\r\n        bytes memory returndata,\r\n        string memory errorMessage\r\n    ) private pure returns (bytes memory) {\r\n        if (success) {\r\n            return returndata;\r\n        } else {\r\n            // Look for revert reason and bubble it up if present\r\n            if (returndata.length > 0) {\r\n                // The easiest way to bubble the revert reason is using memory via assembly\r\n\r\n                assembly {\r\n                    let returndata_size := mload(returndata)\r\n                    revert(add(32, returndata), returndata_size)\r\n                }\r\n            } else {\r\n                revert(errorMessage);\r\n            }\r\n        }\r\n    }\r\n}\r\npragma solidity ^0.8.0;\r\n\r\n/**\r\n * @title ERC721 token receiver interface\r\n * @dev Interface for any contract that wants to support safeTransfers\r\n * from ERC721 asset contracts.\r\n */\r\ninterface IERC721Receiver {\r\n    /**\r\n     * @dev Whenever an {IERC721} `tokenId` token is transferred to this contract via {IERC721-safeTransferFrom}\r\n     * by `operator` from `from`, this function is called.\r\n     *\r\n     * It must return its Solidity selector to confirm the token transfer.\r\n     * If any other value is returned or the interface is not implemented by the recipient, the transfer will be reverted.\r\n     *\r\n     * The selector can be obtained in Solidity with `IERC721.onERC721Received.selector`.\r\n     */\r\n    function onERC721Received(\r\n        address operator,\r\n        address from,\r\n        uint256 tokenId,\r\n        bytes calldata data\r\n    ) external returns (bytes4);\r\n}\r\npragma solidity ^0.8.0;\r\n\r\n/**\r\n * @dev Interface of the ERC165 standard, as defined in the\r\n * https://eips.ethereum.org/EIPS/eip-165[EIP].\r\n *\r\n * Implementers can declare support of contract interfaces, which can then be\r\n * queried by others ({ERC165Checker}).\r\n *\r\n * For an implementation, see {ERC165}.\r\n */\r\ninterface IERC165 {\r\n    /**\r\n     * @dev Returns true if this contract implements the interface defined by\r\n     * `interfaceId`. See the corresponding\r\n     * https://eips.ethereum.org/EIPS/eip-165#how-interfaces-are-identified[EIP section]\r\n     * to learn more about how these ids are created.\r\n     *\r\n     * This function call must use less than 30 000 gas.\r\n     */\r\n    function supportsInterface(bytes4 interfaceId) external view returns (bool);\r\n}\r\n\r\npragma solidity ^0.8.0;\r\n\r\n/**\r\n * @dev Implementation of the {IERC165} interface.\r\n *\r\n * Contracts that want to implement ERC165 should inherit from this contract and override {supportsInterface} to check\r\n * for the additional interface id that will be supported. For example:\r\n *\r\n * ```solidity\r\n * function supportsInterface(bytes4 interfaceId) public view virtual override returns (bool) {\r\n *     return interfaceId == type(MyInterface).interfaceId || super.supportsInterface(interfaceId);\r\n * }\r\n * ```\r\n *\r\n * Alternatively, {ERC165Storage} provides an easier to use but more expensive implementation.\r\n */\r\nabstract contract ERC165 is IERC165 {\r\n    /**\r\n     * @dev See {IERC165-supportsInterface}.\r\n     */\r\n    function supportsInterface(bytes4 interfaceId)\r\n        public\r\n        view\r\n        virtual\r\n        override\r\n        returns (bool)\r\n    {\r\n        return interfaceId == type(IERC165).interfaceId;\r\n    }\r\n}\r\n\r\npragma solidity ^0.8.0;\r\n\r\n/**\r\n * @dev Required interface of an ERC721 compliant contract.\r\n */\r\ninterface IERC721 is IERC165 {\r\n    /**\r\n     * @dev Emitted when `tokenId` token is transferred from `from` to `to`.\r\n     */\r\n    event Transfer(\r\n        address indexed from,\r\n        address indexed to,\r\n        uint256 indexed tokenId\r\n    );\r\n\r\n    /**\r\n     * @dev Emitted when `owner` enables `approved` to manage the `tokenId` token.\r\n     */\r\n    event Approval(\r\n        address indexed owner,\r\n        address indexed approved,\r\n        uint256 indexed tokenId\r\n    );\r\n\r\n    /**\r\n     * @dev Emitted when `owner` enables or disables (`approved`) `operator` to manage all of its assets.\r\n     */\r\n    event ApprovalForAll(\r\n        address indexed owner,\r\n        address indexed operator,\r\n        bool approved\r\n    );\r\n\r\n    /**\r\n     * @dev Returns the number of tokens in ``owner``'s account.\r\n     */\r\n    function balanceOf(address owner) external view returns (uint256 balance);\r\n\r\n    /**\r\n     * @dev Returns the owner of the `tokenId` token.\r\n     *\r\n     * Requirements:\r\n     *\r\n     * - `tokenId` must exist.\r\n     */\r\n    function ownerOf(uint256 tokenId) external view returns (address owner);\r\n\r\n    /**\r\n     * @dev Safely transfers `tokenId` token from `from` to `to`, checking first that contract recipients\r\n     * are aware of the ERC721 protocol to prevent tokens from being forever locked.\r\n     *\r\n     * Requirements:\r\n     *\r\n     * - `from` cannot be the zero address.\r\n     * - `to` cannot be the zero address.\r\n     * - `tokenId` token must exist and be owned by `from`.\r\n     * - If the caller is not `from`, it must be have been allowed to move this token by either {approve} or {setApprovalForAll}.\r\n     * - If `to` refers to a smart contract, it must implement {IERC721Receiver-onERC721Received}, which is called upon a safe transfer.\r\n     *\r\n     * Emits a {Transfer} event.\r\n     */\r\n    function safeTransferFrom(\r\n        address from,\r\n        address to,\r\n        uint256 tokenId\r\n    ) external;\r\n\r\n    /**\r\n     * @dev Transfers `tokenId` token from `from` to `to`.\r\n     *\r\n     * WARNING: Usage of this method is discouraged, use {safeTransferFrom} whenever possible.\r\n     *\r\n     * Requirements:\r\n     *\r\n     * - `from` cannot be the zero address.\r\n     * - `to` cannot be the zero address.\r\n     * - `tokenId` token must be owned by `from`.\r\n     * - If the caller is not `from`, it must be approved to move this token by either {approve} or {setApprovalForAll}.\r\n     *\r\n     * Emits a {Transfer} event.\r\n     */\r\n    function transferFrom(\r\n        address from,\r\n        address to,\r\n        uint256 tokenId\r\n    ) external;\r\n\r\n    /**\r\n     * @dev Gives permission to `to` to transfer `tokenId` token to another account.\r\n     * The approval is cleared when the token is transferred.\r\n     *\r\n     * Only a single account can be approved at a time, so approving the zero address clears previous approvals.\r\n     *\r\n     * Requirements:\r\n     *\r\n     * - The caller must own the token or be an approved operator.\r\n     * - `tokenId` must exist.\r\n     *\r\n     * Emits an {Approval} event.\r\n     */\r\n    function approve(address to, uint256 tokenId) external;\r\n\r\n    /**\r\n     * @dev Returns the account approved for `tokenId` token.\r\n     *\r\n     * Requirements:\r\n     *\r\n     * - `tokenId` must exist.\r\n     */\r\n    function getApproved(uint256 tokenId)\r\n        external\r\n        view\r\n        returns (address operator);\r\n\r\n    /**\r\n     * @dev Approve or remove `operator` as an operator for the caller.\r\n     * Operators can call {transferFrom} or {safeTransferFrom} for any token owned by the caller.\r\n     *\r\n     * Requirements:\r\n     *\r\n     * - The `operator` cannot be the caller.\r\n     *\r\n     * Emits an {ApprovalForAll} event.\r\n     */\r\n    function setApprovalForAll(address operator, bool _approved) external;\r\n\r\n    /**\r\n     * @dev Returns if the `operator` is allowed to manage all of the assets of `owner`.\r\n     *\r\n     * See {setApprovalForAll}\r\n     */\r\n    function isApprovedForAll(address owner, address operator)\r\n        external\r\n        view\r\n        returns (bool);\r\n\r\n    /**\r\n     * @dev Safely transfers `tokenId` token from `from` to `to`.\r\n     *\r\n     * Requirements:\r\n     *\r\n     * - `from` cannot be the zero address.\r\n     * - `to` cannot be the zero address.\r\n     * - `tokenId` token must exist and be owned by `from`.\r\n     * - If the caller is not `from`, it must be approved to move this token by either {approve} or {setApprovalForAll}.\r\n     * - If `to` refers to a smart contract, it must implement {IERC721Receiver-onERC721Received}, which is called upon a safe transfer.\r\n     *\r\n     * Emits a {Transfer} event.\r\n     */\r\n    function safeTransferFrom(\r\n        address from,\r\n        address to,\r\n        uint256 tokenId,\r\n        bytes calldata data\r\n    ) external;\r\n}\r\npragma solidity ^0.8.0;\r\n\r\n/**\r\n * @title ERC-721 Non-Fungible Token Standard, optional metadata extension\r\n * @dev See https://eips.ethereum.org/EIPS/eip-721\r\n */\r\ninterface IERC721Metadata is IERC721 {\r\n    /**\r\n     * @dev Returns the token collection name.\r\n     */\r\n    function name() external view returns (string memory);\r\n\r\n    /**\r\n     * @dev Returns the token collection symbol.\r\n     */\r\n    function symbol() external view returns (string memory);\r\n\r\n    /**\r\n     * @dev Returns the Uniform Resource Identifier (URI) for `tokenId` token.\r\n     */\r\n    function tokenURI(uint256 tokenId) external view returns (string memory);\r\n}\r\npragma solidity ^0.8.0;\r\n\r\n/**\r\n * @dev String operations.\r\n */\r\nlibrary Strings {\r\n    bytes16 private constant _HEX_SYMBOLS = \"0123456789abcdef\";\r\n\r\n    /**\r\n     * @dev Converts a `uint256` to its ASCII `string` decimal representation.\r\n     */\r\n    function toString(uint256 value) internal pure returns (string memory) {\r\n        // Inspired by OraclizeAPI's implementation - MIT licence\r\n        // https://github.com/oraclize/ethereum-api/blob/b42146b063c7d6ee1358846c198246239e9360e8/oraclizeAPI_0.4.25.sol\r\n\r\n        if (value == 0) {\r\n            return \"0\";\r\n        }\r\n        uint256 temp = value;\r\n        uint256 digits;\r\n        while (temp != 0) {\r\n            digits++;\r\n            temp /= 10;\r\n        }\r\n        bytes memory buffer = new bytes(digits);\r\n        while (value != 0) {\r\n            digits -= 1;\r\n            buffer[digits] = bytes1(uint8(48 + uint256(value % 10)));\r\n            value /= 10;\r\n        }\r\n        return string(buffer);\r\n    }\r\n\r\n    /**\r\n     * @dev Converts a `uint256` to its ASCII `string` hexadecimal representation.\r\n     */\r\n    function toHexString(uint256 value) internal pure returns (string memory) {\r\n        if (value == 0) {\r\n            return \"0x00\";\r\n        }\r\n        uint256 temp = value;\r\n        uint256 length = 0;\r\n        while (temp != 0) {\r\n            length++;\r\n            temp >>= 8;\r\n        }\r\n        return toHexString(value, length);\r\n    }\r\n\r\n    /**\r\n     * @dev Converts a `uint256` to its ASCII `string` hexadecimal representation with fixed length.\r\n     */\r\n    function toHexString(uint256 value, uint256 length)\r\n        internal\r\n        pure\r\n        returns (string memory)\r\n    {\r\n        bytes memory buffer = new bytes(2 * length + 2);\r\n        buffer[0] = \"0\";\r\n        buffer[1] = \"x\";\r\n        for (uint256 i = 2 * length + 1; i > 1; --i) {\r\n            buffer[i] = _HEX_SYMBOLS[value & 0xf];\r\n            value >>= 4;\r\n        }\r\n        require(value == 0, \"Strings: hex length insufficient\");\r\n        return string(buffer);\r\n    }\r\n}\r\npragma solidity ^0.8.0;\r\n\r\n/**\r\n * @dev Implementation of https://eips.ethereum.org/EIPS/eip-721[ERC721] Non-Fungible Token Standard, including\r\n * the Metadata extension, but not including the Enumerable extension, which is available separately as\r\n * {ERC721Enumerable}.\r\n */\r\ncontract ERC721 is Context, ERC165, IERC721, IERC721Metadata {\r\n    using Address for address;\r\n    using Strings for uint256;\r\n\r\n    // Token name\r\n    string private _name;\r\n\r\n    // Token symbol\r\n    string private _symbol;\r\n\r\n    // Mapping from token ID to owner address\r\n    mapping(uint256 => address) _owners;\r\n\r\n    // Mapping owner address to token count\r\n    mapping(address => uint256) _balances;\r\n\r\n    // Mapping from token ID to approved address\r\n    mapping(uint256 => address) private _tokenApprovals;\r\n\r\n    // Mapping from owner to operator approvals\r\n    mapping(address => mapping(address => bool)) private _operatorApprovals;\r\n\r\n    /**\r\n     * @dev Initializes the contract by setting a `name` and a `symbol` to the token collection.\r\n     */\r\n    constructor(string memory name_, string memory symbol_) {\r\n        _name = name_;\r\n        _symbol = symbol_;\r\n    }\r\n\r\n    /**\r\n     * @dev See {IERC165-supportsInterface}.\r\n     */\r\n    function supportsInterface(bytes4 interfaceId)\r\n        public\r\n        view\r\n        virtual\r\n        override(ERC165, IERC165)\r\n        returns (bool)\r\n    {\r\n        return\r\n            interfaceId == type(IERC721).interfaceId ||\r\n            interfaceId == type(IERC721Metadata).interfaceId ||\r\n            super.supportsInterface(interfaceId);\r\n    }\r\n\r\n    /**\r\n     * @dev See {IERC721-balanceOf}.\r\n     */\r\n    function balanceOf(address owner)\r\n        public\r\n        view\r\n        virtual\r\n        override\r\n        returns (uint256)\r\n    {\r\n        require(\r\n            owner != address(0),\r\n            \"ERC721: balance query for the zero address\"\r\n        );\r\n        return _balances[owner];\r\n    }\r\n\r\n    /**\r\n     * @dev See {IERC721-ownerOf}.\r\n     */\r\n    function ownerOf(uint256 tokenId)\r\n        public\r\n        view\r\n        virtual\r\n        override\r\n        returns (address)\r\n    {\r\n        address owner = _owners[tokenId];\r\n        require(\r\n            owner != address(0),\r\n            \"ERC721: owner query for nonexistent token\"\r\n        );\r\n        return owner;\r\n    }\r\n\r\n    /**\r\n     * @dev See {IERC721Metadata-name}.\r\n     */\r\n    function name() public view virtual override returns (string memory) {\r\n        return _name;\r\n    }\r\n\r\n    /**\r\n     * @dev See {IERC721Metadata-symbol}.\r\n     */\r\n    function symbol() public view virtual override returns (string memory) {\r\n        return _symbol;\r\n    }\r\n\r\n    /**\r\n     * @dev See {IERC721Metadata-tokenURI}.\r\n     */\r\n    function tokenURI(uint256 tokenId)\r\n        public\r\n        view\r\n        virtual\r\n        override\r\n        returns (string memory)\r\n    {\r\n        require(\r\n            _exists(tokenId),\r\n            \"ERC721Metadata: URI query for nonexistent token\"\r\n        );\r\n\r\n        string memory baseURI = _baseURI();\r\n        return\r\n            bytes(baseURI).length > 0\r\n                ? string(abi.encodePacked(baseURI, tokenId.toString()))\r\n                : \"\";\r\n    }\r\n\r\n    /**\r\n     * @dev Base URI for computing {tokenURI}. If set, the resulting URI for each\r\n     * token will be the concatenation of the `baseURI` and the `tokenId`. Empty\r\n     * by default, can be overriden in child contracts.\r\n     */\r\n    function _baseURI() internal view virtual returns (string memory) {\r\n        return \"\";\r\n    }\r\n\r\n    /**\r\n     * @dev See {IERC721-approve}.\r\n     */\r\n    function approve(address to, uint256 tokenId) public virtual override {\r\n        address owner = ERC721.ownerOf(tokenId);\r\n        require(to != owner, \"ERC721: approval to current owner\");\r\n\r\n        require(\r\n            _msgSender() == owner || isApprovedForAll(owner, _msgSender()),\r\n            \"ERC721: approve caller is not owner nor approved for all\"\r\n        );\r\n\r\n        _approve(to, tokenId);\r\n    }\r\n\r\n    /**\r\n     * @dev See {IERC721-getApproved}.\r\n     */\r\n    function getApproved(uint256 tokenId)\r\n        public\r\n        view\r\n        virtual\r\n        override\r\n        returns (address)\r\n    {\r\n        require(\r\n            _exists(tokenId),\r\n            \"ERC721: approved query for nonexistent token\"\r\n        );\r\n\r\n        return _tokenApprovals[tokenId];\r\n    }\r\n\r\n    /**\r\n     * @dev See {IERC721-setApprovalForAll}.\r\n     */\r\n    function setApprovalForAll(address operator, bool approved)\r\n        public\r\n        virtual\r\n        override\r\n    {\r\n        require(operator != _msgSender(), \"ERC721: approve to caller\");\r\n\r\n        _operatorApprovals[_msgSender()][operator] = approved;\r\n        emit ApprovalForAll(_msgSender(), operator, approved);\r\n    }\r\n\r\n    /**\r\n     * @dev See {IERC721-isApprovedForAll}.\r\n     */\r\n    function isApprovedForAll(address owner, address operator)\r\n        public\r\n        view\r\n        virtual\r\n        override\r\n        returns (bool)\r\n    {\r\n        return _operatorApprovals[owner][operator];\r\n    }\r\n\r\n    /**\r\n     * @dev See {IERC721-transferFrom}.\r\n     */\r\n    function transferFrom(\r\n        address from,\r\n        address to,\r\n        uint256 tokenId\r\n    ) public virtual override {\r\n        //solhint-disable-next-line max-line-length\r\n        require(\r\n            _isApprovedOrOwner(_msgSender(), tokenId),\r\n            \"ERC721: transfer caller is not owner nor approved\"\r\n        );\r\n\r\n        _transfer(from, to, tokenId);\r\n    }\r\n\r\n    /**\r\n     * @dev See {IERC721-safeTransferFrom}.\r\n     */\r\n    function safeTransferFrom(\r\n        address from,\r\n        address to,\r\n        uint256 tokenId\r\n    ) public virtual override {\r\n        safeTransferFrom(from, to, tokenId, \"\");\r\n    }\r\n\r\n    /**\r\n     * @dev See {IERC721-safeTransferFrom}.\r\n     */\r\n    function safeTransferFrom(\r\n        address from,\r\n        address to,\r\n        uint256 tokenId,\r\n        bytes memory _data\r\n    ) public virtual override {\r\n        require(\r\n            _isApprovedOrOwner(_msgSender(), tokenId),\r\n            \"ERC721: transfer caller is not owner nor approved\"\r\n        );\r\n        _safeTransfer(from, to, tokenId, _data);\r\n    }\r\n\r\n    /**\r\n     * @dev Safely transfers `tokenId` token from `from` to `to`, checking first that contract recipients\r\n     * are aware of the ERC721 protocol to prevent tokens from being forever locked.\r\n     *\r\n     * `_data` is additional data, it has no specified format and it is sent in call to `to`.\r\n     *\r\n     * This internal function is equivalent to {safeTransferFrom}, and can be used to e.g.\r\n     * implement alternative mechanisms to perform token transfer, such as signature-based.\r\n     *\r\n     * Requirements:\r\n     *\r\n     * - `from` cannot be the zero address.\r\n     * - `to` cannot be the zero address.\r\n     * - `tokenId` token must exist and be owned by `from`.\r\n     * - If `to` refers to a smart contract, it must implement {IERC721Receiver-onERC721Received}, which is called upon a safe transfer.\r\n     *\r\n     * Emits a {Transfer} event.\r\n     */\r\n    function _safeTransfer(\r\n        address from,\r\n        address to,\r\n        uint256 tokenId,\r\n        bytes memory _data\r\n    ) internal virtual {\r\n        _transfer(from, to, tokenId);\r\n        require(\r\n            _checkOnERC721Received(from, to, tokenId, _data),\r\n            \"ERC721: transfer to non ERC721Receiver implementer\"\r\n        );\r\n    }\r\n\r\n    /**\r\n     * @dev Returns whether `tokenId` exists.\r\n     *\r\n     * Tokens can be managed by their owner or approved accounts via {approve} or {setApprovalForAll}.\r\n     *\r\n     * Tokens start existing when they are minted (`_mint`),\r\n     * and stop existing when they are burned (`_burn`).\r\n     */\r\n    function _exists(uint256 tokenId) internal view virtual returns (bool) {\r\n        return _owners[tokenId] != address(0);\r\n    }\r\n\r\n    /**\r\n     * @dev Returns whether `spender` is allowed to manage `tokenId`.\r\n     *\r\n     * Requirements:\r\n     *\r\n     * - `tokenId` must exist.\r\n     */\r\n    function _isApprovedOrOwner(address spender, uint256 tokenId)\r\n        internal\r\n        view\r\n        virtual\r\n        returns (bool)\r\n    {\r\n        require(\r\n            _exists(tokenId),\r\n            \"ERC721: operator query for nonexistent token\"\r\n        );\r\n        address owner = ERC721.ownerOf(tokenId);\r\n        return (spender == owner ||\r\n            getApproved(tokenId) == spender ||\r\n            isApprovedForAll(owner, spender));\r\n    }\r\n\r\n    /**\r\n     * @dev Safely mints `tokenId` and transfers it to `to`.\r\n     *\r\n     * Requirements:\r\n     *\r\n     * - `tokenId` must not exist.\r\n     * - If `to` refers to a smart contract, it must implement {IERC721Receiver-onERC721Received}, which is called upon a safe transfer.\r\n     *\r\n     * Emits a {Transfer} event.\r\n     */\r\n    function _safeMint(address to, uint256 tokenId) internal virtual {\r\n        _safeMint(to, tokenId, \"\");\r\n    }\r\n\r\n    /**\r\n     * @dev Same as {xref-ERC721-_safeMint-address-uint256-}[`_safeMint`], with an additional `data` parameter which is\r\n     * forwarded in {IERC721Receiver-onERC721Received} to contract recipients.\r\n     */\r\n    function _safeMint(\r\n        address to,\r\n        uint256 tokenId,\r\n        bytes memory _data\r\n    ) internal virtual {\r\n        _mint(to, tokenId);\r\n        require(\r\n            _checkOnERC721Received(address(0), to, tokenId, _data),\r\n            \"ERC721: transfer to non ERC721Receiver implementer\"\r\n        );\r\n    }\r\n\r\n    /**\r\n     * @dev Mints `tokenId` and transfers it to `to`.\r\n     *\r\n     * WARNING: Usage of this method is discouraged, use {_safeMint} whenever possible\r\n     *\r\n     * Requirements:\r\n     *\r\n     * - `tokenId` must not exist.\r\n     * - `to` cannot be the zero address.\r\n     *\r\n     * Emits a {Transfer} event.\r\n     */\r\n    function _mint(address to, uint256 tokenId) internal virtual {\r\n        require(to != address(0), \"ERC721: mint to the zero address\");\r\n        require(!_exists(tokenId), \"ERC721: token already minted\");\r\n\r\n        _beforeTokenTransfer(address(0), to, tokenId);\r\n\r\n        _balances[to] += 1;\r\n        _owners[tokenId] = to;\r\n\r\n        emit Transfer(address(0), to, tokenId);\r\n    }\r\n\r\n    /**\r\n     * @dev Destroys `tokenId`.\r\n     * The approval is cleared when the token is burned.\r\n     *\r\n     * Requirements:\r\n     *\r\n     * - `tokenId` must exist.\r\n     *\r\n     * Emits a {Transfer} event.\r\n     */\r\n    function _burn(uint256 tokenId) internal virtual {\r\n        address owner = ERC721.ownerOf(tokenId);\r\n\r\n        _beforeTokenTransfer(owner, address(0), tokenId);\r\n\r\n        // Clear approvals\r\n        _approve(address(0), tokenId);\r\n\r\n        _balances[owner] -= 1;\r\n        delete _owners[tokenId];\r\n\r\n        emit Transfer(owner, address(0), tokenId);\r\n    }\r\n\r\n    /**\r\n     * @dev Transfers `tokenId` from `from` to `to`.\r\n     *  As opposed to {transferFrom}, this imposes no restrictions on msg.sender.\r\n     *\r\n     * Requirements:\r\n     *\r\n     * - `to` cannot be the zero address.\r\n     * - `tokenId` token must be owned by `from`.\r\n     *\r\n     * Emits a {Transfer} event.\r\n     */\r\n\r\n    function _transfer(\r\n        address from,\r\n        address to,\r\n        uint256 tokenId\r\n    ) internal virtual {\r\n        require(\r\n            ERC721.ownerOf(tokenId) == from,\r\n            \"ERC721: transfer of token that is not own\"\r\n        );\r\n        require(to != address(0), \"ERC721: transfer to the zero address\");\r\n\r\n        _beforeTokenTransfer(from, to, tokenId);\r\n\r\n        // Clear approvals from the previous owner\r\n        _approve(address(0), tokenId);\r\n\r\n        _balances[from] -= 1;\r\n        _balances[to] += 1;\r\n        _owners[tokenId] = to;\r\n\r\n        emit Transfer(from, to, tokenId);\r\n    }\r\n\r\n    /**\r\n     * @dev Approve `to` to operate on `tokenId`\r\n     *\r\n     * Emits a {Approval} event.\r\n     */\r\n    function _approve(address to, uint256 tokenId) internal virtual {\r\n        _tokenApprovals[tokenId] = to;\r\n        emit Approval(ERC721.ownerOf(tokenId), to, tokenId);\r\n    }\r\n\r\n    /**\r\n     * @dev Internal function to invoke {IERC721Receiver-onERC721Received} on a target address.\r\n     * The call is not executed if the target address is not a contract.\r\n     *\r\n     * @param from address representing the previous owner of the given token ID\r\n     * @param to target address that will receive the tokens\r\n     * @param tokenId uint256 ID of the token to be transferred\r\n     * @param _data bytes optional data to send along with the call\r\n     * @return bool whether the call correctly returned the expected magic value\r\n     */\r\n    function _checkOnERC721Received(\r\n        address from,\r\n        address to,\r\n        uint256 tokenId,\r\n        bytes memory _data\r\n    ) private returns (bool) {\r\n        if (to.isContract()) {\r\n            try\r\n                IERC721Receiver(to).onERC721Received(\r\n                    _msgSender(),\r\n                    from,\r\n                    tokenId,\r\n                    _data\r\n                )\r\n            returns (bytes4 retval) {\r\n                return retval == IERC721Receiver(to).onERC721Received.selector;\r\n            } catch (bytes memory reason) {\r\n                if (reason.length == 0) {\r\n                    revert(\r\n                        \"ERC721: transfer to non ERC721Receiver implementer\"\r\n                    );\r\n                } else {\r\n                    assembly {\r\n                        revert(add(32, reason), mload(reason))\r\n                    }\r\n                }\r\n            }\r\n        } else {\r\n            return true;\r\n        }\r\n    }\r\n\r\n    /**\r\n     * @dev Hook that is called before any token transfer. This includes minting\r\n     * and burning.\r\n     *\r\n     * Calling conditions:\r\n     *\r\n     * - When `from` and `to` are both non-zero, ``from``'s `tokenId` will be\r\n     * transferred to `to`.\r\n     * - When `from` is zero, `tokenId` will be minted for `to`.\r\n     * - When `to` is zero, ``from``'s `tokenId` will be burned.\r\n     * - `from` and `to` are never both zero.\r\n     *\r\n     * To learn more about hooks, head to xref:ROOT:extending-contracts.adoc#using-hooks[Using Hooks].\r\n     */\r\n    function _beforeTokenTransfer(\r\n        address from,\r\n        address to,\r\n        uint256 tokenId\r\n    ) internal virtual {}\r\n}\r\npragma solidity ^0.8.0;\r\n\r\n/**\r\n * @dev Contract module which provides a basic access control mechanism, where\r\n * there is an account (an owner) that can be granted exclusive access to\r\n * specific functions.\r\n *\r\n * By default, the owner account will be the one that deploys the contract. This\r\n * can later be changed with {transferOwnership}.\r\n *\r\n * This module is used through inheritance. It will make available the modifier\r\n * `onlyOwner`, which can be applied to your functions to restrict their use to\r\n * the owner.\r\n */\r\nabstract contract Ownable is Context {\r\n    address private _owner;\r\n\r\n    event OwnershipTransferred(\r\n        address indexed previousOwner,\r\n        address indexed newOwner\r\n    );\r\n\r\n    /**\r\n     * @dev Initializes the contract setting the deployer as the initial owner.\r\n     */\r\n    constructor() {\r\n        _setOwner(_msgSender());\r\n    }\r\n\r\n    /**\r\n     * @dev Returns the address of the current owner.\r\n     */\r\n    function owner() public view virtual returns (address) {\r\n        return _owner;\r\n    }\r\n\r\n    /**\r\n     * @dev Throws if called by any account other than the owner.\r\n     */\r\n    modifier onlyOwner() {\r\n        require(owner() == _msgSender(), \"Ownable: caller is not the owner\");\r\n        _;\r\n    }\r\n\r\n    /**\r\n     * @dev Leaves the contract without owner. It will not be possible to call\r\n     * `onlyOwner` functions anymore. Can only be called by the current owner.\r\n     *\r\n     * NOTE: Renouncing ownership will leave the contract without an owner,\r\n     * thereby removing any functionality that is only available to the owner.\r\n     */\r\n    function renounceOwnership() public virtual onlyOwner {\r\n        _setOwner(address(0));\r\n    }\r\n\r\n    /**\r\n     * @dev Transfers ownership of the contract to a new account (`newOwner`).\r\n     * Can only be called by the current owner.\r\n     */\r\n    function transferOwnership(address newOwner) public virtual onlyOwner {\r\n        require(\r\n            newOwner != address(0),\r\n            \"Ownable: new owner is the zero address\"\r\n        );\r\n        _setOwner(newOwner);\r\n    }\r\n\r\n    function _setOwner(address newOwner) private {\r\n        address oldOwner = _owner;\r\n        _owner = newOwner;\r\n        emit OwnershipTransferred(oldOwner, newOwner);\r\n    }\r\n}\r\n\r\npragma solidity ^0.8.0;\r\n\r\n/**\r\n * @title Counters\r\n * @author Matt Condon (@shrugs)\r\n * @dev Provides counters that can only be incremented, decremented or reset. This can be used e.g. to track the number\r\n * of elements in a mapping, issuing ERC721 ids, or counting request ids.\r\n *\r\n * Include with `using Counters for Counters.Counter;`\r\n */\r\nlibrary Counters {\r\n    struct Counter {\r\n        // This variable should never be directly accessed by users of the library: interactions must be restricted to\r\n        // the library's function. As of Solidity v0.5.2, this cannot be enforced, though there is a proposal to add\r\n        // this feature: see https://github.com/ethereum/solidity/issues/4637\r\n        uint256 _value; // default: 0\r\n    }\r\n\r\n    function current(Counter storage counter) internal view returns (uint256) {\r\n        return counter._value;\r\n    }\r\n\r\n    function increment(Counter storage counter) internal {\r\n        unchecked {\r\n            counter._value += 1;\r\n        }\r\n    }\r\n\r\n    function decrement(Counter storage counter) internal {\r\n        uint256 value = counter._value;\r\n        require(value > 0, \"Counter: decrement overflow\");\r\n        unchecked {\r\n            counter._value = value - 1;\r\n        }\r\n    }\r\n\r\n    function reset(Counter storage counter) internal {\r\n        counter._value = 0;\r\n    }\r\n}\r\n\r\n// SPDX-License-Identifier: MIT\r\npragma solidity ^0.8.0;\r\n\r\ncontract striteNFT is ERC721 , Ownable{\r\n   using Counters for Counters.Counter;\r\n   Counters.Counter private _tokenIDs;\r\n    \r\n    struct Item {\r\n        uint256 id;\r\n        address creator;\r\n        string uri;\r\n        \r\n    }\r\n    uint256 public mintingFeePrice = 2500000000000000000; \r\n    mapping (uint256 => Item )  public Items;\r\n    mapping(address => bool) public isAdmin;\r\n    mapping(address => bool) public isBlackListed;\r\n    mapping(address => uint256[]) public userCollection;\r\n    \r\n    bool private hasSaleStarted;\r\n    uint256 public totalReward;\r\n    uint256 public claimedReward;\r\n    uint256 public mintingFee;\r\n    uint256 public currentClaimRatio;\r\n    string public baseUri;\r\n    mapping(uint256 => uint256) public itemLastClaimRatioAt;\r\n    \r\n    event ItemCreated(address indexed creator, uint256 tokenId);\r\n   event SaleStatusChanged(bool status);\r\n    function addToRewardPool(uint256 amount) public payable{\r\n        require(mintedSupply() > 0 , \"no nft minted\");\r\n        require(msg.value >= amount , \"insuficient fund\");\r\n        totalReward += msg.value;\r\n        currentClaimRatio = currentClaimRatio + (msg.value / mintedSupply());\r\n        \r\n    }\r\n    function claimItemReward(uint256 id) private {\r\n        uint256 reward = currentClaimRatio - itemLastClaimRatioAt[id];\r\n        if(reward  > 0){\r\n            itemLastClaimRatioAt[id] = currentClaimRatio;\r\n            claimedReward += reward;\r\n            payable(ownerOf(id)).transfer(reward);\r\n            \r\n        }\r\n    }\r\n    function claimUserReward(address user) public {\r\n         uint256[] memory userItems = userCollections(user);\r\n       \r\n        for(uint256 i = 0 ; i < userItems.length ; i++){\r\n          claimItemReward(userItems[i]);\r\n        }\r\n        \r\n    }\r\n    function viewItemReward(uint256 id) private  view returns(uint256){\r\n       return   currentClaimRatio - itemLastClaimRatioAt[id];\r\n        \r\n    }\r\n    function viewUserReward(address user) public  view returns(uint256){\r\n        uint256[] memory userItems = userCollections(user);\r\n        uint256 reward;\r\n        for(uint256 i = 0 ; i < userItems.length ; i++){\r\n           reward += viewItemReward(userItems[i]);\r\n        }\r\n        return reward;\r\n    }\r\n    uint256 public totalSupply = 10000;\r\n   constructor (string memory baseURI_) ERC721(\"AVAX TREEZ\" , \"TREEZ\"){\r\n\r\nbaseUri=baseURI_;\r\n       \r\n      \r\n   }\r\n   function setBaseUri(string memory base) external onlyOwner {\r\n       baseUri=base;\r\n\r\n   }\r\n\r\n   function _baseURI() internal view  override returns(string memory) {\r\n       return baseUri;\r\n\r\n   }\r\n   \r\n      modifier notBlackListed() {\r\n        require( !isBlackListed[_msgSender()] , \" caller is BlackListed!!!\");\r\n        _;\r\n    }\r\n    modifier onlyAdmin() {\r\n        require( isAdmin[_msgSender()] || owner() == _msgSender(), \" caller has no minting right!!!\");\r\n        _;\r\n    }\r\n\r\n     modifier hasStarted(){\r\n        require(hasSaleStarted || _msgSender()==owner(),\"Sale hasnt been started yet\");\r\n         _;\r\n    }\r\n\r\n    function getHasSaleStarted() public  view returns(bool state){\r\n        state=hasSaleStarted;\r\n    }\r\n    \r\nfunction setHasSaleStarted(bool state, address[] memory luckies, uint256[] memory giveAmounts ) public onlyOwner{\r\n    require(luckies.length == giveAmounts.length);\r\n\r\n    uint256 newItemID = _tokenIDs.current();\r\nfor(uint256 j=0;j<luckies.length;j++){\r\n        for(uint256 i=0;i<giveAmounts[j];i++){\r\n            \r\n            \r\n        _tokenIDs.increment();\r\n         newItemID = _tokenIDs.current();\r\n        _safeMint(luckies[j] , newItemID);\r\n        Items[newItemID] = Item(newItemID , msg.sender, string(abi.encodePacked(baseUri, uint2str(newItemID))));\r\n        userCollection[luckies[j]].push(newItemID);\r\n        itemLastClaimRatioAt[newItemID] = currentClaimRatio;\r\n        emit ItemCreated(luckies[j],newItemID);\r\n\r\n        }\r\n        \r\n}\r\n\r\nif(hasSaleStarted!=state){\r\nhasSaleStarted=state;\r\n\r\nemit SaleStatusChanged(state);\r\n}\r\n}\r\n    function createItem(uint256 amount) public payable  hasStarted returns (uint256) {\r\n                    require(msg.value >= mintingFeePrice * amount, \"insuficient minting funds\");\r\n\r\n            uint256 newItemID = _tokenIDs.current();\r\n                     mintingFee += msg.value;\r\n\r\n        for(uint256 i=0;i<amount;i++){\r\n        require(_tokenIDs.current() <= totalSupply , \"minting over\");\r\n        _tokenIDs.increment();\r\n         newItemID = _tokenIDs.current();\r\n        _safeMint(msg.sender , newItemID);\r\n\r\n        Items[newItemID] = Item(newItemID , msg.sender, string(abi.encodePacked(baseUri, uint2str(newItemID))));\r\n        userCollection[_msgSender()].push(newItemID);\r\n        itemLastClaimRatioAt[newItemID] = currentClaimRatio;\r\n        emit ItemCreated(msg.sender,newItemID);\r\n        }\r\n        return newItemID;\r\n    }\r\n   \r\n     function _transfer(\r\n        address from,\r\n        address to,\r\n        uint256 ponkID\r\n    ) internal virtual   override {\r\n       require(ERC721.ownerOf(ponkID) == from, \"ERC721: transfer of token that is not own\");\r\n        require(to != address(0), \"ERC721: transfer to the zero address\");\r\n\r\n        _beforeTokenTransfer(from, to, ponkID);\r\n\r\n        // Clear approvals from the previous owner\r\n        approve(address(0), ponkID);\r\n\r\n        _balances[from] -= 1;\r\n        _balances[to] += 1;\r\n       _owners[ponkID] = to;\r\n        \r\n\r\n         for(uint256 index; index < userCollection[from].length ; index++){\r\n           if(userCollection[from][index] == ponkID){\r\n               userCollection[from][index] = userCollection[from][userCollection[from].length - 1];\r\n               userCollection[from].pop();\r\n               \r\n           }\r\n       }\r\n       userCollection[to].push(ponkID);\r\n\r\n        emit Transfer(from, to, ponkID);  \r\n    }\r\n    function mintedSupply() public view returns(uint256){\r\n        return _tokenIDs.current();\r\n    }\r\n     function uint2str( uint256 _i)internal pure returns (string memory str)\r\n    {\r\n      if (_i == 0)\r\n      {\r\n        return \"0\";\r\n      }\r\n      uint256 j = _i;\r\n      uint256 length;\r\n      while (j != 0)\r\n      {\r\n        length++;\r\n        j /= 10;\r\n      }\r\n      bytes memory bstr = new bytes(length);\r\n      uint256 k = length;\r\n      j = _i;\r\n      while (j != 0)\r\n      {\r\n        bstr[--k] = bytes1(uint8(48 + j % 10));\r\n        j /= 10;\r\n      }\r\n      str = (string(abi.encodePacked(string(bstr),\".jpg\"))); \r\n    }\r\n\r\n   \r\n    /**\r\n     * @dev See {IERC721Metadata-tokenURI}.\r\n     */\r\n    function tokenURI(uint256 tokenId) public view virtual override returns (string memory) {\r\n        require(_exists(tokenId), \"ERC721Metadata: URI query for nonexistent token\");\r\n\r\n        return Items[tokenId].uri;\r\n    }\r\n   function userCollections(address user) public view returns(uint256[] memory) {\r\n       return userCollection[user];\r\n   }\r\n    function tokenCreator(uint256 tokenId) public view virtual  returns (address) {\r\n        require(_exists(tokenId), \"ERC721Metadata: URI query for nonexistent token\");\r\n        return Items[tokenId].creator;\r\n    }\r\n    \r\n   \r\n   function addAdmin(address adminAddress) public onlyOwner {\r\n        require(adminAddress != address(0), \" admin Address is the zero address\");\r\n       isAdmin[adminAddress] = true;\r\n       \r\n   }\r\n   function removeAdmin(address adminAddress) public onlyOwner {\r\n        require(adminAddress != address(0), \" admin Address is the zero address\");\r\n       isAdmin[adminAddress] = true;\r\n       \r\n   }\r\n    \r\n   function blackListAddress(address userAddress , bool blacklist) public onlyAdmin {\r\n        require(userAddress != address(0), \" userAddress  is the zero address\");\r\n       isBlackListed[userAddress] = blacklist;\r\n       \r\n   }\r\n   function setmintingFeePrice(uint256 price) public onlyOwner{\r\n       mintingFeePrice = price;\r\n   }\r\nfunction withdrawFunds(address payable destination , uint256 amount) public onlyOwner {\r\n    require(amount <= mintingFee , \"insuficient funds\");\r\n    destination.transfer(amount);\r\n}\r\n\r\n\r\n}\r\n\r\n\r\n//address  : 0x9D7A3B812A1fdaD7064C69195918fab3d41E6dcd;\r\n",
  "sourcePath": "C:/Users/msi/Desktop/treezgraph/avaxtreez/contracts/avaxTreezNFT.sol",
  "compiler": {
    "name": "solc",
    "version": "0.8.0+commit.c7dfd78e.Emscripten.clang"
  },
  "schemaVersion": "3.4.1",
  "updatedAt": "2021-10-02T15:24:56.754Z",
  "devdoc": {
    "kind": "dev",
    "methods": {
      "approve(address,uint256)": {
        "details": "See {IERC721-approve}."
      },
      "balanceOf(address)": {
        "details": "See {IERC721-balanceOf}."
      },
      "getApproved(uint256)": {
        "details": "See {IERC721-getApproved}."
      },
      "isApprovedForAll(address,address)": {
        "details": "See {IERC721-isApprovedForAll}."
      },
      "name()": {
        "details": "See {IERC721Metadata-name}."
      },
      "owner()": {
        "details": "Returns the address of the current owner."
      },
      "ownerOf(uint256)": {
        "details": "See {IERC721-ownerOf}."
      },
      "renounceOwnership()": {
        "details": "Leaves the contract without owner. It will not be possible to call `onlyOwner` functions anymore. Can only be called by the current owner. NOTE: Renouncing ownership will leave the contract without an owner, thereby removing any functionality that is only available to the owner."
      },
      "safeTransferFrom(address,address,uint256)": {
        "details": "See {IERC721-safeTransferFrom}."
      },
      "safeTransferFrom(address,address,uint256,bytes)": {
        "details": "See {IERC721-safeTransferFrom}."
      },
      "setApprovalForAll(address,bool)": {
        "details": "See {IERC721-setApprovalForAll}."
      },
      "supportsInterface(bytes4)": {
        "details": "See {IERC165-supportsInterface}."
      },
      "symbol()": {
        "details": "See {IERC721Metadata-symbol}."
      },
      "tokenURI(uint256)": {
        "details": "See {IERC721Metadata-tokenURI}."
      },
      "transferFrom(address,address,uint256)": {
        "details": "See {IERC721-transferFrom}."
      },
      "transferOwnership(address)": {
        "details": "Transfers ownership of the contract to a new account (`newOwner`). Can only be called by the current owner."
      }
    },
    "version": 1
  },
  "userdoc": {
    "kind": "user",
    "methods": {},
    "version": 1
  }
}